:2000000000000420CB380000B33900003F330000CF370000CF370000CF370000093A000006
:20002000000000000000000000000000CF370000CF37000000000000CF370000CF370000A8
:20004000CF370000CF370000CF370000CF370000CF370000CF370000CF370000CF37000070
:20006000CF370000CF370000CF370000CF370000CF370000CF370000CF370000CF37000050
:20008000CF370000CF370000CF370000CF370000CF370000CF370000CF370000CF37000030
:2000A000CF370000CF370000CF370000CF370000CF370000CF370000CF370000CF37000010
:2000C000CF370000CF370000CF370000CF370000CF370000CF370000CF370000CF370000F0
:1C00E000CF370000CF370000CF370000CF370000CF370000CF370000CF370000DA
:200100002DE9F04F87B00446D0E90010CA694368510001318B4240F02D8100680078042828
:2001200040F02881AA4DE06805F50076314602F0B5FD03F007FC03F04BFB0828FBD003F0FF
:2001400013F9062840F01B8103F0F0FB03F0FAFB03F03EFB0828FBD003F006F9062840F05C
:200160001181D4E9000105F16008C26908684146013002F093FDD4E9000105F1C00A03F08B
:2001800088FB2068D0E90123D0E90317C069CDE9001702904046514600F0DAFD002840F0E0
:2001A000E48003F0C3FB2068DFF828B203F07FFB02F060FC03F00CFB0828FBD02068DBF8E6
:2001C000002005F54079C169484603F0ADFA002840F0CB802168A068CA69314602F05EFDCF
:2001E0002068324603F04EFB03F0F2FA0828FBD0794F4FF48070DBF800203860304639466E
:2002000003F0E6FB002840F0B080206839680269C3693046CDF800B002F054FC03F0D8FAD0
:200220000828FBD003F03CFBD4F800E00028DEF81CC0C7F800C040F09880DEE90512DEE9A7
:200240000130DEF80CE0CDE902CBCDE9000E304601F0B8FD03F0BCFA0828FBD02068DBF849
:200260000020C3693046F11803F0B6FB00287CD103F062FB20682A4603F004FB03F0A8FACB
:200280000828FBD04FF480703946DBF8002041F8040F484603F09CFB002866D12068796892
:2002A0000269C3694846CDF800B002F00BFC03F08FFA0828FBD02068DBF80020C169484601
:2002C00003F03EFA21680028CA697A604DD1606841460068013002F0E1FCD4E9000103F0AF
:2002E000D8FA2068D0E90131C268C069CDE90012CDE9020B48464146524601F063FD03F0EA
:2003000067FA0828FBD02068DBF80020C369484609EB030103F060FB38BB2068D0E90112BF
:20032000C069CDE90012CDE9020B311809EB000330464A4601F05EFE03F04AFA0828FBD044
:200340002068DBF800200021C369304603F042FB58B9206803F0ABFA02F0B4FB03F038FA38
:200360000828FBD003F09CFA78B107B0BDE8F04F03F0CEB86FF0090007B0BDE8F08F6FF01A
:200380000200F9E76FF00300F6E703F0D5FA20680021C069069605950491810702D04FF044
:2003A000FF30E9E78008002188420BD0069A52F82120059B53F8213001315A40049B1A43C1
:2003C0000492F1E70498002818BF4FF0FF30D3E700620258C4430020944500200A507047FF
:2003E000A2EB0300704700BF02780B78012A28BF9A42F5D16DE9044540EA0104CDE9026759
:200400006FF0000C4FEA447212B380EA010414F0070F6AD100F0070420F0070004F00305EB
:2004200021F007014FEAC505F0E8042314F0040FF1E804670CFA05F462EA040266EA04069B
:200440000AD063EA0403624667EA0407664603E0F0E80423F1E8046782FA4CF582EA060465
:20046000A4FA8CF46CBB83FA4CF583EA0705A5FA8CF595B950E9022351E9026782FA4CF5D4
:2004800082EA0604A4FA8CF483FA4CF583EA0705A5FA8CF52543DBD09CB92DBAB5FA85F4FA
:2004A00024F0070427FA04F1DDE9026723FA04F303F0FF0001F0FF01FDE80445A0EB010027
:2004C000704724BAB4FA84F424F0070426FA04F1DDE9026722FA04F202F0FF0001F0FF010A
:2004E000FDE80445A0EB0100704714F0030F3CD110F0030428D150F8082B51F8083B82FAE5
:200500004CF582EA0305A5FA8CF55DB950F8042C51F8043C82FA4CF582EA0305A5FA8CF59E
:20052000002DE8D02DBAB5FA85F424F0070423FA04F122FA04F202F0FF0001F0FF01FDE8BD
:200540000445A0EB010070474FEAC40420F0030050F8082B21F0030151F8083B0CFA04F4E1
:2005600062EA040263EA0403C9E710F003041AD0A1EB040120F00300E40750F8042B06D058
:200580000FD28B785FFAA2F4E41A06D12BB1CB785FFAB2F4E41A00D11BB920465DF8104BDC
:2005A000704701F1040150F8042BCC0721F0030151F8043B48D824D222F07F4482FA4CF5FE
:2005C00094EA1325A5FA8CF50AD165B951F8043B84EA0204B4EB036F0ED150F8042BEBE717
:2005E0004FEA132355E035F07F454DD10878FDE80445C0F1000070474FEA126203F0FF0398
:2006000047E002EA1C4482FA4CF594EA1345A5FA8CF50AD165B951F8043B84EA0204B4EB20
:20062000034F0CD150F8042BEBE74FEA134330E015EA1C4528D10B884FEA124229E04FEAE8
:20064000124203EA1C4324E002F0FF0482FA4CF594EA1365A5FA8CF50AD165B951F8043BAD
:2006600084EA0204B4EB032F09D150F8042BEBE74FEA13630DE015F0FF0F05D10B684FEAE1
:20068000122223F07F4304E04FF00000FDE80445704712BA1BBA82FA4CF482EA0304A4FADB
:2006A0008CF5B5FA85F402FA04F203FA04F34FEA1260FDE80445A0EB136070472DE9F04FC8
:2006C000ADF5077DD0F8008006461C4615468691404603F008F94FF0000A08EB00090027A6
:2006E000CDF814A2C8453AD208F1010B8DF810A2CDF804A21BF8010C88B3252807D02946D1
:20070000C6F800B0A0470BF1010B0137F2E70BF101088597C6F800809BF8000073288DF859
:20072000100207D186A9284685AA234600F01CF8859F10E00DF1060B81A986AA584600F08B
:2007400033F8909B0246584629469847411C18BF384407468590781CC4D14FF0FF373846E1
:200760000DF5077DBDE8F08F2DE9F041804608681746021D0A6005688DB128461C4603F0FE
:20078000B2F806463868304438600027B742A8BFBDE8F081E85D4146A0470137F6E7002032
:2007A0004146BDE8F04118472DE9FC4115460E46002740F2FD1120220446009703F0DEF828
:2007C00004F5FE7084F8FD710190307B25284ED004F2FD18782803D0642818BF6F280DD1CB
:2007E000694601AA30462B4600F046F80098A8B101982D21002700F8011911E063280ED11E
:200800002868011D296004F2FB110068019184F8FC01C0B2B0FA80F0470900E000270198B0
:20082000A8EB000125464FF4FF73621A0029D8BF551C411C00220026284602F0F8FE0FB19C
:2008400000F8016BA04207D8211A01382022013103F094F800202070291B2046202203F07D
:200860008DF8204603F03FF83844BDE8FC81252020800120BDE8FC81F8B50D46077B1946BC
:200880001446064600F014F8317B642905D1B0F1FF3FDEBF0121296040420A2122466F2FCD
:2008A00008BF0821782F08BF1021BDE8F8400FE0007B642807D06F2805D0782803D0702888
:2008C0001CBF002070470868021D0A6000687047F8B514460D46064620B92068411E216067
:2008E00030210170094F66B13046294600F010F821684A1E226000FB15620646BA5C0A7029
:20090000F1E72068BDE8F84002F0EDBF843C0000102904BF00097047082914BFB0FBF1F0F0
:20092000C00870472DE9F04F8BB0804680488A46682100680790404603F03CF87D4E7E4C80
:2009400008F120050027022F10D0384602F0B6FFC0B2294602F058FD28B13046214640F608
:20096000BA1202F04BFA2C350137ECE700244646022C0CD0404621463246002302F0B2FB27
:2009800010B92C360134F3E7002C00F0BF8000260DF12209012544460027ADF82260022F44
:2009A0000AD0216A204602F01BFD10B1013609F807502C340137F2E7002E00F092805C4FC6
:2009C000079CCDF818A04FF0000AB24500F08B8000204146002200239B461546022823D077
:2009E00019F80020DAB1BBF1000F02460B4618D09BF814200B7D934202460B4611D80ED378
:200A00009BF815204B7D934202460B4609D806D3BBF81620CB8A934202460B4601D82A4629
:200A20005B462C310130D7E73C680020294602F08FFFC0B209A902F0E7FC002847D12C2091
:200A4000294605FB0087002002F082FFC0B20AA902F0DAFC28B3387CC00633D43748099BA1
:200A600000213A4600904FF4807001900020CDE902000490002000F067F80999044638463C
:200A8000079102F0ADFC2A4F18B12D48006884421AD007980021826801F09AFF2948046843
:200AA00012E00A9802F0E6FE04460A9802F02FFD0020042806D0395C0130A142F9D00138F5
:200AC0000328C8D91A4F0124099802F020FD1C480068844209D000200AF1010A09F8050075
:200AE00073E7032513E007940EE0BBF1000F07940AD02C20069A05FB0080C2F800B0006A88
:200B00004178406811719060002500E005464C2414F10C0005D058F8040002F0F8FC2C3CBA
:200B2000F6E7002D079818BF28460BB0BDE8F08FA4450020083D0000673A00002041002078
:200B4000AC450020A84500202DE9F04FBDB07C481C4691460068049002F046FF489820B1D4
:200B60004999012901DB02F027FEB9F80800D9F80C10DDF82881DDE9467B00250844B9F8A9
:200B80000A1000EB010AAA4511D9AAEB0506204629463A465E4528BF5E46334602F038FDA9
:200BA00040B93846314602F007FE3544EBE705A802F0EAFD02F016FFAA4517D8B8F1000FE2
:200BC00004D005A94046202202F010FF0020494622464FF6FF7300902DA801F07FF928B94D
:200BE000329D204602F008FF854204D9544800683DB0BDE8F08F53480DF1D0090DF1CE0AC6
:200C0000D0F800B0002003902DAE33AF4FF0FF383046494652463B46454601F039F8002883
:200C2000E4D440F08380BDF8CC00222806D14FF0FF38002DECD45D45EADA5FE001281BD00B
:200C40001028A846E4D1BDF8CE002028CED1349920460DAA202302F0DBFC0028C6D105A8ED
:200C60000DA9202202F0C6FE38490122A846039209688842CCD05FE0BDF8CE30202BB5D8FE
:200C8000349920460DAA02F0C3FC0028AED19DF8CE60202E02D94FF0FF382DE04FF000085C
:200CA000D84522DA284850F8381000EBC8004568029102F099FE2968029802F07DFD35AD26
:200CC000284602F061FD9EB128460DA932460B7805789D4206D1013A00F1010001F1010194
:200CE000F5D107E008F10108DAE74FF0FF3801E04FF0000802F076FE2DAE89E7BDF8CE3082
:200D0000802B3FF673AF349920460DAA02F080FC00287FF46BAFE8B2BDF8CE3020210090A6
:200D200005A80DAA00F0DAF804906FE7039800283FF45CAF04985BE7014800680490F9E79F
:200D4000A4450020103D0000E83C0000AC4500202DE9FE4FDDF83890074600208A46154670
:200D600011461C46019038464A4602F019F9594EDDF8308030680004FCD402F0F5FA062870
:200D80001CBF0D20BDE8FE8F504629464A4602F007F930680004FCD402F0E6FA06281CBF4B
:200DA0000E20BDE8FE8F01A849463A464B460090384601F0AFFE30680004FCD402F0F5FD8E
:200DC000454802A9834601F043F8002870D1029901A822464B460090584601F023FE306868
:200DE0000004FCD43C4C02F0E0FD02A9204601F02FF800285CD1029901A83A464B46009065
:200E0000204601F087FE30680004FCD402F0CDFD02A9204601F01CF8002849D1029901A832
:200E200042464B460090204601F0FCFD30680004FCD402F0BAFD02A9204601F009F8B8BB2E
:200E4000029901A82A464B460090204601F03AFE30680004FCD404F50074019AC82120466B
:200E600002F06EFC20BB01A8494652464B460090504601F04FFE30680004FCD4164F02F0B3
:200E800094FD02A9384600F0E3FF88B9029901A82A464B460090384601F014FE3068000493
:200EA000FCD40D4D019AC821284602F049FC10B10120BDE8FE8F284621464A4602F070F80C
:200EC00030680004FCD402F04FFA073818BF0F20BDE8FE8F1C500258006402582DE9F04327
:200EE00095B080461C9841491746DFF804911E4651F8302001EBC000D9F8005040680092DC
:200F00000068141802F06CFD684614AA2146302302F0A2FA28B102F061FD284615B0BDE82D
:200F2000F0831498009904AA01AB0C186846214601F0A4F80028EED105980728EBD10698CC
:200F40002C49072202F0C8FB0028E4D102980828E1D103982849082202F0BEFB0028DAD131
:200F6000684614AA214602F093F90028D3D114994129D0D100980144A142CCD10178042999
:200F8000C9D1441CBD193023CDE9004701A814AA294602F061FA90B9149801990844A84249
:200FA0000DD804AE01A92A46304601F003FE30B906F1200001A92A4601F0FCFD40B10F48CC
:200FC000D9F8005001682846884208BF0546A2E704AA2046414601F035FB0849D9F8005086
:200FE00000280968284608BF0846EDE7E83C0000A4450020003D0000DC3C0000AC4500206E
:201000002DE9F0410546002000297AD03E4F0C460021A7F10806072F88BF31468C4270D8FB
:201020003A4800688047681E082105424FF0080008BF2846072D98BF0846E11D21F0070896
:2010400033490A7892B900220023072F88BF334613B9314B1A6007E02E4B2F4D072F9A603E
:201060002B6098BF16461E6001220A702A4E4142421E3568ADB305F10806931903EA01071A
:20108000BE4210D005F11003A7F10804A34201D90744F9E72C6807EB080324F001043444B7
:2010A0009C42E6D305E02B68374623F001034345DFDB284602F002FBB74218D0B81B2A68A8
:2010C000A0F10801296021F001016E1822F00101081A40F0010046F8080F284602F0A8F997
:2010E00006E00E48006880470020BDE8F0812E463046414601F0A6F908480068804706F1D8
:201100000800BDE8F08100BF00400000B4450020BC45002000000020C8430020B845002010
:2011200070B5C0F381413B4D3B4E022927D0012922D1296A8A031FD44FF48042C1F30333C3
:201140003260802202EA51221A44344BD3F8024024F08F042244C3F802200A0A01F0E7013B
:20116000D3F8014062F30304C3F801401A6822F0E7021144196002E04FF0004131604FF08E
:20118000A041C0F38150096809075CBF4021B1620C224FF40071C6F88010296AC90C62F3ED
:2011A0009F01022886F8881125D0012808D028BB0420012101F0D8FE1B4802F009FA21E00F
:2011C000012002F0BDF804460420214601F0CCFE042002F0B5F8A042FAD11148046824F06E
:2011E0007F4002F0F5F90F4A200E072102F02AFB4FF4806030600420032101E00420022167
:2012000001F0B2FE2868094900F03F0008700848006870BD6C0B005080A00C580A600858AA
:201220001400005000C00060BD3786000BB00C402C200940F8B50546084601F049FB384C15
:20124000384F024618212046B84702F0CBFA80B22C2140F2FF3200230090204602F05AF82B
:20126000314E20461C21F2686FF39F32B8477068142120F003322046B84730682B4900EA13
:20128000010220461021B847284601F09BFA024620460C21B847264F212D0BD9F0690221C4
:2012A00001EAD060082120303872F069400F61F35F0002E02220387211203872284602F08C
:2012C00077F9024620462821FFF788F8202D05D3B06A062101EAD040603000E06020212D92
:2012E000F8720CD9F069082101EA1060FC2180303870F06901EAD0400E49084303E08020D4
:2013000038704FF47C400C49202D088026BFB06A02030A4A08212046BDE8F840FFF75EB82C
:2013200000A00C58DD030000700B0050FFFFFC0041A20C5800FCFFFF5CA30C5800803F4061
:201340002DE9F841404C65682D0444BF0820BDE8F881256815B10120BDE8F881E468240465
:2013600044BF1120BDE8F88168B300F0030E4FEA930C4FF000086F460446E04512D052F890
:201380002850BEF1000F07D000950025042D05D07E5D66550135F9E740F82850043408F1F3
:2013A0000108EAE713F0030E12D023F003039C5818446B460094744664B113F8016B013C2C
:2013C00000F8016BF8E74FEA930C03F0030E01E04FF0000EBEF1000F704618BF012081B320
:2013E00060446E460C4600F001031844002302EB800001F00302083063450FD050F82370D3
:201400003AB100970027042F05D0F55DE5550137F9E741F8237004340133EDE7BEF1000FAD
:201420000FD050F82C00009001EB8C006946BEF1000F06D011F8012BAEF1010E00F8012B07
:20144000F5E70020BDE8F88118500258B0B53048056802F0CDF801F0FBFB2E482E4C006870
:20146000C00706D06068B5F1FF3018BF284600F0C1FB2A4800210160206800F44050B0F59C
:20148000805F06D120682649084000F5003121602060244C206840F080002060142001F0E3
:2014A000B1FB206840F4E0202060206840F0010020601D48006800F44000B0F5000F02D183
:2014C0001A4802F085F81A4801680907FCD41A49184801F1080201604260CA1C07318260CE
:2014E000C160164901F11C0202614161144981614031C1611348144981604FF4C401416043
:201500004FF4A3010160206840F002002060B0BD1C0B00500C400940280009588C2108583A
:20152000EFFFFCFC0020095804000050BD37860000400340A0620858000F0B00001C090052
:2015400040C00A002C100E58F00140002DE9F84F394C4FEA910C00284DD0144400F003085E
:201560004FF0000B814604F5805EE3451AD0B8F1000F0CD04FEA8B0A00244E460027202CE4
:2015800009D016F8015BA54008342F43F7E750F82B704FEA8B0A4EF80A7009F104090BF123
:2015A000010BE2E711F0030424D0B8F1000F10D021F0030800250026A64208D208EB060799
:2015C000F1000136C75D07FA01F10D43F4E700950CE050F82C00002500906846042C02D047
:2015E00005550134FAE7009D21F003080CF1010C4EF80850104C4FEAB300032814D80FF2BA
:201600000601DFE800F002070C0F90082060C4F810C009E090086060C4F814C004E09008F7
:20162000A06001E09008E0600CF00100604402EB8000BDE8F88F00BF005002582DE9F04701
:20164000054638480C4600688047204601F02AF800285ED0D4E902010022AB5C0132002B28
:20166000FBD1A2F10108626902F00702042A0DD100264746002F4ED02068A9193A4601F075
:2016800033FE002841D43F1A0644F3E7A1EB00094646002E3FD04E454F4638BF374661699B
:2016A00001F00701022912D13FB100216A5C0A2A07D001318F42F9D109E04FF0000A00271B
:2016C00007E06A1803D04F1C4FF0010A01E04FF0000A29463A4602F089F9A068F61B3D44F2
:2016E000BAF1000F3844A06002D1B9EB0709D0D1204601F037FA40B96269D4E9020142F04E
:201700002002A1EB00096261C3E7606940F4806060614FF0FF380448006880474046BDE8EB
:20172000F08700BFB4450020B845002068B3F8B50446364800688047354A083C002113681F
:20174000A24223F0010004D21044114608300246F5E72F4D2F4E10447719072E88BFA7F1C3
:2017600008050830A84288BF0020A24249D1DA0747D059B10A680D4612F0010218BF00250D
:2017800030B91ABB00260D4608E07047F0B1002501780646C90718BF00262DB1284601F0DE
:2017A0008DFF0EB3012703E086B1002500270646304601F083FF6FB129682068103120F08F
:2017C000010021F001010844316812E0206820F0010007E021683068083120F0010021F022
:2017E00001010844206009E02068296820F00100083121F001012C4608442860204601F01F
:2018000017FE05480068BDE8F8400047B44500200000002000400000B84500202DE9F047F7
:20182000DFF8C08004461E4617468946D8F800008047206801304CD0042F01D0002E48D001
:20184000254655F8040FD5F810A060B15FEA0A7102D50138FFF76AFF00202AF0080AC5E902
:201860000000C5E90200002F2AF0070008BF0127B6F5807F40EA070A3746C4F814A028BFC0
:201880004FF48077B9F1000F18BF012E0BD10137384602F093F82860C0B101304AF00801D3
:2018A0006161606002E009F101002860C11920610139C4E902010C4800688047D8F80000A9
:2018C00080470A480A490024016004E04AF4806060614FF0FF340448006880472046BDE85C
:2018E000F08700BFB4450020B84500209C4500207D3000002DE9F0472E4E8946099F3168F5
:201900003160A7F108014FEAF105072D40D8E9B28B2424FA01F1C9074FF0010146D0264C27
:20192000B9F1000FDDE90AECDDF820A054F8254018BF44F00044C6F880400324C6F80841F1
:20194000C6F80011BCF1000FD6F8041141F00101C6F804114EEA07017160184911F8058013
:20196000514618BF0121BEF1000F08BF5146BAF1000F18BF51466AB1BEF1000F0AD106F1E8
:2019800040074FEA98052DB110CA013D10C7FAE701210BE0BCF1000F03D0DA00B260802252
:2019A00032604A46434601F031FC00210846BDE8F08700BF80460258F83B0000F83C00008D
:2019C0002DE9F047054627200C4600F0CBFC2B4F0026DFF8ACA03989BE707E608AF80060AC
:2019E000081940280FD329B307F11008C1F1400608EB01002946324601F0F8FF00204FF076
:201A0000400938811AE0781829462246103001F0EDFF3889CAF808602044388101F0BDFF91
:201A200018490120787008604A6842F001024A60C8601DE024F03F06A846B146A01BA91963
:201A4000CAE9011001F0A9FFF86807F1500128B1404608224B4601F08BFE04E04046082258
:201A60004B4601F079FE01207870F8684844F86001F097FFBDE8F04700F006B8C0420020ED
:201A800088450020804702582DE9F84F2A482B4E284DDFF8ACA04FF0000B8046841C06F1B1
:201AA000500006F110090090404601F085FCAF682C6001F072FFB07898BBB7F1FF3F17DDE4
:201AC000DAF808701FB3402F16D327F03F07DAF80400009908223B4601F04AFEDAE901011D
:201AE000C91B3844CAE90101F0683844F06018E04FF0FF3070600AE0DAF8041048463A4699
:201B000001F074FF3089CAF808B03844308186F801B09AF80000012804BFA6F808B0C6F840
:201B20000CB001F03EFF70780028BDD17068BDE8F88F00BF8847025801000080C04200208E
:201B400088450020F0B585B00446272000F00AFC264E00200125B07070602548057001F0BA
:201B60001CFF7570F068328960B192B10821831806F11000CDE9002106F15002214601F0BB
:201B8000B9FD2BE006F110002146082301F0BFFD24E0C00006F110050027402102902846E6
:201BA000039701F007FF8020307406F1480002A93A1D07D0CA19013FD378D27900F8012B5B
:201BC000C370F5E706F150012046202201F00EFF284621460822402301F0CAFD01F0E1FE1E
:201BE00005B0BDE8F040FFF74FBF00BFC04200208845002070B504464FF0A0401F4E006826
:201C000080071D4805D44168F02242EA114186F84D101B494FF001220A601A49098805685A
:201C2000284600F0DFFCA80105D4E80103D5307840F00200307020462946FFF7FBFA124894
:201C4000124A0068C0F305311170C1054FF0130158BF232140237354382101EA901000F5DF
:201C60006050A2F85C002846FFF75AFA0220BDE8704001F05DB900BF0400005009620858AA
:201C800004A40C5800A00C580C0C00500EB00C402DE9F84380B30446006868B3606858B39E
:201CA000894621691F4690466D464FF6FF766069814238D22068408920B1E068814204BF9D
:201CC0000431216160682A46042301F0A1FC98B9A07A18B1D4E90301814224D22089B04217
:201CE0000ED0BDF8001081420AD02069BDF802100844011D2161DAE74FF0FF30BDE8F88319
:201D000017B1BDF80000388020690430C9F80000BDF802002169A8F800000844043020612E
:201D20000020BDE8F8830120BDE8F88370B501F034FE1E4E307810B14FF0FF3432E000255C
:201D4000012475703470B57001F02BFEF560358101F023FE164E0420347001F02DF801280E
:201D600008D00420357001F0F1F9042001F024F80128FAD14FF4806001F0FAFB4FF4806096
:201D800001F006FC4FF4806001F0E2FB09480460094801688907FCD50848094A002401685F
:201DA0001160046001F0FDFD204670BDC0420020BD450020282008602820084034EF00E049
:201DC000C04300202DE9F84F0D461E490969090444BF0820BDE8F88FDDE90C6A1F46934679
:201DE000DDE90A98002200233146FFF7AFFB164C0246384631460423A04702464846314625
:201E0000FF23A047024640463146FF23A0470246284631460823A047024658463146FF23AD
:201E2000A047BAF1000F03D008490144CAF800100449800808604FF4504008610020BDE888
:201E4000F88F00BF0C5002587339000000600258F8B5204B1C68240444BF0820F8BD9B6879
:201E60001C042BD41C4C6FF3DF2301331444B3EB940F3CBF1020F8BDA4081B1B0C68B4EBD5
:201E8000830F24D39C000C60F8B100F0030C00246D4606469C4218D052F82470BCF1000F86
:201EA00007D000970027042F05D0E95DF1550137F9E740F8247004360134EBE70A6832B17F
:201EC00008B100220270012008600020F8BD0320F8BD00BF1C50025800A0FDA72DE9FC4163
:201EE00080B10D4671B1164662B104462889E9681F4601AA042301EB00083046414601F068
:201F000087FB18B14FF0FF30BDE8FC81BDF8040046F60812698990420ED1BDF806008142B6
:201F2000F0D1414401AA3046042301F071FB0028E8D1BDF8040001E00029E3D146F607110A
:201F40008842DFD10898BDF806102781C4E90056A07208F10400206168894044E060084460
:201F600060610020BDE8FC81F0B504680B1B012B36DB94F90050002D0AD4631C0360257883
:201F8000C91A002015608D4288BF6FF05F00F0BD05F07F05013D032D84BF6FF06300F0BDAF
:201FA000DFE805F0021C0814022B19D36578A31C0360E5E7042B13D3A6786578231DE77898
:201FC0000360300240EA0540C519D9E7052B07D3D4F80150631D03602DBAD1E7032B02D2B4
:201FE0006FF05F00F0BDB4F80150E31C03606DBAC6E770472DE9F84F16461D4A0D4611699F
:20200000090430D40C9FDFF86CB099469046DDF828A00022002300243946D8470246284602
:202020003946FF23D8470246504639460423D84702460B983946FF23D84702463046394655
:202040000823D847024648463946FF23D8478108C8F80010084908440D9908604FF43040E9
:20206000C8F8100000E008242046BDE8F88F00BF0C5002587339000000600258F8B51C4608
:2020800017466A4630230E46054601F0E5F900B1F8BD2868311A0129BCBF6FF05F00F8BD19
:2020A00001783A46062302C2009946182846314601F0D2F90028EBD12868B86078682968A5
:2020C0000844B042286015D010F8011B2246286002C228463146FFF747FF0028D8D12868FB
:2020E000A0606068296808442860801B18BF6FF06500F8BD20460C2101F088FB0020F8BDEC
:20210000F8B51D4B1C68240444BF0820F8BDDB681C0426D4194C6FF3DF231444A3EB94037B
:202120000C680133B4EB830F24D39C000C60F8B100F0030C00246D4606469C4218D052F8EC
:202140002470BCF1000F07D000970027042F05D0E95DF1550137F9E740F8247004360134B3
:20216000EBE70A6832B108B100220270012008600020F8BD0320F8BD1C50025800A0FDA7AB
:2021800010B501F00AFC184C607808B100F094FE00201749207015480068086001F001FCE1
:2021A00001F0FBFB1348007838B9042000F04CFF042000F001FE0228FAD14FF4806001F0F9
:2021C00071F94FF4806001F07FF94FF4806001F057F9094801210160084801688907FCD5B7
:2021E000BDE8104001F0DDBBC0420020C043002034EF00E0BD4500202820086028200840B7
:20220000F0B500F01F001A49152888BF60F01F000A7802F01F02152A88BF62F01F02904254
:2022200024D0144B144D1F689C4617F0800627F0100412D027F090076346CCF800702F68C5
:202240000BE04FF0FF37C8BF01270B783A4402F01F0703F0E0033B440B70AF689042F0D1DC
:2022600026B1A868A868CCF800402868F0BD00BF06620858280009582C200958F8B506684E
:202280000446701C04D06569204600F06BFC18B14FF0FF352846F8BD207D05F48057000736
:2022A00007D560680138FFF741FA606920F0080060610020C4E90100E060206800F022FACC
:2022C00005464FF0FF30002F2060E3D0054800688047054800EB061001F092FB03480068E8
:2022E0008047D7E7B445002020420020B84500202DE9F047DFF85CA00446DAF8000080479E
:202300004CB1204600F02EFC04461548006880472046BDE8F087DFF84080104DDFF840904D
:2023200000240027D8F800008742EEDA296801310CD0DAF800008047284600F013FC064600
:20234000D9F800008047D8F80000344318350137EAE700BFB4450020B0450020D043002028
:20236000B84500200F280AD005280FD0062812D0042816D11648016821F480310FE012482A
:2023800012490A5822F002020A5070471048016821F4003103E00E48016821F48021016099
:2023A0007047A0F110011F2904D801208840074908607047302805D33038012101FA00F0A3
:2023C00002494860704700BF90FEFFFF80E100E024ED00E0F0B540F6FF7C10F8013B002418
:2023E000082CFAD00646DF0716F8015B0DD1467806F00F070337122F0DD190F90220D7B20E
:20240000B2F1FF3F09DD03300DE001F8015B304601345B08E4E7023006E0C27807F07F07D8
:20242000043047EAC2171237320942EA0515654508BFF0BDED43002FEAD04A5D013F0A70FC
:202440000131F8E7F8B50D460168044621F00100401B102824D31449144A5318072A88BF7E
:20246000A3F108016619083846F8080F20F00100304400F108078F420ED23878C0070BD122
:20248000384601F01BF931683868083120F0010021F0010108443060304600F0C9FF2946AA
:2024A00041F001002060F8BD000000200040000070B50646164814460D4600688047306812
:2024C00001301DD0012C07D1307DC00604D5B06810B131692844451A304600F043FB7169D1
:2024E0003068224621F420617161294600F0BAFE0446084800688047601C18BF002404E039
:202500000448006880474FF0FF34204670BD00BFB4450020B8450020FEB5016804460026BA
:20252000885D18B13A2803D00136F9E7134D22E0124D8F191FD0082EA8BF08268EB10DF141
:202540000300324601300B7800F8013C23B101300131013AF7D104E0022A02D3511E01F098
:2025600029FA0DF103000021815500F065FE10B1791C054621602846FEBD00BFC0440020BF
:2025800070B59AB0064614480D460068804701AC3146204601F0A0F9304601F0B2F9064630
:2025A00020442946013001F097F9284601F0A9F90A4D30442246831CF720294600F078FDD8
:2025C0002846002100F0DAFD0548B5F900400068804720461AB070BDB4450020B8430020AA
:2025E000B845002010B5044680010FD4E0010DD5104880214FF6D8020174A0F85120017081
:202600000D480068C0F30460FFF7FAFD0B48016889070AD40A490A6822F020020A6061010A
:2026200003D4016841F0050102E0016821F00501016010BD15620858880B00501000095868
:2026400024500940F0B599B0064604200DF1070714460D4620228DF80700781C314601F0DC
:20266000C5F907F1210006F12001202201F0BEF917AE39464122304601F0A4F90848CDE9D0
:2026800013651594129004F12000169012A8FDF737FD002818BF4FF0FF3019B0F0BD00BF38
:2026A000543B000010B504460068013028D06169C80622D4080605D520460021022201F0D9
:2026C0009DF96169880604D4480644BF41F020016161626801206AB911F004020AD101F0EE
:2026E0000702204600214FF48073FFF797F8B0FA80F04009E168216110BD41F480606061BE
:20270000002010BD70B5002802D40546092802D94FF0FF341DE01048006880470F4E56F8B1
:20272000351089B106EBC500096940688847044601300BD056F83500002146F83510418934
:2027400021F00101418101E04FF0FF34044800688047204670BD00BFB445002038450020CE
:20276000B8450020F8B500F0E1FA01F0F7F801A800F088FFB0B9019811490068884211D154
:20278000072003214FF4FA7200F0B4FB0198039900890A58084482F30888406880470020A0
:2027A00004B080BD00F0C2FA06200A21322200F0A1FB062002214FF47A7200F09BFBF3E773
:2027C0003DB8F396B0B5154C4FF0A045D4F8702B2D68C2F30341C2F30353ED0712D124682E
:2027E000250401EB25710F2521EAE1710F2928BF2946240503EB247323EAE3730F2B38BFCD
:202800001D462B461B0543EA014193B202F080422128194488BF11430846B0BD0800005008
:20282000F8B50646114814460D4600688047104F200A00220023F871280E3946BC71BD7024
:202840003E707871280C3871280AF870300A7870F42000F02DFC3846002100F08FFC0548B4
:202860003C68006880472046F8BD00BFB4450020B8430020B8450020F8B5064611481446AE
:202880000F4600688047104D380A0023E870200AAF702C706870F05C01330028FBD1F02059
:2028A0002946324600F004FC2846002100F066FC0648B5F9005000688047002D48BF2C463F
:2028C0002046F8BDB4450020B8430020B8450020144983030968C1F38F22C1F383611DD44A
:2028E00040F30720002817D5520805D1490806BF012201214FF6FF720130F3E75200013299
:20290000B2F5803F07D349000131102926BF0F214FF6FF72012201380128EFDA42EA01403D
:20292000704700BF500B0050F8B50646104814460D4600688047B4F5807F0E4F28BF4FF41A
:20294000807400220023200A3946BC703E70F870300A7870F22000F0ABFB3846294600F0AC
:202960000DFC0548B7F90040006880472046F8BDB4450020B8430020B8450020F8B506467D
:20298000104814460D4600688047B4F5807F0E4F2A4628BF4FF48074200A39462346BC7032
:2029A0003E70F870300A7870F32000F081FB3846002100F0E3FB0548B7F900400068804787
:2029C0002046F8BDB4450020B8430020B84500202DE9F04143787F2B15D1406845180F489D
:2029E000AE18006887B200F097FB0D4C8046B5420CD220684169284688473D440006F6D03E
:202A00004FF0FF3503E04FF0FF3503E00025404600F046FE2846BDE8F08100BFF02303587A
:202A2000A80100102DE9F041104F16467A69120417D41D46DDF81880002200230024FEF7C9
:202A400085FD0246304629460423FEF77FFD8108396007490844C8F8000048F2100078618E
:202A600000E008242046BDE8F08100BF08500258006002582DE9F041104F16463A691204E8
:202A800017D41D46DDF81880002200230024FEF75DFD0246304629460423FEF757FD81089D
:202AA000396007490844C8F800004FF47040386100E008242046BDE8F08100BF0C50025898
:202AC000006002582DE9F041104F16467A69120417D41D46DDF81880002200230024FEF728
:202AE00035FD024630462946042300F042FF8108396007490844C8F800004FF40240786143
:202B000000E008242046BDE8F08100BF08500258006002582DE9F041104F16467A69120407
:202B200017D41D46DDF81880002200230024FEF70DFD0246304629460423FEF707FD81089C
:202B4000396007490844C8F8000048F20100786100E008242046BDE8F08100BF0850025873
:202B60000060025810B504460068411C04BF4FF0FF3010BD6269616893060AD549B1A368B8
:202B80008B4206D05A1A00F0AFFB00280CD4616862695006A16021615CBF002010BD22F0F5
:202BA00030010020616110BD606940F480614FF0FF30F7E77CB5134606460C46084601AAEA
:202BC0001946022300F048FC10B16FF002007CBD019D202D06D3206820222844A0F1200136
:202BE000304608E0C5F12001304600F0E3FE701B21682A46203000F0F9FE2068284420602A
:202C000000207CBD0F2806D00E280AD10E48016841F0006103E00C48016841F00071016049
:202C20007047A0F110011F2904D801208840074908607047302805D33038012101FA00F01A
:202C400002494860704700BF04ED00E080E200E010B50F4801680907FCD442680D494FF054
:202C6000A0440D4B2468114064070CD404681943A4070AD003331A434260026802F003020D
:202C8000032AFAD101E05A1C1143416010BD00BF00400340F8FFFFDF04000020F0B5131818
:202CA0000D469C1E93081E4636B154F8027C043C013E3FBA80C5F7E702F00302032A05D0C3
:202CC000022A0AD0012A0CD1007808E00278B0F8010040BA40EA024001E0008840BA41F861
:202CE0002300F0BDB0B50E4D012404202C7000F063F8012809D000202870042000F026FA26
:202D0000042000F059F80128FAD140F2024000F02FFC04480460044801688907FCD5B0BD98
:202D2000CC430020282008602820084080B5042000F00CFA042000F03FF80128FAD14FF453
:202D4000A06000F015FC084801210160074801688907FCD50648016841F040010160016893
:202D600041F08001016080BD2820086028200840D0200240B0B504460C480068804700233C
:202D8000E05C01330028FBD1094DF5202246294600F08EF92846002100F0F0F90548B5F9B3
:202DA0000040006880472046B0BD00BFB4450020B8430020B84500200F49C3070A68496D77
:202DC00001D1012106E001F0040102F00103C91818BF0121830744BF02F0020301EA530190
:202DE000400744BF02F0040001EA90010220002918BF0120704700BF40210840F8B51646AC
:202E00000C46054600F076FD0746204600F072FD3844263000F0D2FD38B108492A462346FC
:202E20000746009600F0D8F800E0034F3846BDE8F84000F019BC00BF6C3C0000283B0000D3
:202E400080B50B48007838B9042000F0FDF80420FFF7B2FF0228FAD140F2024000F022FB37
:202E6000044801210160044801688907FCD580BDCC4300202820086028200840B0B5044612
:202E80000A48006880470A4DF1200022002329462C8000F00DF92846002100F06FF90548BF
:202EA000B5F90040006880472046B0BDB4450020B8430020B845002070B500F06EFD0B4DF9
:202EC000687868B10A48012606602720FFF79AFE00246FF00200AE70EC602C81686001E000
:202EE0004FF0FF3400F05DFD204670BDC0420020404702582DE9F0470C4F14468A46064662
:202F00004FF000084FF001090025554528BFBDE8F087204606F8079000F0A4FC204606F870
:202F2000078000F09FFC0135EFE700BF00200240B0B50A490A4A0B4B0C684D68AC42FCD10C
:202F4000844208BFB0BD155C145DAC424FF0FF3538BF01252C441C5D0C60EDE700600C4042
:202F6000F03C0000F43C00007CB50C4C06460D46C00707D0A8B20021012200230090204678
:202F800000F0C8F9700707D5A8B200210C2202230090204600F0BEF97CBD00BF00A00C58C6
:202FA000F8B50C4F0E463968090410D415461146002200230024FEF7C9FA02463046294623
:202FC0000423FEF7C3FA4FF40440386000E008242046F8BD1C50025882B0F8B5CDE9010175
:202FE0000948CDE9062306A9084B0391009002A801AAFDF763FB019A0021117004B0BDE83E
:20300000804002B0704700BFA13700008739000070B50948094C84420BD0094D094EB54220
:2030200007D0F5E8020110F8012B54F822209047F5E700BF00BF70BD9C3D0000903D000013
:20304000A43D0000B43D0000C1070B491CBF00220A60820744BF00224A60420744BF002255
:203060008A60C20644BFC0F30142CA65800644BF00204865704700BF3021084070B50A4C96
:203080002046FFF7FBF8094D1834012628688642A8BF70BD2168002903D42046FFF7EEF861
:2030A000286818340136F2E7D0430020B045002070B50B4C207100202360082804D00D5CBF
:2030C000261801307571F8E704F10D002BB112F8011B013B00F8011BF8E700BF70BD00BFDE
:2030E00000400020BCB50020144600F031FCC0B201A900F089F9054648B90198002122466C
:20310000202300F085FA0546019800F000FA002D18BF01252846BCBDB0B50B4C204600F00C
:2031200099FB0546606840F030006060280608D02046002100F018FC204600F08BFB002833
:20314000FAD1E8B2B0BD00BF00400340C1070A491CBF01220A60820744BF01224A60420736
:2031600044BF01228A60C20644BF0122CA65800644BF01204865704730210840B0B50A4BC1
:2031800000241A68082C04D01D192D7905550134F8E741B103F10C002AB110F8013B013AEB
:2031A00001F8013BF8E7B0BD004000200446084800688047074D696809B1204688472868C1
:2031C00000B1804704480068804700F01BFC00BFB44500209C450020B8450020094880F33B
:2031E00008880948016841F47001016000BF00BF00F0FEFB08B1FFF70BFF00F0FDFA012056
:20320000FFF7D4FF0000042088ED00E0B0B5094C0325C4F88857D4F89057AD07FBD118B1F3
:20322000012525606060E1601AB1012020626262E362B0BD00400258F8B50446007858B1EC
:20324000074F2826782E07D0BD1921462846FDF7CBF810B12836F5E700252846F8BD00BFE9
:20326000C044002010B500280CD409280AD8074C54F8303033B104EBC000DB694068BDE827
:20328000104018474FF0FF3010BD00BF38450020B0B503231546044600F0DEF800B1B0BDD4
:2032A000286820B1013828602068017811B16FF06700B0BD013020600020B0BD1CB5019056
:2032C00007480068804701A8FFF726F9016A01988847044603480068804720461CBD00BF1D
:2032E000B4450020B845002010B500280CD409280AD8074C54F8303033B104EBC0009B6922
:203300004068BDE8104018474FF0FF3010BD00BF38450020B0B50F2B1C46049D00EB41004C
:2033200084BF120C103C0F2B05FA04F444EA02424FF4806488BF40F204440251B0BDFEE7B0
:2033400080B501460748042904D13C214FF0C0421D2303E03C214FF080521C2300F076F9D3
:2033600080BD00BF00A00C5807480168090444BF082070474068013803288EBF01200349E0
:2033800051F82000704700BF1C500258A83C000010B521F00303002400229A4202D28450FE
:2033A0000432FAE78B0706D0043A8A4203D210F822300132F9E710BD70B5084E044600F0C0
:2033C0000305012000F001FB30680542F9D0306846F8084C31680D42FCD170BD90470258F3
:2033E0000268084B9A421CBF00207047C268008912184FF0000003D289688A4238BF0120BC
:20340000704700BF3DB8F396B0B5084B0022032A04BF4FF0FF30B0BD53F822400132257896
:203420008542F4D100200C60B0BD00BF983C000010B50168074A21F0010113683BB11C68F7
:2034400024F001048C4202D203F10802F5E78360106010BDC8430020B0B504680D1B012D65
:20346000BCBF6FF05F00B0BD25789D421CBF6FF06100B0BD631C0360BDE8B040FEF774BD85
:2034800000F01F010122C0F3032002FA01F1044A52F82000026822EA01010160704700BF2E
:2034A000183C000000F01F010122C0F3032002FA01F1044A52F82000026822EA0101016030
:2034C000704700BF343C000000F01F010122C0F3032002FA01F1044A52F82000026822EAE1
:2034E00001010160704700BF503C000010B562B10C780378A34206D1013A00F1010001F1B5
:203500000101F5D11C46181B10BD002010BD704710B5044600F00CF8201F0B288EBF4FF0DC
:20352000FF30024951F8200010BD00BFF83A0000B0B5064C256845F400202060402000F07D
:2035400044FA25F400202060B0BD00BF3C20085800F01F010122C0F3032002FA01F1034A48
:2035600052F820000268114301607047183C000000F01F010122C0F3032002FA01F1034A73
:2035800052F820000268114301607047343C000000F01F010122C0F3032002FA01F1034A37
:2035A00052F820000268114301607047503C000020283CBF0020704704484FF4407100687D
:2035C00001EAD041C0F3845008447047980B0050064982B2C0F307400A60486001208860DA
:2035E00088688007FCD50020886070477C600C5804480549006808400449884208BF7047A5
:20360000FEE700BF180B005000F0FF0F0080B70B10B544787F2C1CBF4FF0FF3010BD406869
:20362000014410461A4600F0E1F9002010BD10B553B10130D2B20C78944200F8014C04D0E7
:2036400001300131013BF6D1002010BD08440F2B88BF0230008888BF120C10400F2B80B26F
:2036600088BF103BD8407047054901F130042146FDF7E4FF2046FEF73BFE00F0C3F900BF38
:20368000D0430020B0B5054D04466821284600F091F928462146FDF745F9B0BD504300205E
:2036A00010B5054C18B12046012100F05DF9606820F03000606010BD00400340054A13687B
:2036C00033B1114603F108028342F8D180680860704700BFC843002010B50C780378A34289
:2036E00006D1013A00F1010001F10101F5D11C46181B10BD1FB50124039400240294079CBD
:203700000194069C0094FEF7F5F804B010BD1FB514460122CDE90043CDE9022200222346CC
:20372000FEF7E8F804B010BDBCB5144605460191FFF72EFE01A928462246FEF789FBBCBDF7
:20374000BCB5144605460191FFF722FE01A928462246FEF7D5FCBCBDBFB5CDE900320A4640
:2037600000240125CDE90254FEF7C4F804B0B0BD1FB5CDE9003200240A460023CDE90244D2
:20378000FEF7B8F804B010BD10B50446FEF7CEFA2046FEF7D7F90446FEF7F2FC204610BDAC
:2037A000B0B50D4601461446286800F01FF92868204428602046B0BDB0B50C460546FEF7D2
:2037C000B5FA28462146BDE8B040FEF7F9B8FEE70348006800044FF0080058BF0920704750
:2037E0001C500258034801680268C1F3870062F309207047500B00500349002912BF01C9BA
:2038000000200021FEF7AEBF1C3D000021B10A4602490B6800211847704700BF143D000085
:2038200010B500239A4208BF10BDCC5CC4540133F8E7D0F80300002218B101F8012B0138C9
:20384000FAE770471143024A42F82010704700BF00100840016808074FF0040058BF01F035
:203860000300704740F6AA71484310B100BF0138FBE770474078A0F17F010020022938BF55
:20388000FF207047C1694846CDF800B00B46FFF741B9C2690868514610440130FFF7FEB980
:2038A0002068DBF80020C1693046FFF749BFC16902693046CDF800B00B4670474FF0FF31F8
:2038C000032838BF411C0846704700F066F8FDF7BDFDFFF783BCFEE711F8012B00F8012BF5
:2038E000002AF9D170470021425C0131002AFBD1481E70470021425C0131002AFBD1481ECC
:2039000070470021425C0131002AFBD1481E704700239A4208BF7047C1540133F9E70B46F5
:20392000D0F80320C11D184600F060B821682069CA693146FFF7B2B92168E068CA692946C8
:20394000FFF7ACB920680169C2693046FFF728BB4FF0FF30032938BF481C70470148012189
:203960000170704706200240426861F301024260704780B5FDF7EAFD083080BD0B46114630
:203980001A46FFF7C5BF0A68531C0B60107070478068283820F007007047EFF3108072B61A
:2039A0007047EFF3108062B67047C820019A02907047FEE70A460021FFF7AABF014608201F
:2039C000FDF71EBBC0E9001270470138FDD17047FEF73EBAFDF7B4BCFDF7B2BCFFF730BA57
:2039E000FFF780B9FEF7CCBBFEF7A0B9FFF718BF01207047FFF77ABDFFF7CABFFEF758BD73
:0A3A0000FFF75CBC00BFFEE7FEE725
:203A0C003059301306072A8648CE3D020106082A8648CE3D030107034200042ACB403CE8FD
:203A2C00FEED5BA44995A1A91DAEE8DBBE1937CD14FB2F245737E5953988D994B9D65AEB93
:203A4C00D7CDD5308AD6FE48B24A6A810EE5F07D8B6834CC3A6AFC538EFAC1433A2F476939
:203A6C00742F626C655F6167616D612F626C652D6167616D612F736F757263652F74686954
:203A8C0072645F70617274792F6D6375626F6F742F626F6F742F626F6F747574696C2F7367
:203AAC0072632F6C6F616465722E630096C298D84539A1F4A033EB2D817D0377F240A46377
:203ACC00E5E6BCF847422CE1F2D1176BF551BF376840B6CBCE5E316B5733CE2B169E0F7C91
:203AEC004AEBE78E9B7F1AFEE242E34FF9FFFFFFFFFFFFFFFFFFFFFFFFFFFFFFFFFFFFFFA2
:203B0C00FFFFFFFFFFFFFFFFF9FFFFFFF9FFFFFFFAFFFFFFFAFFFFFFFBFFFFFF4173736543
:203B2C007274696F6E206661696C65642C20282573292C2066696C652025732C206C696E60
:203B4C00652025640A00000001000000D83B0000783B0000983B0000B83B0000B83A0000C2
:203B6C00D83A00002000000001000000FCFFFFFFFFFFFFFFFFFFFFFF000000000000000015
:203B8C000000000001000000FFFFFFFF4B60D2273E3CCE3BF6B053CCB0061D65BC869876A8
:203BAC0055BDEBB3E7933AAAD835C65A512563FCC2CAB9F3849E17A7ADFAE6BCFFFFFFFF8C
:203BCC00FFFFFFFF00000000FFFFFFFFFFFFFFFFFFFFFFFFFFFFFFFF0000000000000000ED
:203BEC000000000001000000FFFFFFFF0400000004000000040000000800000004000000A4
:203C0C000400000004000000080000005C200840802008407420084068200840442008586C
:203C2C00502008408C20084054200840782008406C200840602008403C2008584820084028
:203C4C0084200840582008407C2008407020084064200840402008584C20084088200840C0
:203C6C006D616C6C6F63206661696C656420696E20617373657274003031323334353637F6
:203C8C00383961626364656600000000B83C0000C43C0000D03C000000000000070000004B
:203CAC00060000000100000005000000007F00000000000000600000017F0000000003008A
:203CCC0000C00C00027F00000060000000A002002A8648CE3D030107000000000C3A000035
:203CEC00183D00000102000302000103201C1C401C1C1C302A8648CE3D0201007263203D03
:103D0C003D20300001000000113900005B00000074
:083D1C0000000000000000009F
:203D2400005500000F0112014001018F012202C01502030F01240440FF000004BF02017F7B
:203D44007EFE0EF70200792800007D9F2E0000292900700030217E00F0752D000081250325
:203D64009F0C1E01DF22C0440020007515B100F14014BF02079F231AC11B0818B11BF5036C
:203D84001E001BF31F00330001FFF000D52300001F3900003338000002000000CD03000024
:103DA400243D0000D04300209C3D00000040002042
:020000045000AA
:20000000FDFF7C00FFFFBBF3100080FFFFFFFFFFFFFFFFFF00008001FFFFFFFFFFFFFFFFBC
:20002000FFFFFFFFFFFFFFFFFFFFFF00FFFFFFFFFFFFFFFF0000C5FF00C5C5FF000000FF87
:2000400000000000FFFFFFFFFFFFFFFFFFFFFFFFFFFFFFFF0004FEFF0000FCFFFEFFFFFFB9
:1C006000FFFFFFFFFFFFFFFFFFFFFFFFFFFFFFFFFFFFFFFFFFFFFFFFFFFFFFFFA0
:00000001FF
