:02000004000AF0
:10E0000000400220C1F10A00D3F10A00D5F10A0054
:10E01000D7F10A00D7F10A00D7F10A00000000008A
:10E02000000000000000000000000000D7F10A001E
:10E03000D7F10A0000000000D7F10A00D7F10A006A
:10E04000D7F10A00D7F10A00D7F10A00D7F10A0088
:10E05000D7F10A00D7F10A00D7F10A00D7F10A0078
:10E06000D7F10A00D7F10A00D7F10A00D7F10A0068
:10E07000D7F10A00D7F10A00D7F10A00D7F10A0058
:10E08000D7F10A00D7F10A00D7F10A00D7F10A0048
:10E09000D7F10A00D7F10A00D7F10A00D7F10A0038
:10E0A000D7F10A00D7F10A00D7F10A00D7F10A0028
:10E0B000D7F10A00D7F10A00D7F10A00D7F10A0018
:10E0C000D7F10A00D7F10A00D7F10A00D7F10A0008
:10E0D000D7F10A00D7F10A0080B500F0EDF902E0AF
:10E0E00080B500F0E5F900B10120C0B202BDB0FB7F
:10E0F000F1F0484370472DE9F843DFF87853DFF833
:10E100007863DFF87873DFF87883D8F800205169F6
:10E11000DFF870038847BC68DFF86C033860FFF7EE
:10E12000DFFFB078A8BB002C03D54FF0FF31716042
:10E1300029E0AC683CB3D5F80490402C18D34021BA
:10E140002046FFF7D4FFD8F800E0DEF80CC0044604
:10E150002346082206F150014846E047A86869684E
:10E16000001BA86021446960F0682418F46010E086
:10E170002246494606F1100000F0A2F93089241821
:10E1800034810021A96000227270287808B1F26001
:10E190003281FFF7A1FF70780028B6D17068BDE822
:10E1A000F28338B5FFF79CFFDFF8CC42207820B12E
:10E1B000FFF792FF4FF0FF3032BD012020700021A9
:10E1C0006170A170FFF788FF00202081E060FFF7F9
:10E1D00087FFDFF8B842DFF8B85201202070042032
:10E1E00000F098F901280AD00020207004202A6845
:10E1F00051698847042000F08DF90128FAD12A6876
:10E20000D1694FF4806088472A68516A4FF4806072
:10E2100088472A68D16A4FF48060884700F03DF84B
:10E2200000239C489C4A016811600360FFF754FF7B
:10E23000002032BD10B5FFF753FF8F4C607808B156
:10E2400000F0F8F80020944B924A20701968904C26
:10E250001160FFF741FFFFF743FF8C49087840B991
:10E260002268916904208847042000F053F90228AD
:10E27000FAD12268116A4FF4806088472268916A57
:10E280004FF4806088472268116B4FF480608847A4
:10E2900000F003F8BDE810401EE7804A80490120E5
:10E2A000106008688007FCD570472DE9F84F7D4D58
:10E2B000714E2A68DFF8BC910C46824651692720CE
:10E2C000884700207060B07089F8000030892118FC
:10E2D0008346402906EB0B0334D370B1CBF1400BDE
:10E2E0005A4600F049F80020308106F11008402716
:10E2F0000AEB0B00A4EB0B0405E0A709BF01D04615
:10E300000AEB0700E41BC9F80400C9F80840FFF74E
:10E31000E7FEF06800283B4607D06D6DEC680822E8
:10E3200006F150014046A04706E06D6DAC6808223A
:10E3300006F150014046A047F0683F18F760012100
:10E34000717014E0224600F017F8308924183481E7
:10E350000021C9F80810FFF7C3FE012070700121E9
:10E3600051480160426842F001024260C160FFF71B
:10E37000B3FEBDE8F14FBEE6514603F1100000F0D8
:10E380009FB82DE9FC41474F3B4E3A6851698046A2
:10E390002720884700207060B07001203549087040
:10E3A000FFF79EFE01207070F36843B97D6D3289DE
:10E3B0006C680823414606F11000A04735E030891B
:10E3C00060B1082101910090C3187D6D2C6806F1A1
:10E3D0005002414606F11000A04726E0DC00402133
:10E3E00006F1100000F0B6F8002580203074CDE969
:10E3F0000045002042420DEB02033118DC7901F8A0
:10E40000484F6A44401CD3780B710428F2D3202271
:10E4100006F15001404600F053F87D6DEC68402352
:10E420000822414606F11000A047FFF755FEBDE85F
:10E43000F34160E610B5FFF753FE0F4C607820B94A
:10E44000FFF74AFE4FF0FF3010BD164A1749012072
:10E45000086027201368196A884700202081E0603F
:10E460006FF002010120A0706160FFF735FE00200F
:10E4700010BD00001C2500206C24002088470240AD
:10E48000040200100100008003000080E00F002063
:10E49000B801001034EF00E0282500202820086093
:10E4A00028200840B0010010804702404047024049
:10E4B000EFF3108072B67047EFF3108062B67047CA
:10E4C0004AB1000011F8013B521E00F8013B1CBF8D
:10E4D00011F8013BF8E7704730B41D4B1A685B6DCB
:10E4E0000021C50704D5D40701D45B0700D501215D
:10E4F000830703D5540804F001042143400703D5E2
:10E50000920802F001021143002914BF01200220E9
:10E5100030BC704730B40E4B1A685B6D0121C507E3
:10E5200004D5D40702D45B0758BF0021830703D565
:10E53000540804F001042140400703D5920802F07A
:10E5400001021140002914BF0120022030BC704795
:10E5500040210840002200F015B80EE00268436830
:10E56000024408305FEAC37C44BF4B445B1E52F850
:10E5700004CB43F804CB091FF9D150F8041B002940
:10E58000ECD1704700B500BF130096469446103991
:10E5900028BFA0E80C50FAD85FEA417C28BF0CC025
:10E5A00048BF40F8042BC90728BF20F8022B48BFFA
:10E5B00000F8012B00BD00002DE9FE430B9FBE6853
:10E5C0000446B86890469946042100F03BF9012CB6
:10E5D0004FF0FF3526D10A9CFFF7E3FD4146484640
:10E5E000FFF763FE3046FFF7CCFEFFF723FE204621
:10E5F00000F064F9B0B9B9683A688D4801922031E9
:10E60000029104F12802009200F12C0104F10803A8
:10E6100032460C3000F059F96FF05A0140B288428E
:10E6200008BF00252846BDE8FE832DE9F841E3B088
:10E630000C468046082303AA002100F04BFA03A8E9
:10E6400000F0A8FA012869D12C2303AA0021404632
:10E6500000F040FA9DF81E0084425FD1089800F057
:10E66000B4FA00285AD09DF81800032804BF9DF87A
:10E670001900012852D19DF81D10FC294ED09DF89B
:10E680001E006C4E072814BF0028FF291AD1002154
:10E69000FE2000918DF80400099B3168002240465D
:10E6A00000F0BAFA0599884206D0FC208DF80400E3
:10E6B000012301AA112182E0012301AA1121404670
:10E6C00000F021FA09995C484FEA4837CC19844296
:10E6D00024D29DF81E00072818BF00281ED1FF2154
:10E6E00000228DF80010019207F12C0501226946E5
:10E6F000284600F0D8F99DF8000003280FD02D1D02
:10E70000281D844274D3042201A9284600F0CBF9C5
:10E710002846019D2D182D1FAC42E7D268E000204D
:10E720000290042202A905F1150000F0BCF902983C
:10E7300000285DD0302357AA0021404600F0CAF9D6
:10E7400057AD95F82F00FF2848D14FF4A051301D48
:10E75000FFF700FF41F2044031188122384600F0F3
:10E76000A2F941F23D41701800F0A8F800BB002367
:10E770004FF480523149384600F01DF9040017D09B
:10E78000C02127A8FFF7E6FE27A941F265430291C1
:10E7900033440093321D41F24541254801927318DC
:10E7A00000F12C0122460C3000F08FF8A5280AD089
:10E7B000FC2062AA85F82F000123D21C2F2140469D
:10E7C00000F0A1F914E0FE2085F82F0062AA0123D1
:10E7D000D21C2F21404600F096F901E0FE2807D117
:10E7E0000A98B84221BF0999CF19874200F0CCF9A5
:10E7F00064B0BDE8F08110B5002080F314881049A2
:10E800000C4A0868800200F4705010600721002054
:10E81000FFF70BFF01240021E0B2FFF706FF641CA5
:10E82000E0B25828F7DB00F0C5F9002010BD000069
:10E8300054FF0A00E40F002001000B002C250020EB
:10E8400030240340002200F093BA0000DFF800F00B
:10E8500005C80010002253420344DB7F8B54521C36
:10E860001F2AF8DD704710B5002302E0CC5CC454C9
:10E870005B1C9342FAD310BD30B5002300E05B1C53
:10E88000934205DAC45CCD5CAC42F8D0012030BDC7
:10E89000002030BD2021017040F24C424280032311
:10E8A0006D496E4A8160C26003716D496D4A0161B4
:10E8B00042616D496D4A8161C261704780B508222D
:10E8C0006B49FFF7D9FFC0B202BD2DE9F0478AB00E
:10E8D0008046129C139E149F0D4691469A4601A8AD
:10E8E000FFF7D8FF39464846FFF7B4FF07F120018C
:10E8F0004046FFF7AFFF07F140012846FFF7AAFFA8
:10E9000007F160015046FFF7A5FF07F18008414677
:10E910002046FFF79FFF0398564908600498564920
:10E920000860059855490860069855490860079899
:10E93000544908600898544908609DF808005349F4
:10E9400006F24C450870082251492A606A62AA649E
:10E95000EA66C5F890200E60202207F12001281DEC
:10E96000FFF781FF202207F1400105F12800FFF7A2
:10E970007AFF2022394605F14C00FFF774FF202270
:10E9800007F1600105F17000FFF76DFF202241469D
:10E9900005F19400FFF767FF05F19000009005F185
:10E9A0006C0305F1480205F124012846FFF74EFFEC
:10E9B0000AB0BDE8F0872DE9F04281460E461746C1
:10E9C0004946304600F012F9B069002841D0B069DC
:10E9D000874238BFB944FFF7E4FB042106F10C007D
:10E9E000FFF763FC2F2106F11200FFF75EFCA7F191
:10E9F000810106F18100FFF758FCB069B4698742D4
:10EA000038BFE41BBC42254610D93D460EE0AAB2F1
:10EA10004946304600F0EAF829463046FFF745FC03
:10EA2000641B3D46A54288BF2546B944002CEED163
:10EA3000184C2046FFF7A5FCFFF7FCFB0020002147
:10EA4000CAB2491CA25C1043CBB2202BF8DB00B148
:10EA50002046BDE8F0820000D4570210F85702109B
:10EA60001C580210405802106458021088580210B6
:10EA700058FF0A00380100203C010020400100201E
:10EA8000440100202C01002030010020480100201A
:10EA900034010020FC24002080B5FFF70DFD00B1FB
:10EAA0000120C0B202BD70B504460D461646FFF700
:10EAB000FFFC411E8941C90F03E014F8010B05F862
:10EAC000010B3046461E0028F7D109B1FFF7E4FFDD
:10EAD000002070BD70B515461E4601EB4034FFF7AF
:10EAE000E7FC401E8041C00F03E014F8011B05F84D
:10EAF000011B31464E1E89B20029F6D108B1FFF73D
:10EB0000CBFF002070BD2DE9F04104460E461746AC
:10EB1000984600F012F80546424606EB4431384666
:10EB200000F056F900F006F8002C0CBF0020FF2082
:10EB3000BDE8F0810446284616E070B5104C114D32
:10EB400022689168284688470646C0B250B12368BB
:10EB50005A680021284690472368996828468847C4
:10EB60000028F9D1F0B270BD002800D1704710B56F
:10EB7000034B04481C686268BDE81040012110473F
:10EB8000D801001000400340016881F30888416803
:10EB90008F46000010B5072112A2435C545CA342CB
:10EBA00004D1491E49B20029F7D501E0002010BD6B
:10EBB000012010BD80B5FFF77BFCBDE808404FF099
:10EBC000FF320021002000F011B9002102E0421EB6
:10EBD0001040491C0028FAD101F00101481E804173
:10EBE000C00F7047434332367832523110B518B9EE
:10EBF00010BD93B2CC5CC45413465A1E9BB2002B7A
:10EC0000F7D110BD08214208C00746BF5448504004
:10EC10001046491EF7D170472DE9F84F86B01C0009
:10EC2000049018BF14F1010F0FD09DF84030012B54
:10EC300002D14C4DAC4208D2DFF82CB10291ADF8B4
:10EC4000022023B9494A944208D3002085E04FF4BA
:10EC500080735A460021FFF73DFF09E00299BDF895
:10EC600002304843C1184FF480725846FFF7BEFF88
:10EC70000298049A641EB4FBF0F1029800FB114460
:10EC800004A852180778641CD2B2A4B2200A0392D6
:10EC900001944FF0FF3905904FF4807801E09DF822
:10ECA00000700398B84254DB874207D105AA019847
:10ECB0001578010605D06D1CEDB202E0029D2D0411
:10ECC0002D0E791C00248DF8001009E0AC4243465B
:10ECD0005A4612BF384600219DF80000FFF7FAFEA1
:10ECE000AC42DCDA601CA84204BF03998F4209D110
:10ECF0000198010606D001460598A1EB00201FFAF5
:10ED000080FA00E0C246049887420ABF002C002621
:10ED10000C260AE01BF8000080EA090000F0FF0062
:10ED2000FFF770FF80EA1929761CB0B25045F1DB7D
:10ED3000641C9DF8400021020028C7D1029BBDF849
:10ED4000020003FB07034246C9185846FFF74EFF6F
:10ED5000C6E74FF0FF3181EA090007B0BDE8F08F48
:10ED60002083B8ED010010002C35002001000B00BD
:10ED7000401810F0030308D0C91A1FD3DB0748BF9F
:10ED800000F8012D28BF20F8022D130030B41446DE
:10ED90001546103928BF20E93C00FAD8490728BF9A
:10EDA00020E90C0048BF40F8042D890028BF20F856
:10EDB000022D48BF00F8012D30BC7047C91818BF9C
:10EDC00000F8012DCB0728BF00F8012D7047000087
:10EDD00038B5044C2568AB699847034A0021116097
:10EDE00032BD0000A8010010840460422DE9F04704
:10EDF000344F8046386889469246810744BF324A7C
:10EE0000FA6032492E4C2C4D314E002008602720EC
:10EE100023682A6891698847316B2E480140316325
:10EE20004FF48060B16F21F48071B1672A68116B73
:10EE300088472A68116B4FF4816088472A68116BF4
:10EE40004FF4C0608847244A1A4901201060C1F875
:10EE50000090012333603868810707D41AF1010F4D
:10EE600006BF4FF04040F860C7F80CA02068F0697A
:10EE70008007FCD50720FFF72FFB0228FAD1B8F155
:10EE8000000F12D12A6A154C916820468847042841
:10EE9000F8D0012804D12B6A5A68032120469047F4
:10EEA000064801688908890001602A68906BBDE8FE
:10EEB000F04700478C210840B80100102422084088
:10EEC0002C20094010000940FD0000400C40094082
:10EED0000C200840FFFFFEFE282008600040034091
:10EEE00038B54A48046814F1010F08BF002400F047
:10EEF000BFF84749474D00200860286C816C88475F
:10EF0000454A106820B145490868204600F034F8A9
:10EF100043490020086040F239114248026861F319
:10EF20001B42026040480168C1F30131012906D14A
:10EF300002683E49114041F4003303600160012042
:10EF40003B4CE06114202A68116A884739480168FF
:10EF500041F4E02101600120206037490868C0F3D6
:10EF60008150022803D12A6C3448516C8847344AB6
:10EF700010680028FBD131BD70B5044631484168A6
:10EF80008A0705D40168304A090C41F0F00111707C
:10EF90004FF001212D4B2E4A2E4E196015888568A1
:10EFA000326811682846884705F04070B0F1807FCC
:10EFB00004D12948017841F00201017029463368E3
:10EFC0005A68204690472548254A0068010B01F001
:10EFD0003F01C305117003D51F4A4021D17402E0DF
:10EFE000204A40211170800900F038001E4940F489
:10EFF00060500880284633689A689047022000F0E5
:10F0000043F81A490120086070BD00001C1300502D
:10F0100084046042B0010010800128438005204331
:10F020008C2108404820034028000940EFFFFCFCE9
:10F030000000244300200940B44F0050BD37860033
:10F040000C006842AC4F00505662084004A40C40CB
:10F0500000A00C40F0010010096208400C140050A0
:10F060000EB00C402C6208406AB00C409404604220
:10F0700004480268C2F30F304BF67731884200D162
:10F080007047FEE7181300502DE930000BA10A4B22
:10F090000A5C09E00D5D00BF09A42C4495422CBF19
:10F0A00014F8014C64781C601C685D68AC42FCD1AB
:10F0B0008442EFD130BC704700600C400102000375
:10F0C0000200010330B4002512E050F8042BD307EE
:10F0D00044BF4A44521E091F042942F8045BFAD275
:10F0E00013468C0744BF15809B1CC90748BF1D7081
:10F0F00050F8041B0029E8D130BC704710B507490F
:10F1000079441831064C7C44163404E00A68081D22
:10F11000114488470146A142F8D110BD2C000000DF
:10F120004C0000004EF68851CEF20001086840F411
:10F1300070000860BFF34F8FBFF36F8F4FF0017007
:10F14000E1EE100A704700007DFFFFFF4815000048
:10F15000E40F00200000000003F4FFFF04000000A3
:10F1600078000000E00F0020000000000120C046F1
:10F17000002801D0FFF7C2FFAFF300800020AFF3FB
:10F180000080FFF738FB00F000F800F005B8000041
:10F19000DFF800F0BD6D021007463846FFF7F8FFB4
:10F1A000FBE700000548014603B4684680F3098880
:10F1B000AFF30080FFF7B6FFFFF7D8FFA5EDF5FE30
:10F1C00080B5FFF78DFEFFF7EDFFBDE8014000F0D1
:0CF1D00001B8FEE7FEE7FEE701000000CA
:10FF5400014C0000B0177D511DEC108BD851BCA290
:10FF6400ED3D9E19B733A52F33DA05404D13765076
:10FF74003D88DF5CD0E2F2583053C42AB92ABEEF80
:10FF8400665FECCF5616CC36EF2DC95E462B7C3B14
:10FF940009C19956D9AF958163237BE7B9E50A0076
:10FFA80000008001100080FFFDFF5800FFFFBBF339
:10FFB800FFFFFFFFFFFFFFFFFFFFFFFFFFFFFFFF49
:10FFC800FFFFFFFFFFFFFFFFFFFFFFFFFFFFFFFF39
:10FFD800FFFFFF00FFFFFFFF00FFFFFF00C5C5FF9A
:10FFE800000000FF00E00A00FFFFFFFFFFFFFFFF28
:08FFF800FFFFFFFFFFFFFFFF09
:04000005000AF1A557
:00000001FF
