:020000040005F5
:1060000000800020097605001B7605001D7605003E
:106010001F7605001F7605001F76050000000000B2
:106020000000000000000000000000001F760500D6
:106030001F760500000000001F7605001F76050092
:106040001F7605001F7605001F7605000000000082
:106050001F7605001F7605001F7605001F760500D8
:10606000000000001F7605001F7605001F76050062
:106070001F7605001F7605001F7605001F760500B8
:106080001F7605001F7605001F7605001F760500A8
:106090001F7605001F7605001F7605001F76050098
:1060A0001F7605001F7605001F7605001F76050088
:1060B0001F7605001F7605001F7605001F76050078
:1060C0001F7605001F7605001F7605000000000002
:1060D000000000001F7605002DE9F8438046DFF838
:1060E00070050C469146006804EB0901491E19F041
:1060F000030FC0B0B1FBF0F130D1B9FBF0F7B942FA
:106100002CD32D292AD2B4FBF0F1FFB2CDB200FB83
:10611000114008B16D1CEDB23E4604E000F012FBE8
:10612000FF281BD0761CF0B2E9198842F6DB4FF449
:10613000807702E0B844B944E41B94B1BC4238BF54
:10614000A7B26A463946404600F0EDFB30B13A4608
:106150006946484600F0C9FA0028EBD04FF0FF30FE
:1061600000E0002041B0BDE8F083FEB504460D46D6
:106170004FF0FF362C276A460C21381900F0D3FB6C
:1061800050B19DF80000012805D0019820B1C71931
:10619000AF42F0D300E0029E3046FEBD2DE9F84F3D
:1061A0000029C0B04FF0FF3559D0814610008DF85E
:1061B000012001EB090709F12C044FF0FF0825D05D
:1061C000DFF8942491424AD200268DF8008001968F
:1061D0006A460121204600F0A6FB9DF80000032836
:1061E0000CD0241D201D874238D301AA042120464B
:1061F00000F099FB00F0C2F8EAD22FE0029602AA62
:10620000042104F1150000F08EFB24E0DFF84C04BB
:10621000814224D200268DF8008001960122694631
:10622000204600F032FA9DF8000003280CD0241D0F
:10623000201D874212D3042201A9204600F025FA2E
:1062400000F09CF8EAD209E00296042202A904F1C7
:10625000150000F01AFA029800B101260EB928467E
:106260003FE009F12F0003900DF1100A9DF80100A5
:10627000DFF8EC73DFF8ECB3DFF8D843DFF8E8635E
:1062800000283DD004AA3021484600F04CFB9AF883
:106290002F00FC2824D04FF4A051384600F0AAFB70
:1062A0005A468121484600F03EFB41F239403844CD
:1062B00000F0C4FB050011D1012300F048F80500EF
:1062C0001CBF287800280FD0C02110A800F092FB36
:1062D00000F043F80546A52808BF0025280005D191
:1062E00068B241B0BDE8F08FFF25F7E7FC208AF8DF
:1062F0002F000DF13F020398012100F035FBEFE77D
:10630000302204A9484600F0C0F99AF82F00FC2872
:10631000E6D0002300F01BF805001CBF28780028F9
:106320000AD081224946584600F05EFC00F015F87C
:10633000A52808BF0025D3D0FC208AF82F00012211
:1063400003980DF13F0100F0D0F9FF25C8E74FF4A5
:1063500080523146484600F0DBBB41F2614110A853
:1063600039440290009141F24142BB1801972A46FC
:1063700004F12C0104F10C0000F067BB2046019CE5
:106380002418241FA74270472DE9F0479AB0002037
:1063900080F31488B549AE4C0868DFF8BC828002EF
:1063A00000F470502060002500F063FA002840F0EF
:1063B0008F80A4E000F05CF907F1110000F0D4FA3E
:1063C0007FE06DB2002D00F198802E0302AA3421E7
:1063D000304600F0A8FA9DF81800FE2801BF9DF88D
:1063E000140003289DF81500012870D19DF81900AC
:1063F000FC286CD00D9F0899C819404567D201222E
:106400003846FFF7CBFE9DF81810FE2908BF00287C
:106410005DD1FC208DF804000FAA2C21384600F035
:1064200082FA15993846FFF7A0FE814619F1010F4F
:106430004DD01698484522BF159901EB09028242BA
:1064400045D34A463846FFF747FE824601AA012156
:1064500006F1100000F088FABAF1000F37D10020E1
:1064600000904FEA5936159B21680022F0B200F0E7
:10647000D1FB119988429DD1FE208DF8040001AA1C
:1064800068030121113000F06FFA012301AA1121E4
:10649000F0B200F03DF9089900224846FFF77EFE71
:1064A00001469DF84E00012818BF002803D003289C
:1064B00018BF072805D121B900F020FA169800F07E
:1064C00055FC00F0D5F807F1100000F04DFA6D1CF6
:1064D00028060FAA0821000B00F025FA0FA800F0EB
:1064E00067FC01283FF46DAF0FA800F045FC0128C0
:1064F00003D06D1CE8B22C28EADB00F0FFF9002580
:10650000EFB27E03082202A9304600F0BEF802A8CE
:1065100000F032FC01284ED12C2202A9304600F0B6
:10652000B4F89DF81A0001281CBF0328072842D19F
:106530000899002918BF11F1010F3CD0474881424A
:1065400039D20998B04224BF8A19824233D39DF8C8
:106550001400032804BF9DF8150001282BD19DF8D5
:106560001900FC2827D0FF281BD1FE208DF804003D
:1065700000220B460092E8B2216800F04BFB049920
:1065800082468A451CBFFC208DF80400012201A927
:1065900006F1110000F0A9F8049882450BD1089982
:1065A00001E0FE2807D100223046FFF7F7FD10B9C1
:1065B000099800F0DBFB6D1C2B2FA1DB00F059F9D3
:1065C00000283FD001AA3421002000F0ACF99DF84A
:1065D0001500FE2836D10C9D07994819404531D247
:1065E0002846FFF7C2FD064616F1010F2AD008988B
:1065F000B04222BF07998A19824223D332462846E5
:10660000FFF76AFDE0B90090750B079B2168002237
:10661000E8B200F0FFFA0399884211D1FE208DF80C
:10662000000001236A461121E8B200F071F80799D1
:1066300000223046FFF7B2FD10B9089800F096FB33
:1066400000F05CF900F0A8FB00201AB0BDE8F0876C
:106650008C240020547F05000100100001800500FB
:10666000E00F0020E023002090240020302403408D
:10667000FC208DF8040001AA0121704780B500F0CC
:10668000B3FB00B10120C0B202BD70B504460D4697
:10669000164600F0A5FB411E8941C90F03E014F81E
:1066A000010B05F8010B3046461E0028F7D109B151
:1066B000FFF7E4FF002070BD70B515461E4601EBE4
:1066C000403400F08DFB401E8041C00F03E014F801
:1066D000011B05F8011B31464E1E89B20029F6D177
:1066E00008B1FFF7CBFF002070BDF8B504460E4699
:1066F000174600F037F805463A462146304600F086
:1067000080FB00F01CF80CB90020F2BDFF20F2BDA8
:106710002DE9F04104460E461746984600F022F84F
:106720000546424606EB4431384600F06AFB00F06D
:1067300006F8002C0CBF0020FF20BDE8F0810446C5
:10674000284626E038B5044600F00CF805466003FC
:1067500000F04EFBFFF7F3FFE4B20CB9002032BDAE
:10676000FF2032BD70B5114C114D2268916828464A
:1067700088470646C0B250B123685A6800212846AF
:10678000904723689968284688470028F9D1F0B2D5
:1067900070BD002800D1704710B5044B04481C6838
:1067A0006268BDE81040012110470000D8010010C8
:1067B000004003404C490020087070474A490120BE
:1067C0000870704738B5FFF7F5FF042186A000F088
:1067D00025FB10B1FFF7F2FF07E0444D02212846E8
:1067E00000F02FFB00F043F80CB1002032BD40490F
:1067F00000E00831086840B12A780879824202BF77
:106800006A7848798242F4D10120696032BD000083
:1068100038B5FFF7CFFF00F034FBFFF7CFFF00BF25
:1068200072A5FFF7C7FF0121284600F0F7FA012102
:10683000684600F006FB00F01AF824B99DF8000045
:10684000C107EED402E06FF0010032BD002032BD7E
:1068500010B5FFF7AFFF012165A000F0DFFA00F0EF
:1068600006F814B16FF0020010BD002010BD044600
:10687000A4E71CB50A211F4800F00EFB1E4A13684E
:10688000D96B14208847FFF799FFAB208DF80200E1
:10689000FFF790FF01210DF1020000F0BFFA441E46
:1068A000A441FFF78BFFE40F200013D04FF4C87012
:1068B000ADF80000BDF8001004E0BDF80020501E47
:1068C000ADF80000BDF800000028F6D1FFF7A0FFEA
:1068D00000B10024200003D0FFF774FF044601E05C
:1068E00000F00CF8204616BD14200240842400203D
:1068F0005475050000093D00B40100101CB5B92015
:106900008DF800000A24FFF755FF0121684600F0CA
:1069100085FAFFF753FFFFF755FF08B1641EFAD160
:1069200000F00BFB13BD7CB504460D461646FFF781
:106930006FFF68B90320220C210A8DF800008DF842
:10694000012000F04BF800F045F818B1FFF736FFD2
:10695000002076BD2946304600F073FAFFF787FF26
:10696000601E8041C00F76BDF8B505460C46164640
:1069700021E005F0FF00C0F580702746844288BF03
:10698000074602208DF80000290C280A8DF8011016
:106990008DF802008DF80350FFF70CFF00F01AF895
:1069A0007D19E41B88B93946304600F037FA60B9E2
:1069B000FFF704FFF6195CB1FFF72AFF18B9FFF7DC
:1069C00047FF0028D5D00020F2BDFFF7F7FEFAE719
:1069D0000120F2BD0421684600F020BA8DF80210B3
:1069E0008DF80340E6E6000090FFFF000500000080
:1069F00006000000002200F0D1BA0000002253423D
:106A00000344DB7F8B54521C1F2AF8DD704710B5FE
:106A1000002302E0CC5CC4545B1C9342FAD310BD4B
:106A200030B5002300E05B1C934205DAC45CCD5C0A
:106A3000AC42F8D0012030BD002030BD80B5082226
:106A40006449FFF7EDFFC0B202BD2DE9F843A4B0E1
:106A50000D4604462C9E2D992E9F9046994602A8DD
:106A600000F0B6FA39464046FFF7C8FF07F12001AB
:106A70002046FFF7C3FF07F140012846FFF7BEFF9E
:106A800007F160014846FFF7B9FF07F1800421468E
:106A90003046FFF7B3FF0C9800F24C4508212960FF
:106AA0006962A964E966C5F8901020224A49086025
:106AB00007F12001281DFFF7AAFF202207F140015E
:106AC00005F12800FFF7A3FF2022394605F14C000D
:106AD000FFF79DFF202207F1600105F17000FFF72D
:106AE00096FF2022214605F19400FFF790FF05F163
:106AF000900005F16C010190009105F1480305F14A
:106B00002402294602A800F082FA25B0BDE8F083ED
:106B10002DE9F8455FEA030A9AB080460F4615460C
:106B200004D14146384600F05FF803E03A46294672
:106B3000FFF7F9FEB869002848D0854238BFA8445D
:106B4000684600F071FA042207F10C0100F048F8E1
:106B50002F2207F1120100F043F8A5F1810207F19D
:106B6000810100F03DF8BC69A54238BF641BAC420E
:106B7000264619D92E4617E03A4631464046FFF7D9
:106B8000D2FE07E05FEA0A00F6D1B2B241463846CB
:106B900000F02AF83246394600F022F8A41B2E46AF
:106BA000A64288BF2646A844002CEBD10B4C2146B8
:106BB000684600F042FA00200021CAB2491CA25CDB
:106BC0001043CBB2202BF8DB00B120461BB0BDE850
:106BD000F0850000587F0500340100206424002067
:106BE000684600F024BA000010B518B910BD93B281
:106BF000CC5CC45413465A1E9BB2002BF7D110BD77
:106C000008214208C00746BF544850401046491E5C
:106C1000F7D170472DE9F84F86B01C00049018BFDB
:106C200014F1010F0FD09DF84030012B02D14C4DD3
:106C3000AC4208D2DFF82CB10291ADF8022023B9A2
:106C4000494A944208D3002085E04FF480735A46A5
:106C50000021FFF731FD09E00299BDF802304843F9
:106C6000C1184FF480725846FFF7BEFF0298049A8D
:106C7000641EB4FBF0F1029800FB114404A8521802
:106C80000778641CD2B2A4B2200A039201944FF098
:106C9000FF3905904FF4807801E09DF8007003986B
:106CA000B84254DB874207D105AA0198157801063E
:106CB00005D06D1CEDB202E0029D2D042D0E791C55
:106CC00000248DF8001009E0AC4243465A4612BF3A
:106CD000384600219DF80000FFF7EEFCAC42DCDAFC
:106CE000601CA84204BF03998F4209D10198010694
:106CF00006D001460598A1EB00201FFA80FA00E0BB
:106D0000C246049887420ABF002C00260C260AE0DF
:106D10001BF8000080EA090000F0FF00FFF770FF99
:106D200080EA1929761CB0B25045F1DB641C9DF84D
:106D3000400021020028C7D1029BBDF8020003FBDE
:106D400007034246C9185846FFF74EFFC6E74FF003
:106D5000FF3181EA090007B0BDE8F08F2083B8ED6C
:106D6000010010009034002001800500016881F3CB
:106D7000088841688F46000010B5072114A2435CC3
:106D8000545CA34204D1491E49B20029F7D501E061
:106D9000002010BD012010BD80B500F021F8BDE835
:106DA00008404FF0FF320021002000F04FB90000F2
:106DB00010B5072108A2435C545CA34204D1491ECC
:106DC00049B20029F7D501E0002010BD012010BD17
:106DD00043433236783252314F4144204E564D3182
:106DE000EFF3108072B67047EFF3108062B6704711
:106DF00080B5084A136859698847074B00221A6012
:106E000002BD38B5034C2568AB699847024A00219A
:106E1000116032BDA8010010840460427CB50546B3
:106E20000C00544E0AE0336815F8011B5A684FF005
:106E30008040904700F01FF89047641EF3D1002077
:106E400076BD7CB505460C464A4E06E000F013F8C8
:106E50009047009805F8010B641E54B133689A6896
:106E600000214FF0804090470028EFD14FF0FF30D5
:106E700076BD002076BD3368DA6869464FF0804001
:106E800070471CB53B4B1C68226969464FF0804037
:106E900090470028F6D113BDFEB50D4636494A6825
:106EA0005169044606208847062000F067F901284A
:106EB000FAD13149314E4A68314FD1694FF4A0605F
:106EC000884700F034F84FF480702B494A68D16944
:106ED000884700F02CF803212A4F274E3869000913
:106EE00000013861F9610094082001900023D6F870
:106EF00010C02549DCF8004000224FF08040A04738
:106F000000954FF0FF3335686C6C092208214FF073
:106F10008040A047386840F00200386033691A6941
:106F200069464FF0804090470028F7D1F7BD012017
:106F3000306038688007FCD5704770B5134A0F4D34
:106F400013680F4E196A4FF48070884700F020F8DC
:106F50004FF4A0600D4C2268116A884700F018F8C1
:106F60000620226891698847062000F007F9022868
:106F7000FAD170BDC4010010B401001028200860CF
:106F80002820084004000040006CDC02B80100101A
:106F90000120286030688007FCD5704700B500BF2D
:106FA000130096469446103928BFA0E80C50FAD832
:106FB0005FEA417C28BF0CC048BF40F8042BC907DA
:106FC00028BF20F8022B48BF00F8012B00BD0000AD
:106FD00010B4134A426102F12403836102F14804B0
:106FE00002F1B4038360446002F19003036102F193
:106FF0006C04C46002F59073436202F1FC04D83261
:107000000462C26103230370816210BC70477CB5C7
:10701000079C069D034E019400953468A04776BDF9
:10702000D8730500AC000010054A1168084718B471
:10703000044C236801B010BC1847034B1A68104772
:10704000BC000010C0000010C40000102DE9F04783
:10705000344F8046386889469246810744BF324A99
:10706000FA6032492E4C2C4D314E0020086027200A
:1070700023682A6891698847316B2E480140316343
:107080004FF48060B16F21F48071B1672A68116B91
:1070900088472A68116B4FF4816088472A68116B12
:1070A0004FF4C0608847244A1A4901201060C1F893
:1070B0000090012333603868810707D41AF1010F6B
:1070C00006BF4FF04040F860C7F80CA02068F06998
:1070D0008007FCD5072000F033F80228FAD1B8F178
:1070E000000F12D12A6A154C91682046884704285F
:1070F000F8D0012804D12B6A5A6803212046904712
:10710000064801688908890001602A68906BBDE81B
:10711000F04700478C210840B801001024220840A5
:107120002C20094010000940FD0000400C4009409F
:107130000C200840FFFFFEFE2820086000400340AE
:1071400030B41D4B1A685B6D0021C50704D5D40708
:1071500001D45B0700D50121830703D5540804F04F
:1071600001042143400703D5920802F001021143B4
:10717000002914BF0120022030BC704730B40E4BF0
:107180001A685B6D0121C50704D5D40702D45B07DB
:1071900058BF0021830703D5540804F0010421409F
:1071A000400703D5920802F001021140002914BFE4
:1071B0000120022030BC70474021084038B55448B7
:1071C000046814F1010F08BF002400F0D9F85149F8
:1071D000514D00200860286C816C88474F4A106828
:1071E00020B14F490868204600F034F84D4900208E
:1071F000086040F239114C48026861F31B4202609A
:107200004A480168C1F30131012906D102684849A1
:10721000114041F40033036001600120454CE061FE
:1072200014202A68116A88474348016841F4E02124
:1072300001600120206041490868C0F381500228A4
:1072400003D12A6C3E48516C88473E4A106800289A
:10725000FBD131BD70B504463B4841688A0705D46F
:1072600001683A4A090C41F0F00111703849096887
:10727000002910D4374B384A1D68384BC90E85F0A9
:10728000C00501F00C01157041F0C00119704FF4F8
:107290000031C2F853104FF001223149314B324EC8
:1072A0000A601D888568326811682846884705F09D
:1072B0004070B0F1807F04D12C48017841F0020188
:1072C0000170294633685A68204690472148284A69
:1072D0004069010B01F03F01C305117003D5234A3A
:1072E0004021D17402E0234A40211170800900F04E
:1072F0003800214940F460500880284633689A6875
:107300009047022000F04AF81C490120086070BD37
:107310001C13005084046042B00100108001284317
:10732000800520438C210840482003402800094064
:10733000EFFFFCFC0000244300200940B44F005044
:10734000BD3786000C006842AC4F005056620840C2
:107350000C130050F813005031A00C4042A20C4016
:1073600004A40C4000A00C40F00100100962084089
:107370000EB00C402C6208406AB00C40940460428D
:1073800005480268C2F30F304BF67A31884200D1CB
:107390007047FEE700000000181300502DE9300090
:1073A0000BA10A4B0A5C09E00D5D00BF09A42C4447
:1073B00095422CBF14F8014C64781C601C685D6811
:1073C000AC42FCD18442EFD130BC704700600C402D
:1073D00001020003020001030800000096C298D8D1
:1073E0004539A1F4A033EB2D817D0377F240A463EE
:1073F000E5E6BCF847422CE1F2D1176B080000002B
:10740000F551BF376840B6CBCE5E316B5733CE2BCC
:10741000169E0F7C4AEBE78E9B7F1AFEE242E34FFB
:1074200008000000FFFFFFFFFFFFFFFFFFFFFFFF60
:10743000000000000000000000000000010000004B
:10744000FFFFFFFF08000000FCFFFFFFFFFFFFFF43
:10745000FFFFFFFF00000000000000000000000030
:1074600001000000FFFFFFFF080000004B60D22773
:107470003E3CCE3BF6B053CCB0061D65BC8698763C
:1074800055BDEBB3E7933AAAD835C65A08000000B9
:10749000512563FCC2CAB9F3849E17A7ADFAE6BCB6
:1074A000FFFFFFFFFFFFFFFF00000000FFFFFFFFE8
:1074B0000300000000000000FFFFFFFFFBFFFFFFD5
:1074C000FEFFFFFFFFFFFFFFFDFFFFFF04000000C7
:1074D00000000000FCFFFFFFFFFFFFFFFFFFFFFFBB
:1074E0000300000000000000000000000400000095
:1074F000FCFFFFFF00000000DFBDC42962DF9CD855
:1075000090308478CD05F0ACD62E21F7AB20A2E5E3
:10751000344887041D0630DC0000000030B400252C
:1075200012E050F8042BD30744BF4A44521E091FEF
:10753000042942F8045BFAD213468C0744BF158035
:107540009B1CC90748BF1D7050F8041B0029E8D1D7
:1075500030BC704700002000C21500000000100081
:10756000C214000000000800EF1200000000040038
:10757000EF110000000000000000000010B50749F6
:1075800079441831064C7C44163404E00A68081D1E
:10759000114488470146A142F8D110BD08000000FF
:1075A0001400000079FFFFFFB0140000E00F00207E
:1075B000000000000120C046002801D0FFF7DEFFD8
:1075C000AFF300800020AFF30080FEF7DDFE00F097
:1075D00000F800F005B80000DFF800F0BD6D021003
:1075E00007463846FFF7F8FFFBE70000054801466D
:1075F00003B4684680F30988AFF30080AFF30080DE
:10760000FFF7D8FFA5EDF5FE80B5FFF7D7FDFFF733
:10761000EDFFBDE8014000F001B8FEE7FEE7FEE740
:107F5400014C0000B0177D511DEC108BD851BCA210
:107F6400ED3D9E19B733A52F33DA05404D137650F6
:107F74003D88DF5CD0E2F2583053C42AB92ABEEF00
:107F8400665FECCF5616CC36EF2DC95E462B7C3B94
:0C7F940009C19956D9AF958163237BE7A2
:107FA80000008001100080FFFDFF5800FFFFBBF3B9
:107FB800FFFFFFFFFFFFFFFFFFFFFFFFFFFFFFFFC9
:107FC800FFFFFFFFFFFFFFFFFFFFFFFFFFFFFFFFB9
:107FD800FFFFFF00FFFFFFFF00FFFFFF00C5C5FF1A
:107FE800000000FF00600500FFFFFFFFFFFFFFFF2D
:087FF800FFFFFFFFFFFFFFFF89
:04000005000575ED90
:00000001FF
