:2000000000900020D93D0000A339000003350000033700000337000003370000033700001E
:200020000337000003370000033700000337000003370000033700000337000003370000F0
:200040000337000003370000033700000337000003370000033700000337000003370000D0
:200060000337000003370000033700000337000003370000033700000337000003370000B0
:0C008000033700000337000003370000C6
:20008C00F0B589B00446016CC26A03F070FAE16F4A1C904201D935269BE1002813D0206C66
:2000AC008A0087180837891C384603F0BBFEA168384603F001FE002807D0E56F691C8842E2
:2000CC0005D9C62685E1532683E16C2681E123786626022B00D27CE1052B00D979E1216CA0
:2000EC000A6801263240032B334600D300235A4080230893E2500790E06720463A460B462D
:20010C0002F03CFC20784000001F3146814008982150216C20460A4603F0B6FAE567E16CEA
:20012C002046324603F0D3FD626EA06EE16CA36FE56F0095A84DA847A26EE06E03F0CFFEEA
:20014C00A06EE26E03F0CBFE216F226B204603F00EFAE56FA84201D93C263AE100280ED060
:20016C00606CE26E216F03F029FF216F626B204603F0FDF9E56FA84203D9652629E1C32668
:20018C0027E1064600280ED0A06C216FA26E03F015FFE16EE268204603F0E9F9E56FAE422E
:2001AC0003D95C2615E1562613E126468036A26EE16E206F03F002FFE26C206D216FA36FEE
:2001CC00E56F009500F0B4FAE06F421C06963260666D00252778B81E0123194681408D4231
:2001EC0009DA616C304603F001FE06980268900036186D1CEEE70893A06D0025069EBB1E4D
:20020C00089999408D4206DAA16C074603F0EEFD03F001FEF3E7E06D0025BB1E08999940E0
:20022C008D4206DAE16C074603F0E0FD03F0F3FDF3E7216C08788007C30F07984001401C3A
:20024C000026049607960396089A019090426BD90593801AB842069B00D338461860204657
:20026C00089203F02AF907994118C8B27A1E01252B4693409842029500DA00252A46BA4073
:20028C00984200DB4842059B0799C9B207911018DBB205935349C95C049AD7B29E00524A51
:2002AC0092197B00D218525D920051180006800D001F04229043081806990860204600F050
:2002CC009FF86800494989190918079A895C0791474989190818C05D04902778B91E45489A
:2002EC008019405C089A12181420059B5843424B1B18052041435918039E8E5D216C530933
:20030C009B00CD581F231340DD40029B1D40079B5D4045430A20059B5843384B181840192D
:20032C000396835D019891E70798C0B2012811D10498C0B28000C01C069E3060274D204693
:20034C00A847012030602046A847022030602046A84727789926032F3BD30020C04307903D
:20036C00B91E012008908840FE30069DC7B208982860002F11D07A1C2046394601F048F9EA
:20038C00089828602078801E07998140C94320463A4601F03DF9781EE8E72078801E079F38
:2003AC0039468140CA430021059120460C4B9847089828602078801E8740FA432046059F25
:2003CC003946074B9847089A2A6020463946044B9847304609B0F0BD3D0700000D040000F1
:2003EC001D160000E04300000C430000DC42000024430000F4420000F03F00002F410000F2
:20040C00F0B589B0044680202158C8080D460391E26F511C4143E06DC9B28F00C019616F96
:20042C00636C06AE0BC6A807060F05A88159206EA36F0092BB4D0A46A847606E03F063FD77
:20044C0005A88059A16CA36FE26F0092B64D0A46A847E06E216FA26C636E0692079108933E
:20046C0005A98959E26DD2190497236EE56C06920793089505AA03F055FDAA4DA847606EB2
:20048C00E16EE26C06AB07C305A88059E26F521C03F0ACFCE06E216F06900791089005A807
:2004AC008059216E03F020FD9F4DA847206FA16E06900790089105A88059A16DC919226E73
:2004CC00636E06AD0EC505A98959A26CE36C656F06930795089205AA03F024FD914DA84799
:2004EC00606F216E06900791089005A88059A16E03F0FAFC8C4DA847234660330ECB069318
:20050C000791089205A88759E56C606F06910795089005A9895906920790089305A8825943
:20052C00A36FE06F009038467E4DA847226E606E616F06AB07C305A88559E16EA36FE06FA2
:20054C0000902846784FB847216E226DA36FE06F00902846B847E06C616E226E06AB07C329
:20056C0005A88159E06E626FA36E06AD0DC505A8805903F0B9FC6B4DA847616EA06D049FDF
:20058C00C219E56E06A826C005A988590290216F226E636F06910792089305A98959E26DD0
:2005AC00D219636C06950792089305AA03F0BAFC5C4DA847606EE16DC919E26E06AB07C3ED
:2005CC0005A88059E16F4A1C029903F00FFC206D03F099FC05A88159206F226E0690079250
:2005EC00089005A8805903F07FFC4F4DA847606E616FA26E06AB07C305A88059216EE36E49
:20060C0006920791089305A98A59A36FE16F0091464D0146A847226F216E206D06920791D9
:20062C00089005A88059636E06AD0EC505A98959636CA76E06930797089205AA03F059FCFD
:20064C00384DA847616F606D049D4019626C06910790089205A88059A26E0692079108928D
:20066C0005A98959E26E236F06920793089205AA03F03FFC2D4FB847606F03F044FC05A829
:20068C008059626C636D5B1906920793089205AA03F02FFC254FB847616FA06EE26E069192
:2006AC000790089205A88059636D5B1906930792089105A98959636E276E069207930897A1
:2006CC0005AA03F016FC174FB847616FA06D4019A26C06910790089205A880590490A26EBF
:2006EC00042303980340E76E606E069707901B1D05ADED5806910792089505A98959226F75
:20070C00256E0690079705A8C05806920795089005A88259A36FE06F00900498034CA0472A
:20072C0009B0F0BD3D070000E108000069090000F8B444464D4656465F46F0B400B501B490
:20074C000B9B5B005B1C6C469B00E31A9D4610B46C46241D00266D46009CE36A2D1D9B008A
:20076C00EE505B00EE50E36A013B9B0098465B009946002300240025002702E03700404628
:20078C003F1A9A46A346AC46B646F01B1458C859030C80B2250CA4B21E006E4363434543E0
:2007AC0060431C041B0C00195E412C042D0C00196E4153465C4665461B18744100204541E6
:2007CC0076460437474501DCB742DADD6846001D835123462C46002504364645CCDD4E455D
:2007EC00CCDD8351009B9969083102464E4604361068009B9C6924684443A1460027002328
:20080C00002400259A46A346AC46B6464C46C859030C80B2250CA4B21E006E436343454354
:20082C0060431C041B0C00195E412C042D0C00196E4153465C4665461B1874410020454165
:20084C00D0591B18002044414541002F02D0043FD35104370437764623462C4600254745DF
:20086C00D0DD301D8742EBDD043FD351043E464500DDBDE710BC2068E36A9B46024691468B
:20088C006846012720C840C97F08B5417F4120C2013BF7D105682F430126F741FF17FE43CD
:2008AC0068463840494631400843494639406D46354029435B4604C904C0013BFBD1A546FA
:2008CC0003BC8E46F0BCA046A946B246BB46F8BC7047C046F0B444464D46564670B4814646
:2008EC00079CA246002720C940CA7F0875417F4120C0013CF7D1B8464846083354466A4654
:20090C00A400141BA54604B46A46121D5446012720C840CB7F08B5417F4120C2013CF7D19D
:20092C00424617430126F741FF17FE4348466946091D0D46384031400843494631403D40AC
:20094C002943544604C904C0013CFBD101BC854670BCA046A946B246F0BC7047F0B44446D9
:20096C004D46564670B48146079CA246012720C940CA7F08B5417F4120C0013CF7D1B8468B
:20098C004846083354466A46A400141BA54604B46A46121D5446002720C840CB7F087541F2
:2009AC007F4120C2013CF7D147460126F741FF17FE4348466946091D0D4630403940084357
:2009CC004946394035402943544604C904C0013CFBD101BC854670BCA046A946B246F0BCC1
:2009EC007047C046F0B444464D4630B4884699466C469B00E31A9D4610B46C46241D4B4667
:200A0C000832012720C940CA7F08B5417F4120C4013BF7D16A46121D0125EF41FF17FD43C5
:200A2C00414629403A4011434B4610C910C0013BFBD101BC854630BCA046A946F0BC7047FE
:200A4C00F0B591B01D46174610910446866A8168304603F03AF8E067002804D00246FF28D3
:200A6C0003D928202BE16C2029E1307AC00701D1822024E1501C8300F058002839D00B97B0
:200A8C0017980E90D0000A9087190837F8183146061D0C93F018001D0F902046099101F0B6
:200AAC00A5FB2046394601F00BFCA36FE06F0090304639463A46FFF70DFFE06F4001802114
:200ACC00605020460F990D9632460E463B4601F0C2FE0146E06F421C384603F087F9204660
:200AEC0031460E9A02F043FDE16F884203D92220E5E02320E3E0002830D00C9830180E90E4
:200B0C0026468036A36F00910D980F993A46FFF70FFE2078801E0321089181400C310696A7
:200B2C00316020460D9E314600F086FC0146E06F421C304603F05AF9A36FE06F00900F98D6
:200B4C0031463A46FFF7F4FD20460E992A4602F00EFDE16F884203D92720B0E02120AEE095
:200B6C00002829D0169805900E9D0C9828180790A36F0091384629460F9AFFF7D9FD03F0E7
:200B8C00E9F9A36FE06F0090079839462A46FFF7CFFDE06F3E4601C6A26FE36F3046079913
:200BAC00FFF720FF20462946059A02F0E0FCE16F884203D9112082E0722080E000287DD0E2
:200BCC000396079E0C9AB018801880180490A36F00910C970D9F38460E9D29460F9AFFF770
:200BEC00A7FD03F0B7F9A36FE06F0090304639462A46FFF79DFDE16F38460C9F02C0A26F70
:200C0C00E36F02903146FFF7EDFE6069A169049AA262E76220636163204601F099F89928DE
:200C2C004DD103F07DF841180C310F9803F0DEF802F07CFF41180C31284603F0D7F8204683
:200C4C00FFF71EFA99283AD12046079902F054FD0D98E062109820630B98606303F060F8A2
:200C6C0040180C300F9903F0C1F802F05FFF40180C30294603F0BAF82046FFF701FA992870
:200C8C001DD1022006990860002520462946079A00F0BEFCA7630D98E063204601F04AF960
:200CAC00A06BE16F03F01EF800280BD0E06BE16F03F018F8002805D0E32000E01220C0B29F
:200CCC0011B0F0BD099EA662E76FA168304602F0FCFE0246E0672046314601F087FA781CB8
:200CEC00B9000A9A51188E190C360399E26F531C984202D220C6401CF8E70D9D2A60A26FC9
:200D0C00E36F0298FFF76EFEE06F421C2846059902F064FF01465A200029D0D0C043CEE729
:200D2C00F0B58DB00E4604469548006805909548606295482065274620370025022D11D053
:200D4C000020294603F07DF8C0B2394602F024FE6D1C2C370028F1D08C488D498D4A02F043
:200D6C0029FBFEE7204602F0EDFD002807D10025204629462A4602F081FB002837D058209D
:200D8C000121215407A8C17100200C900021204600F0D0FE80490968794A176888420ED1A9
:200DAC00B84201D107460AE07C490968884206D00C99491C0C910C990129074613D1002087
:200DCC000A90099008900790206A417831714068B06034604C2528460C3005D0605902F0D9
:200DEC00FEFB2C3DF7E7FEE738460DB0F0BD204601F088FB0028C2D007A8857109950A9564
:200E0C0001210791FF210691023181800495284601F07CFC0746801E02280ED8012520462A
:200E2C00294600F087FE5C490968884205D05B490968884200D005252F46F8B22246583223
:200E4C005821675407A9CF71811E032933D20292534D01200CA902F09FFD002804D04B486B
:200E6C004B492A4602F0A6FA039602200BA902F093FD0028049F05D04948021D4348444977
:200E8C0002F098FAA06A042600281CD00690606A85590C9839462A4602F0ACF9002805D015
:200EAC003F4A0A3239483A4902F084FAEF1908360698401EE8E70128059F52D0052850D0A0
:200ECC000698107046E00B990C9A00230093019701F0D0FF00280FD02C4D2D4F314A284685
:200EEC00394602F067FA2B4A57322846394602F061FA039E059F29E00B98216D4A6800218A
:200F0C0002F078F9002805D0254A59321F48204902F050FA216D606DC2000B985218083AF3
:200F2C00136852680968591A02F064F90028039E059F05D01A4A61321448154902F03AFA24
:200F4C000C9802F04CFB0B9802F049FB02980078FF2806D10F4A6E3213480D4902F02AFAFF
:200F6C00FEE704990C91012800D10FE7002107AA204602F083FA002800D020E706E7C046BD
:200F8C005C4900200000002000100020D8430000684000004C070000644900206049002084
:200FAC00DE0300009505000095410000F0B5FFB08CB0049315460646909801908A91346896
:200FCC00204602F045FF2218002189910292944244D20022859285A803920273641C0F462F
:200FEC00601E0078002834D0252806D034602946049A90477F1C641CF2E70398C343899773
:20100C00601C03903060207885A90873732809D18AA989AA28461C46049B00F021F8234628
:20102C00899911E005AC85A98AAA2046009300F035F8024620462946019B9847009B411CD8
:20104C00194600D0C1198991029A039C481CBED100E03B4618467FB00CB0F0BD0B46F9E7AB
:20106C00F8B504460868051D0D600668002E11D0009414461D46304602F0EAFE074620687B
:20108C00C01920600024BC4207DA305D0099A847641CF8E7002021469847F8BDF0B585B07F
:2010AC0001920E4604467F208000251800270397FF210291FE312022204602F0BBFE049508
:2010CC006F70307B252852D06A1C782814D0642812D06F2810D06328029B20D1019E3068CC
:2010EC00011D31600068C1B24F424F411946FC3161180491287012E003A9154604AA3046EA
:20110C00019B00F03AF82A4603980028029B06D00499481E2D220A702A46002700E0049880
:20112C00111A0029254601DC611A4D1C411C5B0000262846324602F0B7FC002F02D0411C5C
:20114C00067000E00146A14206D8481E611A491C202202F06FFE2670291B2022204602F0CA
:20116C0069FE204602F074FEC01905B0F0BD00206070252020700120F7E7F8B514460D46D9
:20118C000646077B194600F014F8317B642904D1002802D50121296040426F2F01D00A2146
:2011AC0000E00821782F00D11021224600F012F8F8BD007B642805D06F2803D0782801D0A3
:2011CC00702804D10868021D0A600068704700207047C046F8B514460D460646002804D1FE
:2011EC002068411E2160302101700A4F002E0DD03046294600F010F801466943711A795C25
:20120C002268531E236011700646EFE7206802F01FFEF8BD6643000080B5102903D008293A
:20122C0003D1C00880BD000980BD02F007F980BDF0B5BFB004931646469C7A4800680190B0
:20124C0002F0F2FC002C05D04799012902DB204602F0F6FC4898029045980590449D307A01
:20126C00717A09020818317B727B12025118B27BF37B1B029A18120451180818B17A039669
:20128C00F27A1202511846180027BE4212D9F41B0598844200D3059C049839462A4623460F
:2012AC0002F063FC002808D12846214602F0C8FCE719EAE706A802F0ABFC01F016FBBE422B
:2012CC0016D80298002803D006A9202202F062FE002700972EA8544B0399049A01F054F892
:2012EC00002805D1339C049802F05CFE844203D94C4800683FB0F0BDFD434C480068059022
:20130C002C4626462EA836A935AA34AB01F052F90028EDD400D07BE034A80088222807D19A
:20132C00002E2C46EDD4059886422C46E9DA57E001281AD010283446E3D135A80088202849
:20134C00D6D136990EAA2023049802F00EFC0028CED106A80EA9202202F020FE354909680B
:20136C00012788423446CCD057E035A80388202BBED836990EAA049802F0F7FB0028B7D122
:20138C0035A8017820292C46BBD800240291059884421FDAE60026488019039002F044FCD8
:2013AC002348805903994968096802F049FC37A802F02EFC029A002A0ED00EA837A90B7830
:2013CC000678B34204D1401C491C521EF7D104E0641CDCE72C4600E0002401F086FA90E73B
:2013EC0035A80388802B00D982E736990EAA049802F0BBFB002800D07AE735A80388F0B25E
:20140C00009006A820210EAA00F004FB019077E7002F00D16CE701986CE702480068019029
:20142C00F9E7C0465C490020FFFF0000E8430000C843000064490020F0B589B00391054637
:20144C00C06F082801D3052100E00421032800D203212A46803208920022012307951CB295
:20146C00A1420BD3089D2D68641E0126A640F41CA54200D31A465B1C079DF0E70146D0B2F1
:20148C00441E01270591491C8A00A1408900039B5E1819460496B618B218069202900228CE
:2014AC0008D3AB6F0598009006980399039AFFF73FF903993846A04005900C4638B2059990
:2014CC0081420FDDAB6FE96F88000019001D00912146069AFFF72CF9E86F80000019041D5D
:2014EC007F1CEBE7A86F8068411E4C424C41801E089908602846069F394602F047FD01206A
:20150C0001B2EA6F8A4211D9AA6F89008A189268E3B2012B07D10023002A02D0521E1C4635
:20152C0001E00124DA437A50401CE9E7521C0498039902F05BFCA96FE86F820051184A688B
:20154C000021002A02D05208491CFAE740014318223B0498044618B200284FD49AB2500929
:20156C00800038581F211940C840C0071F4638D005970898029901602846069901F014FC34
:20158C00049000252746E8B20899096881420CD90798836FC06F0090304639463A46FFF70A
:2015AC00C7F86D1C34463E46ECE70498401E81B2C90B4018400880B2079DAB6FE96F4A1CB7
:2015CC0042439000039A1218009130463946FFF7AFF808980088059B1B1A30463E46069F64
:2015EC00B8E7AB6FE86F0090304621462246FFF79FF87B1E30462646069FABE7E86F421C06
:20160C00039D2846214602F0F1FB284609B0F0BDFEB515460446C26F571C8023C358022BB0
:20162C0008D0012B0AD0002B15D1656CA06C0190E06C0EE0B8002B18019309E07D43636DFF
:20164C00A66DE06D0290A8001D1833180193029B1818029002E00025019502957943E06D34
:20166C008F00C119E06EA36F0092514E0A46B047206EE26EA36FE16F00912946B04702F0F4
:20168C00C3FB0199B0473546606EE26E216FA36FE66F0096A8472E46E06EA36FE16F009125
:2016AC00029D29462A46B047E26E206F616DC919A36FE66F00963E4EB047606DA16DC019E6
:2016CC00C919A36FE26F00922A46B047616DA06DC019C919E26EA36FE66F0096344EB04764
:2016EC00606DC019216F226EA36FE66F0096314EB04702F089FB29462D4EB047E06DC01928
:20170C00616DC919226F02F021FC206FA16DC919626EA36FE56F0095264DA847606DC1191A
:20172C00E06E02F0F5FBA06E216F02F0F1FBA06DC019216EE26E02F009FC206EE16E626D89
:20174C00D21902F003FCA06E226EA36FE16F00910146184EB047E06EA16DC919A36FE26FCB
:20176C0000920A46FFF7B6F8606DC019A16EE26E02F0ECFBA06E626DA16DC919D21902F04F
:20178C00E5FB216F2546743529CDA26E0095084EB047E06E226E616E02F0D8FBA06DC01979
:2017AC00254674352ACDE26E0095024CA047FEBD3D07000069090000F8B515460E460446E1
:2017CC00806AA067616802F080F90246E067A16F204600F00BFDA06FE26FD1000918083150
:2017EC009000001D0A1813181818274660370EC7E0663B4F20463246B847616E20462A4688
:20180C00B847A16E62682046B847304602F0E4FBE16FE426884260D1284602F0DDFB014664
:20182C00E06F814259D1206E02F05CFA002807D0606EE16F02F056FA002801D0E3264CE0FD
:20184C00A36EE16E226E204601F050F8E126012843D1E16EE06F8000085800283DD1626E25
:20186C00A36E204601F042F8E226012835D1E06EE56FA900405800282FD1A06E216EE26990
:20188C00A36F0095174DA847206E02F011FBE06E216E226A02F062FB206EA26EE16EA36FFF
:2018AC00E66F0096A847E06E216E626A02F056FB616EA06EE269A36FE66F0096A847606E74
:2018CC0002F0F6FA606EE16EE26F02F087F9002801D11A2000E01920C643F0B2F8BDC04687
:2018EC007B3500003D070000FEB5002905D0434E0024072E03D8224603E000247BE0324630
:20190C00083A914277D8431E08221842074600D017460194072800D81746C81D029007245D
:20192C0037480068804737480178002918D1072E01D8002101E031460839002903D13249A3
:20194C0000220A600AE0304A3049116000228A60072E01D8164600E0083E0E600121017004
:20196C000298A0430290781E7942274C2568002D33D02C46083406190E40B44210D02A466A
:20198C0010323346083B9A4201D9F619F9E72A6801239A43A218029BF3189A42E6D306E028
:2019AC002A6801239A43029B9A42DFDB2646284602F0F8F8A64215D0301B29680122D343B7
:2019CC001940091A0838286018402C181143A1600834284601F0F4FF05E00D4800688047CF
:2019EC00019C08E02C462046029901F075FA08480068804708342046FEBDC0460020000081
:201A0C006C49002074490020302700203827002070490020F0B597B01F46164601901C9847
:201A2C003F490D68C0003F490A180858029051680968441800F0BDFD02A816AA30232146ED
:201A4C0001F0FAFF002804D000F0FBF9284617B0F0BD02981699441802A806AA03AB2146BA
:201A6C0000F0D1FF0028EFD107980728ECD108982D49072202F014F90028E5D1049808283F
:201A8C00E2D105982949082202F00AF90028DBD102A816AA214601F0E3FE0028D4D1169966
:201AAC004129D1D102984118A142CDD101780429CAD1441C0294F519039603A816AA3023FE
:201ACC00294601F0B9FF002813D1039816994018A8420ED806A803A92A4601F03AFB00284C
:201AEC0007D106A8203003A92A4601F032FB002808D00F4802680A4801680D469542A3D0B1
:201B0C000D46A1E706AA2046019901F0CFFA08490A680349096800281546EED1EEE7C046D7
:201B2C005C490020C8430000D0430000BC43000064490020F0B587B00C4605463E4806687D
:201B4C000027384602F07DF9C0B206A901F024FF00286DD12846214601F09AFB0126002827
:201B6C0063D02C2060432918087CC0065DD40E46002C1DD02846403001782A7D914217D84E
:201B8C000ED341786A7D914212D809D38178C07800024018A97DEA7D12025118884207D2E7
:201BAC000021284601F074FB002801D0069836E0069B0497039702970120000201902048F2
:201BCC0000903846394635463246FFF731FB0646069829786A7812025118AA78EB781B02CB
:201BEC009A1812045118174A914216D1297B6A7B12025118AA7BEB7B1B029A1812045118AE
:201C0C002A7A6B7A1B029A18511806D28268914203D20D4909688E4207D0002C03D0826836
:201C2C00002101F0E7FA05480668069801F0D7FC304607B0F0BDC0465C490020604900201A
:201C4C00202500203DB8F39664490020F0B585B00F4606460024E5433B48006880473846D1
:201C6C0001F0D5F8002869D0B868F96804913B46325D641C002AFBD15A6907210A40671EE3
:201C8C00042A009501970ED10024002F4ED0186831193A461D4601F0BBFE002848D40419D5
:201CAC003F1A2B46F1E7029104990D1A3C460393002C3BD0AC42274600D32F465969029ACF
:201CCC0011400229049511D1002F07D00021725C0A2A06D0491C8F42F9D107E000252F4681
:201CEC0005E0721802D04F1C012500E0002531463A4602F04FF9039B9868C0199860F61952
:201D0C00E41B002D049D01D1ED1BD1D118461D4601F0F6F900280BD1A868E9680F1A69696D
:201D2C0020220A436A612B463D46C1E7019D05E068690121890201436961009D0348006842
:201D4C008047284605B0F0BD6C49002070490020F0B587B00446806AA067616801F0B5FEAE
:201D6C00E067002804D00246FF2803D9D22066E0082064E0A16F087AC00701D1DC205EE0C0
:201D8C0090000B185B68002B58D0D3005B18083304931D180835561CB0002B1803931B18B6
:201DAC000693069B1B1802931F1805972778BF1EBE40B600059B9F19BB190193049B23642C
:201DCC006564039BA364069BE364029B2365059B6365A765019BE3659B1906931D182E185C
:201DEC0037183B1818180590069820666566A666E766236705986067204600F0F7F9E16CA7
:201E0C00204600F05DFA206EE16CA36FE26F00920A46FEF75FFDE06F400180216050226E27
:201E2C00656EA16E20462B4600F015FD0146E06F421C284601F0DAFF992000E0302007B00F
:201E4C00F0BD7047F0B5FFB0FFB0D3B005460920C44331A8032101802C4932912C49339122
:201E6C002C4934912C4935912C4936912C4937912C4938912C4939912C493A9153A93B91E3
:201E8C002C305C2102F01AF82E687068412837D130680078042833D1082028901F90169005
:201EAC000D900490686816A9091D214FB847A8680DA9091DB847E86804A9091DB84730681C
:201ECC00401C28AD291DB847306821301FAE311DB84731A829463246FFF76EFCE6280ED170
:201EEC0004A801900DA8009031A828A91FAA16ABFEF7A6FD0024A52802D0E44300E0093481
:201F0C0020467FB07FB053B0F0BDC046B84200009442000098410000E04100002842000007
:201F2C004C42000070420000BC410000044200009D380000F0B585B00446016C0B1D084636
:201F4C000491E16F4A1C91005F180397D1005918029180256251616D304EB047A16D62594F
:201F6C003846B047E16D6259029F3846B0472078801E03218140C81D6051204639463E46A7
:201F8C00FFF75AFA606EA36FE16F0091244F31463246B847206E626E01F0BFFF226EA36F1A
:201FAC00E06F00903046039D2946B847626EA36FE06F009028460499B847A06F616801F01E
:201FCC0084FDA16FE26F204600F010F9216F0122204601F07CFEA06E226FA36FE16F00919E
:201FEC002946B847A16EA26FE36F2846FEF7FAFCA16B20462A4601F0FEFDE06E226F01F0FE
:20200C008CFFE16EA26FE36F3046FEF7EBFCE16B2046324601F0EFFD05B0F0BDF93D000086
:20202C003D070000F8B5002869D00446344800688047083C33480025016801270A46BA438B
:20204C00A04204D28118083105460846F4E7861808362C4A2C4B072B01D99A18083A9642D5
:20206C0000D90026A04247D1C80745D0002D0AD029683940284600D00020002E06D10029DA
:20208C002ED100260BE0002E2AD000203178C907314600D0002100280BD00E4605462846EB
:2020AC0001F080FD002E08D12868216801F0A5FE13E0002500292F4612D0304601F072FD84
:2020CC00002F11D0286821680122D243114033681340103010404018C01828602C4608E0B2
:2020EC0020680121884303E02068316801F085FE2060204601F064FC044800688047F8BD80
:20210C006C490020382700200020000070490020F0B585B004931646039105460024E7436C
:20212C002E48006880472868401C04D0042E04D00498002801D13C4644E001972A1D68683D
:20214C006F69002802920BD0390703D5401EFFF769FF029A08208743146054609460D46052
:20216C00039B0120002E014600D03146072297430F436F61049EFF2E00D90602002B06D002
:20218C000498012803D0581C029908600CE0761C304601F099FE02990860002818D0401C39
:2021AC00686008210F436F618119491EA860E96028610B48006880470848006880470948D3
:2021CC0009490160064800688047204605B0F0BD0120800207436F61019CF3E76C490020F2
:2021EC00704900205449002039370000F0B585B00092049003918E68C8680024B51C0746D1
:20220C0003460190674128463946324601F028FC01F060FE05460F4602963246019B01F02A
:20222C001FFC01F057FE05460F463246019E334601F016FC01F04EFE01F060FE01F04AFE39
:20224C0001F05CFE801C61412A463B46009F01F007FC039B03C3B800083BC1184968CA0FA3
:20226C00049D6A70002911D419460831002202243B46002B1ED00D68ED43EE0F6D002C19FB
:20228C0056410C505B1E091D3446F2E71946083101233A462546002A0CD00E68F643F618E3
:2022AC000E501D436B1E9D41734273412B40521E091DEFE7049803998167C76705B0F0BDFD
:2022CC00FEB50D4604460220009002900298E16F891C884202D201F02CFDF6E701222046B1
:2022EC00294601F0F4FCA36F0833204629462A4601F082F801F04AFD02D001F0C5FD014681
:20230C002046803001908020215001F033FE01F0C1FDE06F800000262E5002962F1F029934
:20232C00E06FC20E12075242914221D281007918012807DB4A68401E4B881204D2184A6055
:20234C00091FF5E728680004286001F01FFD02D001F09AFD01460198016001F00BFE01F0BE
:20236C0099FDE06F80002E500298401C0290D6E7009902910299801C814204D201F0D9FC67
:20238C000290E06FF6E7FEBDF0B585B00024E743002820D00E4600291DD0002A1BD00546AE
:2023AC000193307A717A090208180390317B1046727B12025118B27BF37B1B029A1812043E
:2023CC005118039A891804AA04230390029101F0CCFB002802D0384605B0F0BD1A4904A8AE
:2023EC0000884A1CB17AF37A1B02591890420FD104A840888142EED10298411804AA04234D
:20240C00039801F0B2FB0028E5D104A8008801E00029E0D10C498842DDD10A982E60039911
:20242C00696001992981A872B07AF17A09020818029A1018E86004A9498840186861101DD1
:20244C0028612746C7E7C04607690000F0B585B00D4604468168103901AA102301F085FB5E
:20246C00002808D401A91022204601F028FA002803D0032011E001263FE00020204901AA6E
:20248C00125C0B5C9A4203D1401C1028F7D113469A4201D0022000E001202870A168283924
:2024AC000727B9436A4601262046334601F05DFB002822D4694608780F2202406A70000944
:2024CC00287101262046324601F0F9F9002802D16878052803D30120687000202871A91C1A
:2024EC00A268203ABA43204601F05DF8002804D1E91C204601F052FC0646304605B0F0BDF8
:20250C0088430000F0B586B001246302826A00219A424BD8456D9D4248D8029500210F46B5
:20252C000D4604910B46EE00361D0391954210D30593034611462246029C28463D46049FF5
:20254C00A7422F46054614460A4603991846059B23D28F4209D00ED2022B26D0436A9B593F
:20256C00DF196D1C08362346E0E70593476ABE5977186D1C03E0012B17D002230593049B96
:20258C005E1C0196066D0096DE00009B9E1976687118019B0493059BC5E76A400298049B1C
:2025AC00434013435942594100E00021084606B0F0BD7047F0B585B00026F743002836D030
:2025CC0004460068002832D0606800282FD0019302910392216960690125814228D22068AA
:2025EC00827AC07A0002801804D0E068814201D1091D2161606804AA042301F0B6FA002840
:20260C0015D1A07A002803D0E068216981420FD22089124988420ED004A9098881420AD0B6
:20262C0004A8408821694018011D2161D3E73D46284605B0F0BD0199002901D004980880D3
:20264C002069001D0299086004A840880399088021694018001D20613546E9E7FFFF000064
:20266C00F8B503465F20C0431D684E1B012E0BDB00242F57002F08D46F1C1F602E781660F8
:20268C00C91B8E4200D82046F8BD00947F2427407F1E032F2DD8BC0001A73C59A746C04629
:2026AC00BD26000003270000C9260000E1260000022EE9D36E781660AF1C24E0042EE3D30C
:2026CC006C782404AE7836023419EE78A61916602F1D18E0052ED7D36C782406AE7836040D
:2026EC003419EE783602A4192E79A61916606F1D09E0001FF8BD032EC6D36C782402AE7807
:20270C00A6191660EF1C1F60009CB9E7F0B587B0012405A9204601F02AF9FF25002843D129
:20272C00022003A901F023F900283DD105AA107803AB1978D5780195DB780093927802929F
:20274C0000261B4F122E28D0BB5D042B06D0052B02D1012802D11EE083421CD1BB195A7833
:20276C00042A06D0052A02D1012902D113E08A4211D19A78042A02D0019DAA420BD1DA78DF
:20278C00042A02D0009DAA4205D11A79042A06D0029DAA4203D0B61DD4E7254604E05D7926
:2027AC00A81E032800D3FF25284607B0F0BDC04654430000F0B58B4200D1824204D90B00C7
:2027CC0002000021002040E0002B00D1002A0CD10B00020000210020002B00D1002A01D042
:2027EC00C943C04300F045FB2FE01C0015000B0002000CB4002126002F00FF19764102D268
:20280C00491C4029F9D100201E001700FF19764102D2401C4028F9D10E1A210028003200EB
:20282C0001F094F90C0005000CBC00200021A34200D1AA4201D3521BA341404149416D08AD
:20284C00E7073D436408761EF1D5059F002F01D03A607B60F0BDF0B587B01E460F46044693
:20286C00836FC06F0090084611460292FDF760FF8020059420580490002101200390C50729
:20288C000A46002D2ED0002A06920DD00598836FC06F009030460C4639463A46FDF748FFC2
:2028AC00214630463E4607462C4604980440002911D0002C11D00598836FC06F0090304631
:2028CC0006913946029AFDF733FF06993846039A3746064603E0069A01E00024039A214308
:2028EC006D08CEE7384607B0F0BD7047F0B585B0029000921568280C01931E68F7433F0CBB
:20290C001D4CB443ADB22C19641C250C3E1876193504A4B22C190C60012297B20298C46F98
:20292C00651CBD421CD9300C0390BF000098C5592E0C0198C459E3431B0C084604920E4A59
:20294C00A243A9B2039C091989180A0C9B199E18320489B252180146C251049A521CDCE745
:20296C00A0000A58521C01D0002003E0081800210160012005B0F0BDFFFF0000F0B588B007
:20298C0007930692802202908058020C019280B2009000231F461A460298C06F82422CD217
:2029AC00069820C80690280C05910799049204C90791110C0391ADB2009C21466943BFB25A
:2029CC00C91992B28E18320C274647439CB23C19A218140C01994D43039BEB1892B29A18AC
:2029EC00130C48432018C7183B0C10040599B2B28018049A01C1521CCEE7B8B21A041018E2
:202A0C00086008B0F0BDFEB51C4617460E46054602AA302301F010F8002800D0FEBD65209C
:202A2C00C2432868311A012929DB019201783A4602C20299461806232846314600F0FCFF3A
:202A4C000028EBD12868B8607868296808182860B04216D00178224602C2401C28602846F6
:202A6C003146FFF7FDFD0028D8D12868A0606068296808182860B04207D00198FEBD901DB7
:202A8C00FEBD0C21204601F0FFF80020FEBD7047FEB504460025EF430168481C06D00291D8
:202AAC006669204600F02CFB002802D03D462846FEBD0120000306400196207D000707D597
:202ACC006068401EFFF7AEFA60690821884360616560A560E560206800F064FB05462760F0
:202AEC0001980028E3D0064800688047029800010449081801F05EFA034800688047D6E751
:202B0C006C49002020260020704900201FB501F057F801F053F901A800F0E8FF00281FD1AC
:202B2C00019801784278120251188278C07800028018000440181249884211D17D208200F2
:202B4C000F20032100F074FE039801990A7A497A09028918401801F0F4F9002004B010BDB5
:202B6C0001F02EF80E240A213222204600F060FE7D20C2000221204600F05AFEF2E7C046BE
:202B8C003DB8F396F0B5441C00780023082B30D02578C6070FD166782D0137097F190F2576
:202BAC003540ED1C122D0BD102256657F5B2002E08D4E61C0CE0641C4E1C0D70314615E01A
:202BCC00A61C06E0261DE4787F221540E20155191235094A97420ED0FC43002D05D00A5D62
:202BEC004F1C0A706D1E3946F7E7344640085B1CCCE72046C7E7F0BDFF0F0000F8B5154639
:202C0C000E460746154800688047154C2770380A6070A670300AE070300C2071300E6071F5
:202C2C00A571280AE071F420002521462A462B4600F0B0FD2046294600F092FD207861780C
:202C4C0009020818A17809044018E178090644180448006880472046F8BDC0466C4900208A
:202C6C00282700207049002070B59AB00D46064615480068804701AC2046314601F06BF888
:202C8C00304601F0F3F806460019401C294601F062F8284601F0EAF83018831C0B4DF720C4
:202CAC002946224600F076FD0021284600F058FD287869780902081804B20548006880471C
:202CCC0020461AB070BDC0466C490020282700207049002070B514460D4606461648006884
:202CEC0080473068401C1FD0012C08D1307DC00605D5B068002802D031694019451A3046F1
:202D0C0000F0FEF97069052149028843706130682946224600F068FE04460848006880474C
:202D2C00601C06D0002404E00448006880470020C443204670BDC0466C4900207049002044
:202D4C00FEB5044600680026815D002903D03A2903D0761CF8E7134D22E08719114D1FD00C
:202D6C00082E00DB0826002E10D06A46314603781370002B04D0521C401C491EF7D105E0F8
:202D8C00022903D3501C491E01F098F868460021815500F025FC002802D0791C21600546C1
:202DAC002846FEBD28480020FCB50123DD438023C4588030944205D90B68541C9540AB4390
:202DCC0004601BE0521C161B73091F2701973E40DBB29B000093CB58F3406F1C3D46A5400D
:202DEC00AB433519212D09D3009D69184968019D2A409740B943A21A9140CB18611EDA07E7
:202E0C0003D15B080160491EF9E7D8B2FCBD10B5044601680020491C25D06269D10623D4F9
:202E2C00100605D500210222204601F0BFF86269900604D4500602D52020024362616168CC
:202E4C00012000290DD1042111400AD1072002400120030200212046FFF75AF901464042C5
:202E6C004841E168216110BD012189020A43626110BD7047F0B587B0059303920491002620
:202E8C000D990C9802900196124F8E421CD20D468C1B012006908002844200D304460598E1
:202EAC00311804983A46234600F05FFE00280DD10298311803983A46234600F0ADFBA61927
:202ECC0000282946E1D001E001980690069807B0F0BDC04600200020F8B5044602680125BF
:202EEC001046A843401A102821D366180838B0600836A843371808370E480F4A072A01D9C0
:202F0C0010180838009187420DD23878C0070AD1384600F047FE30683968EA431140083010
:202F2C00104040183060304600F04AFD009A2A432260F8BD3827002000200000F8B51446BC
:202F4C000F460646124800688047124D2C70200A6870AF70380AE8700023F05C5B1C002877
:202F6C00FBD1F0202946324600F014FC0021284600F0F6FB287869780902081805B2064861
:202F8C0000688047002D00D425462846F8BDC0466C4900202827002070490020F8B504464D
:202FAC00124E30688047002C08D0204600F0A8F807461148006880473846F8BD0C48006888
:202FCC0000270C4D3C468442F3DA2968491C0AD030688047284600F093F807430648006838
:202FEC00804703480068641C1835ECE76C490020684900203847002070490020F8B5164684
:20300C000C460746104800688047FF2E01D9012006020E4D2F70380A6870AE70300AE8708A
:20302C00F22000222946134600F0B4FB2846214600F096FB287869780902081804B20448E5
:20304C00006880472046F8BD6C4900202827002070490020F8B515460C4607461048006896
:20306C008047FF2D01D9012005020E4E3770380A7070B570280AF070F320314622462B4610
:20308C0000F088FB0021304600F06AFB307871780902081804B20448006880472046F8BDBD
:2030AC006C4900202827002070490020F0B599B014460191074602AE04203070701C20257B
:2030CC0039462A4600F066FF30462130203739462A4600F05FFF17AD41222846314600F049
:2030EC0079FF13950198149015942034169413A8FEF7A8FE002801D00020C04319B0F0BDD8
:20310C0070B504460025EE430068411C18D06168626993060BD5002909D0A3688B4206D074
:20312C005A1A00F075FC00280DD4616862692161A160500605D5302082430025626100E081
:20314C003546284670BD606901218A0202433546F4E77CB513460C46064601AA02250846F3
:20316C0019462B4600F068FC002801D0E8437CBD019D202D05D3206841192039202230460C
:20318C0008E02020411B304600F098FE701B203021682A4600F0FEFE206840192060002062
:2031AC007CBD704770B50026F44300281AD40546092817D80C4800688047E8000B4A1158E7
:2031CC0000290CD015180969686888470446401C05D0286841890122914341812E60044838
:2031EC0000688047204670BD6C4900200449002070490020FEB50025EC4343787F2B18D191
:20320C000195029440684518AC180B4FA5420FD23E680020386009480268094829469047DB
:20322C003E600121C9026D180006EFD0029C00E0019C2046FEBDC046244402405800000F5A
:20324C008FA0E3B7F0B503460026F0430E4D371D102F17D0AC5926789E423E46F7D16378D3
:20326C007F2B0FD109486368A4682418E40A2546002D05D0461C48C29B196D1E0032F7E73E
:20328C000C600020F0BDC04678430000FF070000F8B50E4605460024204600F0D2FDC0B21B
:2032AC00694600F079FB002801D0E043F8BD009800F07CFD0746009800F091F92C207043BF
:2032CC0028182146042C03D0425C4C1CBA42F8D00020042900D2C043F8BDF0B513681C0C4F
:2032EC0080254559AEB29BB2F618330C2D0C2C19E3181C04B5B264190C6001241B0CE5B2B9
:20330C00C66FAE420CD9AD005659370CB6B2F618330CDB191F04B6B2BE194E51641CEDE7FA
:20332C001846F0BDB0B505460D48006880470D4C2570280A6070F120002521462A462B46D4
:20334C0000F028FA2046294600F00AFA207861780902081804B20448006880472046B0BDE6
:20336C006C4900202827002070490020B0B504460D48006880470023E05C5B1C0028FBD127
:20338C000A4DF5202946224600F004FA0021284600F0E6F9287869780902081804B20448E4
:2033AC00006880472046B0BD6C4900202827002070490020F8B516460C46054600F04FFD00
:2033CC000746204600F04BFD3818263000F07CFD002807D00746009606492A46234600F0ED
:2033EC0037F900E0024F384600F036FCF8BDC0463C4300006B410000FEB500AC0EC4002485
:20340C002146A6B2C76FB74216D9B600019A97593D0C029A93591A0C9BB2BFB289B2791801
:20342C00CB18190C52195218110C12049BB2D218009B9A51641CE4E788B2FEBD1CB50A0098
:20344C0017D000230124E407A04200D20400944201D95200FBE790425B41904200D3801AFD
:20346C00914201D25208F6E719000200080011001CBD01000020FFF70AFB1CBDFEB5164652
:20348C0002910446002507460195022D0AD0204629463A46334600F097F9002804D16D1C5E
:2034AC002C37F2E70198FEBD029A002A014600D11146002D00D00846FEBD70B50023DC43CE
:2034CC0055091F231340EAB292008958D940802545592646AE40B143ED18212D09D3006C99
:2034EC0010184068203DAC40A0432022D21A90404118C8B270BDFEE770B50A480A4C84424E
:20350C000CD00A4D0A4EB54208D02A686968501C12789200A25890470835F4E700BF00BFF3
:20352C0070BDC04670440000644400007844000088440000FCB4020C0B0CFF242402FF3417
:20354C00204021400C00444315005D4306005E430F005743320C3B0CA818C01832043B0474
:20356C000025A1186841C9186841FCBC704770B508CAC46F641CA34200D323460C461D463F
:20358C00002D03D040CA40C46D1EF9E79A0089181A46C46F641CA24203D2002410C1521C3C
:2035AC00F7E7184670BD70B50C460546012611462246334600F0D9FA00280ED40122284617
:2035CC00214600F07CF9002801D0032003E02078012800D0022020700026304670BD704751
:2035EC0070B5014602780020002A11D0094B1A4628321C467834A2420AD00024155D0E5DD3
:20360C00002D02D0641CB542F8D0B542F0D1104670BDC04628480020F8B5447800257F2C56
:20362C000ED14068441807480768056006480668064811462246B04702490F60002800D006
:20364C00E843F8BD244402406000000F8FA0E3B782B0F8B5069207930291019006A9039124
:20366C0007480090074B02A801AAFDF79FFC019900220A7004B080BC02BC02B00847C0463E
:20368C007D3C00003B3F0000F0B5136880240459E443DD430023651B1C465C410D6001254E
:2036AC00EEB2C76FB74209D9B6009759E7191C465C417F1E5C418F516D1CF1E7E043F0BD5D
:2036CC00BCB50D460446012040020190012901D0502000E02420225801A92846FFF7B2FD16
:2036EC00002800D0BCBD012D01D0542100E02821019A6250BCBDFEE7F8B50D460446C06F8C
:20370C00421C8027E251616D074E2846B047E25990002D18A16D2846B047E259900028184F
:20372C00E16DB047F8BDC046F93D000070B50A4C2046FFF7ADF91834084D286801268642AA
:20374C0009DA2168002903D42046FFF7A1F92868761C1834F3E770BD384700206849002016
:20376C00B0B50B4A13680024082C04D015192D790555641CF8E7002909D00C32002B06D00E
:20378C0010784C1C08705B1E521C2146F6E7B0BD0024002070B50B4C2360207100200828F9
:2037AC0004D00D5C26187571401CF8E70D34002B06D0501C117821705B1E641C0246F6E77B
:2037CC0000BF70BD00240020BCB51446002000F038FBC0B201A900F0DFF80546002809D16F
:2037EC00019800212023224600F0BFF905460198FFF7F5FE681E85412846BCBD0446094815
:20380C0000688047084D6968002901D0204688472868002800D0804704480068804700F05E
:20382C00DFFBC0466C4900205449002070490020F8B514460091012787400026074D009898
:20384C00864209D22F60204600F060FA2F61204600F05CFA761CF2E7F8BDC0461032024094
:20386C00B0B515460446032300F0E6F8002800D0B0BD6720C04329680029F9D0491E2960DC
:20388C0021680A78002AF3D1481C20600020B0BD70B51F300022202A10D0C31E841E2478D3
:2038AC00451E2D7806781B781B062404E3182C021B199B198B50121D001FECE770BDB0B5FB
:2038CC000D4601460020002D0FD01446002A0CD0084600F06BFA014660426041002C04D089
:2038EC002A78641E6D1C8A42F6D0B0BD06484178032900D880300078FD2804D30348044949
:20390C0001600449416070472F03004E18110040E3887F09E3387F491CB5019007480068BD
:20392C00804701A8FFF70CFA016A01988847044603480068804720461CBDC0466C4900205E
:20394C0070490020B0B5044601252946FFF7B8FE00280AD102212046FFF7B2FE002804D163
:20396C00206A00F0EFF9E06500252846B0BD1CB50C46C0B201A900F00FF8002801D0012440
:20398C0007E001982146FEF761FD04460198FFF726FE20461CBDFEE770B50022074B1446CD
:2039AC00251D102D07D01E59347884422C46F7D10E60002070BDD04370BDC04678430000C6
:2039CC00B0B5016801229143064B1C68002C06D0256895438D4202D208342346F5E78460D2
:2039EC001860B0BD30270020B0B503460020C043002B0AD4092B08D8DB00044CE558002DDC
:203A0C0003D0ED69E0184068A847B0BD04490020B0B503460020C043002B0AD4092B08D81A
:203A2C00DB00044CE558002D03D0AD69E0184068A847B0BD0449002070B504466120C043A0
:203A4C0025684E1B012E08DB2E789E4204D1681C20602046FEF704FE70BD801C70BD0000A0
:203A6C0030B514004C4325001C0044436419050010002900FFF75EFD001904000D00210093
:203A8C00280030BD074880F3088800BF00BF00F0A5FA002801D0FFF72FFD00F075F801200D
:203AAC00FFF7ACFE00900020B0B504460020002B08D0D2B20D782570954204D0641C491CAA
:203ACC005B1EF7D1B0BD601CB0BDB0B504C9002303604360531C083001249C4203D220C980
:203AEC00641C20C0F9E71046B0BD0000B0B504460548051D6021284600F0E0F9284621460C
:203B0C00FDF70EF9B0BDC046A048002010B5002A0AD003780C78A34204D1491C401C521E70
:203B2C00F7D11C46181B10BD002010BDA06AE16FCA0010188A0080182278921E089B934034
:203B4C005B1D4A1C534399007047000018B520239B1A04D8010000205B42994004E0040075
:203B6C009140DC402143904018BDB0B5457800247F2D06D14068411810461A4600F00AFACF
:203B8C0000E0E4432046B0BD80B50020044A002A014601D001CA1146FEF7B8FF80BDC04649
:203BAC00F4430000054A1368002B06D011461A4608328342F7D180680860704730270020FB
:203BCC0005480168012293030B4303600168D2030A4302607047C04600350240B0B5002310
:203BEC00002A05D010C820C965402B43521EF7E758425841B0BD10B5C36F08C10024C36FE2
:203C0C009C4203D208CA641C08C1F8E7184610BD80B50146024802680248904780BDC0462C
:203C2C008000000FC026002080B50348026803480021904780BDC0467800000FC0260020E6
:203C4C0080B50A460146024803680248984780BD7C00000FC0260020044C30342146FDF7D1
:203C6C00F5FF2046FFF79AF900F0BAF938470020B0B514460D460146286800F08BF9286826
:203C8C00001928602046B0BD80B5002904D00A4602490B680021984780BDC046EC430000F2
:203CAC0010B503780C78A34204D1491C401C521EF7D11C46181B10BD10B504C91346002B09
:203CCC0003D010C910C05B1EF9E7104610BD04C10122C36F5B1C9A4203D2002308C1521C44
:203CEC00F7E770470022002903D008C81A43491EF9E750425041704740B584B002AE009648
:203D0C00FEF758FD029A039B04B040BD03494143002902D000BF491EFAE77047AA0F000020
:203D2C00A06AE16FCA0010188A0080184A1CD1007047A06F029989004258D243425002980D
:203D4C00401C704740787F2802D00020C04370470120C00270474A1C0978431C01700029BF
:203D6C0018461146F7D1704710B500239A4203D0CC5CC4545B1CF9E710BD80B50B4603215E
:203D8C004258C11D184600F005F980BDA26FE06F8000295882185268002A704780B5826861
:203DAC00183A07239A43FFF7FEFB80BD40787F38022801D300207047FF20704701208003B4
:203DCC00014908607047C04610320240EFF3108072B6FFF78BFDFFF755FEFEE780B50A4619
:203DEC0003214158104600F069F880BD002A03D008C908C0521EF9E770470122D2431140F0
:203E0C000830104040187047206FE16DCA19A36FE16F0091704738463268910078186D1CD3
:203E2C0027787047002903D0002204C0491EF9E7704700000B4611461A4680B500F01DF8FE
:203E4C0080BD032902D30020C0437047481C70470021425C491C002AFBD1481E70470021CB
:203E6C00425C491C002AFBD1481E70470021425C491C002AFBD1481E704700239A4202D018
:203E8C00C1545B1CFAE770474019001F00685242002331E7A26F0832204629462B46FFE7CC
:203EAC0082B00094014C019410BD00BF89290000A16EA36FE26F00920A4628470A460021DC
:203ECC0080B5FFF7DAFF80BD80B501460820FDF70BFD80BD801C61412A463B46C0E5E16C97
:203EEC00A36FE66F00962847A36FE26F00920A4670479259A36FE76F0097704705460F460D
:203F0C00029A3346ACE5E16E0690079108907047A36FE26F00920A463047A36FE16F009174
:203F2C00314638479259A36FE56F009570470A68531C0B6010707047806828380721884324
:203F4C007047016881F3088841688F46A36FE56F00953047012220462946B8E6A36FE66F44
:203F6C000096FFE782B00094014C019410BD00BFE1080000204629462A46FFE782B00094AB
:203F8C00014C019410BD00BFE7320000802280580860704780B5FFF7E7FE80BD80B5FFF77D
:203FAC00B5FD80BD80B5FFF7C7FF80BD80B5FEF791FE80BD80B5FFF7AFFC80BDA36F009528
:203FCC0000E0000082B00094014C019410BD00BF3D07000006C07047006870470120704709
:043FEC0000BFFEE72D
:203FF000000102030400010203040001020304000102030400010203040001020304000174
:20401000020304000102030400010203040001020304000102030400010203040101010151
:20403000010202020202030303030304040404040000010203000001020300000102030030
:20405000000102030001020304000102030400010203040001020304433A2F74695F736463
:204070006B5F312F73696D706C656C696E6B5F6C6F77706F7765725F66335F73646B5F38C0
:204090005F34305F30305F33355F656E672F736F757263652F74686972645F706172747995
:2040B0002F6D6375626F6F742F626F6F742F626F6F747574696C2F7372632F6C6F61646599
:2040D000722E63003059301306072A8648CE3D020106082A8648CE3D030107034200042A5F
:2040F000CB403CE8FEED5BA44995A1A91DAEE8DBBE1937CD14FB2F245737E5953988D9946E
:20411000B9D65AEBD7CDD5308AD6FE48B24A6A810EE5F07D8B6834CC3A6AFC538EFAC100F6
:2041300000000000010101010102020202020202020202030303030303030303030405042B
:20415000040404050404040405040404040504040400000000000101010101417373657205
:2041700074696F6E206661696C65642C20282573292C2066696C652025732C206C696E6523
:204190002025640A0030000008000000FCFFFFFFFFFFFFFFFFFFFFFF000000000000000033
:2041B0000000000001000000FFFFFFFFFCFFFFFFFFFFFFFFFFFFFFFF0300000000000000FE
:2041D0000000000004000000FCFFFFFF00000000080000004B60D2273E3CCE3BF6B053CCDE
:2041F000B0061D65BC86987655BDEBB3E7933AAAD835C65ADFBDC42962DF9CD890308478F2
:20421000CD05F0ACD62E21F7AB20A2E5344887041D0630DC000000000800000096C298D8AC
:204230004539A1F4A033EB2D817D0377F240A463E5E6BCF847422CE1F2D1176B080000005D
:20425000F551BF376840B6CBCE5E316B5733CE2B169E0F7C4AEBE78E9B7F1AFEE242E34F2D
:204270000300000000000000FFFFFFFFFBFFFFFFFEFFFFFFFFFFFFFFFDFFFFFF0400000042
:204290000000000008000000512563FCC2CAB9F3849E17A7ADFAE6BCFFFFFFFFFFFFFFFFD8
:2042B00000000000FFFFFFFF08000000FFFFFFFFFFFFFFFFFFFFFFFF0000000000000000F6
:2042D0000000000001000000FFFFFFFF0001000100010001000100010000010100010001C7
:2042F00000010001010101010000000000000000000000000000000002030405000000009A
:20431000000101000000000000000000000000000000000000010001000001010001000185
:204330000001000100010001000100016D616C6C6F63206661696C656420696E206173730C
:204350006572740004010403040204010401040301030304010430313233343536373839C2
:20437000616263646566000098430000A4430000B04300000000000077C295F360D2EF7FC2
:204390003552500F2CB67980007F00000000000000600000017F00000060000000B00300DA
:2043B000027F00000010040000B003002A8648CE3D03010700000000D4400000F043000050
:2043D0002A8648CE3D0201007263203D3D203000030301020303000001000000873E000033
:0443F0005B0000006E
:0843F4000000000000000000C1
:2043FC00005500000F0112014001018F012202C01502030F01240440FF000004BF02017F9D
:20441C007EFE0EF70200492F000031FF3300000930000061BE0030092C00007900F0753C4B
:20443C000070001FA2012848002000751BF1A000F11AFF020DDF1E1DB120F5032300AF05AA
:20445C0031003300FFF00000912B0000873D0000E93D00000200000034270000FC430000AB
:0C447C00384700207044000000000020C1
:020000044E02AA
:20000000FFFFFFFF000000000000000000000000FFFFFFFFFFFFFFFFAAAAAAAA0000000044
:20002000FFFFFFFFFFFFFFFF00000000FFFFFFFF00000000000000F00000000000000000DC
:200040000000000000000000000000000000000000000000000000000000000000000000A0
:20006000000000000000000000000000000000000000000000000000000000000000000080
:20008000000000000000000000000000000000000000000000000000000000000000000060
:2000A000000000000000000000000000000000000000000000000000000000000000000040
:2007C000000000000000000000000000000000005AA500000101020305080D156DD7E43686
:2007E000EBF431DF95AE15EE03BA8EE4C4C63FD8453F675E74D7C2012C9058E500000000A4
:00000001FF
