:02000004000AF0
:20E0000000400220F9F00A00EBF00A00B7EA0A00AFEF0A00AFEF0A00AFEF0A000000000023
:20E02000000000000000000000000000AFEF0A00AFEF0A0000000000AFEF0A00AFEF0A0040
:20E04000AFEF0A00AFEF0A00AFEF0A00AFEF0A00AFEF0A00AFEF0A00AFEF0A00AFEF0A0080
:20E06000AFEF0A00AFEF0A00AFEF0A00AFEF0A00AFEF0A00AFEF0A00AFEF0A00AFEF0A0060
:20E08000AFEF0A00AFEF0A00AFEF0A00AFEF0A00AFEF0A00AFEF0A00AFEF0A00AFEF0A0040
:20E0A000AFEF0A00AFEF0A00AFEF0A00AFEF0A00AFEF0A00AFEF0A00AFEF0A00AFEF0A0020
:18E0C000AFEF0A00AFEF0A00AFEF0A00AFEF0A00AFEF0A00AFEF0A0058
:20E0D8002DE9F04F9DB0A5484FF47051DFF890B2006801EA8020CBF8000000F03BFC044655
:20E0F800002800F0EF8005AD10AE4FF000085FFA88F008212A46000300F006FD284600F00C
:20E118006BFF60B9284600F057FF002840F09E8008F101085FFA88F05828E8D396E04FFA6D
:20E1380088FABAF1000F00F191804FEA0A3734213246384600F0E8FC9DF85000FE2840F0B5
:20E1580082809DF84C0003287DD19DF84D00012879D19DF85100FC2875D01698DDF86C9028
:20E178004844B0F5801F6ED8FC202C212A468DF81300484600F0C8FC0B99484600F000FE9E
:20E19800024601305FD00C9890425CD30B991144884258D80E980292801A411C48460B91CC
:20E1B80000F04AFB039047F0100001210DF1130200F08EFB0398002845D10020DBF80010AE
:20E1D8000B9B002200900298C0F3473000F0CAF80799884223D102980121470BFE208DF84A
:20E1F80013004FEA4A300DF1130A1130524600F06FFBF8B211215246012300F0A3FD9DF836
:20E218002600072815D8012101FA00F010F08B0F0FD000F03DFE0C9800F067FF09E0FC20F4
:20E2380001210DF113028DF8130009F1110000F04FFBFC2001210DF113028DF8130009F1D1
:20E25800100000F045FB08F1010850E700F020FE002510AE012728463146082200F089FE8E
:20E27800304600F0A9FE40B3284631462C2200F080FE9DF8520007281FD807FA00F010F0E7
:20E298008A0F1AD01699481C022816D3B1F5302F13D81798A84210D3294488420DD89DF8A0
:20E2B8004C10032909D19DF84D10012905D19DF85110FE2901D300F018FF05F50055B5F501
:20E2D800302FC8D100F046FBE0B310AA0020342100F01AFC9DF85100FE2833D116991B9EBD
:20E2F8008819B0F5801F2DD8304600F049FD0546013027D01798A84224D316994A19904289
:20E3180020D830462A4600F097FAC8B90020DBF80010169B00220090C5F3473000F022F866
:20E33800129988420CD1680BFE2101238DF81410C0B205AA112100F005FD179800F0D5FE5D
:20E3580000F0A6FD2CB100F083FE00201DB0BDE8F08F00F051FC00F0BDFEFEE7302403404F
:20E37800000400202DE9F04F8BB08246581C022803D200200BB0BDE8F08F14981E460C4635
:20E39800B3F5801F01D90028F3D1B6F5302F01D90028EED0069238B14E4A504600214FF47B
:20E3B800807300F0BFFD06E04A480AFB04F14FF4807200F058FE701E0123464F4FF0FF39FB
:20E3D800B0FBF4F101FB1400013082B2C5B2100A002D18BF03EB1220019008BF4FF48075DB
:20E3F8000595029401EB0A005146C0B208900898CEB286426AD8019A4FF0FF3018BF220A08
:20E4180050FA82F0099207910A9006FB04F0002400F580700490481C039009985FFA84FB59
:20E43800C0B283454FD20898B046554686424FF48076059808BF06460A9858454FF4807015
:20E4580018BF0646079880EA0A004FF0000A20430006069808BF00F10C0A1FFA8AF08642F5
:20E478000AD9385C5FFA89F1484000F095FD80EA19290AF1010AF0E7149858B10A985845B3
:20E4980013D1039800213A464FF48073C0B200F049FD07E004984FF4807200EB0B21384619
:20E4B80000F0E1FDAA4646460BE04FF480703A464FF48073464600EB0B21404600F032FDDE
:20E4D800AA460134A9E7DDE9024190E76FEA090050E700BF000300202DE9F04740F21009DC
:20E4F800C4F209091546D9F800200C469107804642BFFD20C4F20000C9F80C0044F20C005D
:20E5180042F22C0AC4F209000021C4F2090A40F2B8170160C1F20007DAF80000386842F20E
:20E538000C0681692720C4F208068847306B4FF6FF71CFF6FE6108403063B06F20F480707B
:20E55800B0673868016B4FF4806088473868016B4FF4816088473868016B4FF4C060884751
:20E5780042F22800C6F2080001210160C6F880413160D9F80000800705D4681C08BF4FF019
:20E598004045C9F80C50DAF8000000BFF0698007FCD500BF072000F053FB0228FAD1B8F1BD
:20E5B800000F16D144F20004C4F20304386A8168204688470428F9D0012804D1386A0321DD
:20E5D800426820469047D6F8180220F00300C6F818023868806BBDE8F047004770B541F263
:20E5F8001C30C5F20000066840F2B014C1F2000400F0ACFC40F28440C4F260200025056097
:20E61800206C806C804740F28010C4F22830006850B140F28051C4F22031B6F1FF30096819
:20E6380018BF304600F04CF842F28C11C4F208010D6042F24801C4F203010A6840F239131D
:20E65800282063F31B42C4F209000A60016801F44051B1F5805F09D101684FF6EF72CFF65C
:20E67800FC42114001F50032026001600025C4F224350126EE612068016A1420884742F234
:20E698000000C4F20900016841F4E021016044F6B4702E60C5F20000006800F44000B0F5BF
:20E6B800000F06D1206C416C43F2BD70C0F2860088470C20C4F2682001680029FCD170BDC4
:20E6D800F0B581B044F6AC71C5F200014A6846F2092605469007C4F2080605D40868F02223
:20E6F80042EA104086F84D004AF20440C4F20C004FF0012202604AF2000040F2F017C4F28A
:20E718000C00C1F2000700888C68386801682046884704F04070B0F1807F03D1307840F071
:20E73800020030703868214642682846904741F20C40C5F2000000684BF20E02C0F3053155
:20E75800C4F20C021170C1054FF0130158BF232140237354382101EA901000F56050A2F89B
:20E778005C003868816820468847022000F020FA40F29440C4F260200121016001B0F0BD1E
:20E798002DE9FF41274E054688463068416906208847062000F076FA0128FAD13068C1690A
:20E7B8004FF4A0608847204C204F0120206038688007FCD53068C1694FF4807088470120D6
:20E7D800206038688007FCD5194F1A4900220023386920F00F0038610320F861F068046800
:20E7F8000820CDE900504FF08040A04756F8040C082109224FF0FF33446C4FF08040CDF856
:20E818000080A047386840F00200386003ACF068214602694FF0804090470028F7D1BDE8CB
:20E83800FF8100BFB8010010282008602820084004000040006CDC022DE9F043C1B0814669
:20E8580090070DD188180D461446411E1F480068B1FBF0F1B2FBF0F68E4298BF582904D90B
:20E87800FF2040B241B0BDE8F083B5FBF0F101FB1050002818BF0131C8B250FA86F7F0B265
:20E89800874205D900F0EAFA0136FF28F7D1E7E74FF480760DF10408B5B1B0B24246854297
:20E8B80038BF2E46B7B24846394600F02DF90028D6D0204641463A4600F026FA0028CFD136
:20E8D800ED1B3C44B944E7E70020CAE7000400202DE9F84F06461E4814460D464FF00209D2
:20E8F8004FF0000AE84683467DB300F0D9F848BB00F002FB30BB300A8DF800908DF80360BD
:20E918008DF80200300C8DF80100F0B28BF800A0C0F580774046BD4238BF2F46042100F01F
:20E9380083FA60B92046394600F07EFA38B90121ED1B3E4458463C448BF80010D4E70120B2
:20E958008BF800000020BDE8F88F0120BDE8F88F14200240BCB518480A21FFF711FF1748AC
:20E978000068C16B14208847154C0125AB20012125708DF80700002020700DF1070000F0AE
:20E9980053FA257088B94FF4C870ADF80400BDF80400BDF8040028B1BDF804000138ADF836
:20E9B8000400F6E700F07CF818B100F071FA0020BCBD00F007F8BCBD00093D00B4010010CA
:20E9D80014200240BCB51648164D042101900020287001A800F028FA10B10120287007E0ED
:20E9F800114C0221204600F06FF90121297008B10020BCBD0D4B2278647803F12001186851
:20EA180040B11D79AA4202D15D79AC4201D00833F5E71946064A0028116018BF0120BCBD33
:20EA380090FFFF00142002400404002018F10A0008040020F0B540F6FF7C10F8013B002495
:20EA5800082CFAD00646DF0716F8015B0AD1467806F00F070337122F0AD187783A0609D4ED
:20EA780003300DE001F8015B304601345B08E7E7023006E0C27807F07F07043047EAC21720
:20EA98001237320942EA0515654508BFF0BDED43002FEAD04A5D013F0A700131F8E7FEE706
:20EAB8002DE9F843174E05204FF000088DF8030086F8008000F0BEFA4FF001090DF10304A0
:20EAD8000DF10205022786F800902046012186F8008000F0A9F92846012100F0F5F886F8DF
:20EAF800009000284FF001009DF8021008BF27EA41000028E9D002280CBF00206FF00100F0
:20EB1800BDE8F883142002407CB515460C460646FFF7C6FF0146002001B17CBD03218DF867
:20EB380007608DF80410310A8DF80610310C0B4E8DF805100421307001A800F075F918B122
:20EB58000120307000207CBD2846214600F0BCF8B0FA80F00121400931707CBD1420024035
:20EB780070B5104C2068016A4FF4807088470E4E0E4D0120306028688007FCD52068016AC4
:20EB98004FF4A06088470120306028688007FCD52068816906208847062000F073F80228A0
:20EBB800FAD170BDB8010010282008602820084080B546F200014FF2501E4FF2541CC4F2B8
:20EBD8000C01C0F20A0EC0F20A0C00BF0B6800BF4A689342FCD1834208BF80BD1EF8032037
:20EBF8001EF800309A424FF0FF3338BF01231A441CF802200A60E9E710B50D4C2068416931
:20EC180004208847042000F03DF80128FAD12068C1694FF4A06088470648012101600648C9
:20EC380001688907FCD5054801210160416010BDB80100102820086028200840181A4442F3
:20EC580042F24011C4F208010A68496DC30701D1002106E002F0010301F00401C91818BFE9
:20EC78000121830744BF02F0020341EA5301400744BF02F0040041EA90010220002918BF39
:20EC98000120704742F24011C4F208010A68496DC30701D1012106E002F0010301F0040188
:20ECB800C91818BF0121830744BF02F0020301EA5301400744BF02F0040001EA90010220C1
:20ECD800002918BF01207047F8B50E4F0C4605466E468CB13868002182684FF0804090472B
:20ECF80060B138683146C2684FF0804090470098013C05F8010BECE70020F8BD4FF0FF30E0
:20ED1800F8BD00BFC4010010F8B514460D46064600F052F8074628463146224600F06CF9C3
:20ED380004462FB1054801210068426804489047002C18BFFF242046F8BD00BFD801001004
:20ED580000400340F8B51C46154601EB403600F033F8074628463146224600F04DF9044617
:20ED78002FB1054801210068426804489047002C18BFFF242046F8BDD8010010004003404A
:20ED9800FEB50C4605462C276E4678190C213246FFF7BAFE58B19DF8000001280AD00199E5
:20EDB8004FF0FF3011B10F44A742EED3FEBD4FF0FF30FEBD0298FEBD70B50B4E0B4C306868
:20EDD800816820468847054600060AD0306800214268204690473068816820468847002854
:20EDF800F9D1E8B270BD00BFD80100100040034070B50948094C84420BD0094D094EB5422F
:20EE180007D0F5E8020110F8012B54F822209047F5E700BF00BF70BD64F10A0058F10A0051
:20EE380074F10A0084F10A00F8B50B4F0C4605466E4674B1386815F8011B42684FF08040DD
:20EE5800904738683146C2684FF080409047013CEFE70020F8BD00BFC4010010B0B5044681
:20EE7800FFF7AAFF0546600300F0D5F804462DB1054801210068426804489047E0B20028EA
:20EE980018BFFF20B0BD00BFD8010010004003407CB5B9200A4D0024012101268DF8070072
:20EEB8000DF107002C70FFF7BFFF2E70092C04D80134FFF787FD0028F8D1FFF751FE7CBD18
:20EED800142002400A4880F308880A48016841F47001016000BF00BF00F00CF908B1FFF76B
:20EEF80087FF0020FFF7ECF8012000F005F900BF0040022088ED00E0BCB50620084C0121E8
:20EF180001258DF80700002020700DF10700FFF78BFF2570002818BF6FF00200BCBD00BFC5
:20EF38001420024070B51C46154601EB403600F0B6F8210405D016F8011B013C05F8011BE7
:20EF5800F7E708B900F0BFF8002070BD41F21830C5F2000000684FF20001C0F6FF710840BC
:20EF780047F20001C0F6B731884208BF704700BFFEE770B514460D46064600F090F82CB142
:20EF980016F8011B013C05F8011BF8E708B900F09AF8002070BDFEE710B5064A08210B0636
:20EFB80008BF10BD82EA5003C40708BF430801391846F4E72083B8EDB0B5064907231A4610
:20EFD800002B04D48C5C855C531EA542F7D0D00FB0BD00BF48F10A00B0B5064907231A46A2
:20EFF800002B04D48C5C855C531EA542F7D0D00FB0BD00BF40F10A0080B540F2A813C1F2F3
:20F0180000031B689B69984740F28441C4F2602100220A6080BD80B540F2A811C1F20001A4
:20F0380009684969884740F28441C4F2602100220A6080BDBCB5054D01AC286821460269FD
:20F058004FF0804090470028F7D1BCBDC401001080B500F032F8002000214FF0FF32BDE8DF
:20F078008040FFF739BA10B530B1431E01391AB18C5C9C54013AFAE710BD10B500239A423E
:20F0980008BF10BDCC5CC4540133F8E7D0F80300002218B101F8012B0138FAE7704780B590
:20F0B80000F00BF8002818BF012080BD0B46D0F80320C11D184600F021B80020EFF3108015
:20F0D80072B6704770470020EFF3108062B670477047FEE70148012101707047062002408A
:20F0F800FFF77CFAFFF7EEBEFEE7016881F30888406800470120704700BFFEE7FFF7BDBFBB
:20F1180000002000C215000000001000C214000000000800EF12000000000400EF110000ED
:20F1380000000000000000004F4144204E564D31434332367832523101020003020001037A
:20F158004DEA0A00C5F00A00A5F00A0002000000060100000001000000FFF00064F10A00A0
:0CF17800000300206CF10A0008040020D5
:20FFA80000008001100080FFFDFF5800FFFFBBF3FFFFFFFFFFFFFFFFFFFFFFFFFFFFFFFF39
:20FFC800FFFFFFFFFFFFFFFFFFFFFFFFFFFFFFFFFFFFFF00FFFFFFFF00FFFFFF00C5C5FFAA
:18FFE800000000FF00E00A00FFFFFFFFFFFFFFFFFFFFFFFFFFFFFFFF28
:00000001FF
