:200000000090002049380000933700005B310000EB340000EB340000EB340000EB340000DD
:20002000EB340000EB340000EB340000EB340000EB340000EB340000EB340000EB340000C8
:20004000EB340000EB340000EB340000EB340000EB340000EB340000EB340000EB340000A8
:20006000EB340000EB340000EB340000EB340000EB340000EB340000EB340000EB34000088
:0C008000EB340000EB340000EB34000017
:20008C00F0B589B00446016CC26A03F044F8E16F4A1C904201D935269BE1002813D0206C94
:2000AC008A0087180837891C384603F0EBFBA168384603F03DFB002807D0E56F691C88427C
:2000CC0005D9C62685E1532683E16C2681E123786626022B00D27CE1052B00D979E1216CA0
:2000EC000A6801263240032B334600D300235A4080230893E2500790E06720463A460B462D
:20010C0002F082FA20784000001F3146814008982150216C20460A4603F052F8E567E16C0C
:20012C002046324603F00FFB626EA06EE16CA36FE56F0095A84DA847A26EE06E03F007FC7A
:20014C00A06EE26E03F003FC216F226B204602F0E2FFE56FA84201D93C263AE100280ED052
:20016C00606CE26E216F03F061FC216F626B204602F0D1FFE56FA84203D9652629E1C3265A
:20018C0027E1064600280ED0A06C216FA26E03F04DFCE16EE268204602F0BDFFE56FAE4220
:2001AC0003D95C2615E1562613E126468036A26EE16E206F03F03AFCE26C206D216FA36FB9
:2001CC00E56F009500F0B4FAE06F421C06963260666D00252778B81E0123194681408D4231
:2001EC0009DA616C304603F031FB06980268900036186D1CEEE70893A06D0025069EBB1E20
:20020C00089999408D4206DAA16C074603F01EFB03F031FBF3E7E06D0025BB1E0899994085
:20022C008D4206DAE16C074603F010FB03F023FBF3E7216C08788007C30F07984001401CDE
:20024C000026049607960396089A019090426BD90593801AB842069B00D338461860204657
:20026C00089202F0FFFE07994118C8B27A1E01252B4693409842029500DA00252A46BA409A
:20028C00984200DB4842059B0799C9B207911018DBB205935349C95C049AD7B29E00524A51
:2002AC0092197B00D218525D920051180006800D001F04229043081806990860204600F050
:2002CC009FF86800494989190918079A895C0791474989190818C05D04902778B91E45489A
:2002EC008019405C089A12181420059B5843424B1B18052041435918039E8E5D216C530933
:20030C009B00CD581F231340DD40029B1D40079B5D4045430A20059B5843384B181840192D
:20032C000396835D019891E70798C0B2012811D10498C0B28000C01C069E3060274D204693
:20034C00A847012030602046A847022030602046A84727789926032F3BD30020C04307903D
:20036C00B91E012008908840FE30069DC7B208982860002F11D07A1C2046394601F022F910
:20038C00089828602078801E07998140C94320463A4601F017F9781EE8E72078801E079F5E
:2003AC0039468140CA430021059120460C4B9847089828602078801E8740FA432046059F25
:2003CC003946074B9847089A2A6020463946044B9847304609B0F0BD3D0700000D040000F1
:2003EC00D1150000303E00007C3D00004C3D0000943D0000643D0000603A00009F3B000075
:20040C00F0B589B0044680202158C8080D460391E26F511C4143E06DC9B28F00C019616F96
:20042C00636C06AE0BC6A807060F05A88159206EA36F0092BB4D0A46A847606E03F09BFA42
:20044C0005A88059A16CA36FE26F0092B64D0A46A847E06E216FA26C636E0692079108933E
:20046C0005A98959E26DD2190497236EE56C06920793089505AA03F08DFAAA4DA847606E7D
:20048C00E16EE26C06AB07C305A88059E26F521C03F0DCF9E06E216F06900791089005A8DA
:2004AC008059216E03F058FA9F4DA847206FA16E06900790089105A88059A16DC919226E3E
:2004CC00636E06AD0EC505A98959A26CE36C656F06930795089205AA03F05CFA914DA84764
:2004EC00606F216E06900791089005A88059A16E03F032FA8C4DA847234660330ECB0693E2
:20050C000791089205A88759E56C606F06910795089005A9895906920790089305A8825943
:20052C00A36FE06F009038467E4DA847226E606E616F06AB07C305A88559E16EA36FE06FA2
:20054C0000902846784FB847216E226DA36FE06F00902846B847E06C616E226E06AB07C329
:20056C0005A88159E06E626FA36E06AD0DC505A8805903F0F1F96B4DA847616EA06D049FAA
:20058C00C219E56E06A826C005A988590290216F226E636F06910792089305A98959E26DD0
:2005AC00D219636C06950792089305AA03F0F2F95C4DA847606EE16DC919E26E06AB07C3B8
:2005CC0005A88059E16F4A1C029903F03FF9206D03F0D1F905A88159206F226E06900792EE
:2005EC00089005A8805903F0B7F94F4DA847606E616FA26E06AB07C305A88059216EE36E14
:20060C0006920791089305A98A59A36FE16F0091464D0146A847226F216E206D06920791D9
:20062C00089005A88059636E06AD0EC505A98959636CA76E06930797089205AA03F091F9C8
:20064C00384DA847616F606D049D4019626C06910790089205A88059A26E0692079108928D
:20066C0005A98959E26E236F06920793089205AA03F077F92D4FB847606F03F07CF905A8BF
:20068C008059626C636D5B1906920793089205AA03F067F9254FB847616FA06EE26E06915D
:2006AC000790089205A88059636D5B1906930792089105A98959636E276E069207930897A1
:2006CC0005AA03F04EF9174FB847616FA06D4019A26C06910790089205A880590490A26E8A
:2006EC00042303980340E76E606E069707901B1D05ADED5806910792089505A98959226F75
:20070C00256E0690079705A8C05806920795089005A88259A36FE06F00900498034CA0472A
:20072C0009B0F0BD3D070000E108000069090000F8B444464D4656465F46F0B400B501B490
:20074C000B9B5B005B1C6C469B00E31A9D4610B46C46241D00266D46009CE36A2D1D9B008A
:20076C00EE505B00EE50E36A013B9B0098465B009946002300240025002702E03700404628
:20078C003F1A9A46A346AC46B646F01B1458C859030C80B2250CA4B21E006E4363434543E0
:2007AC0060431C041B0C00195E412C042D0C00196E4153465C4665461B18744100204541E6
:2007CC0076460437474501DCB742DADD6846001D835123462C46002504364645CCDD4E455D
:2007EC00CCDD8351009B9969083102464E4604361068009B9C6924684443A1460027002328
:20080C00002400259A46A346AC46B6464C46C859030C80B2250CA4B21E006E436343454354
:20082C0060431C041B0C00195E412C042D0C00196E4153465C4665461B1874410020454165
:20084C00D0591B18002044414541002F02D0043FD35104370437764623462C4600254745DF
:20086C00D0DD301D8742EBDD043FD351043E464500DDBDE710BC2068E36A9B46024691468B
:20088C006846012720C840C97F08B5417F4120C2013BF7D105682F430126F741FF17FE43CD
:2008AC0068463840494631400843494639406D46354029435B4604C904C0013BFBD1A546FA
:2008CC0003BC8E46F0BCA046A946B246BB46F8BC7047C046F0B444464D46564670B4814646
:2008EC00079CA246002720C940CA7F0875417F4120C0013CF7D1B8464846083354466A4654
:20090C00A400141BA54604B46A46121D5446012720C840CB7F08B5417F4120C2013CF7D19D
:20092C00424617430126F741FF17FE4348466946091D0D46384031400843494631403D40AC
:20094C002943544604C904C0013CFBD101BC854670BCA046A946B246F0BC7047F0B44446D9
:20096C004D46564670B48146079CA246012720C940CA7F08B5417F4120C0013CF7D1B8468B
:20098C004846083354466A46A400141BA54604B46A46121D5446002720C840CB7F087541F2
:2009AC007F4120C2013CF7D147460126F741FF17FE4348466946091D0D4630403940084357
:2009CC004946394035402943544604C904C0013CFBD101BC854670BCA046A946B246F0BCC1
:2009EC007047C046F0B444464D4630B4884699466C469B00E31A9D4610B46C46241D4B4667
:200A0C000832012720C940CA7F08B5417F4120C4013BF7D16A46121D0125EF41FF17FD43C5
:200A2C00414629403A4011434B4610C910C0013BFBD101BC854630BCA046A946F0BC7047FE
:200A4C00F0B591B01D46174610910446866A8168304602F07AFDE067002804D00246FF288F
:200A6C0003D928202BE16C2029E1307AC00701D1822024E1501C8300F058002839D00B97B0
:200A8C0017980E90D0000A9087190837F8183146061D0C93F018001D0F902046099101F0B6
:200AAC00F3FA2046394601F059FBA36FE06F0090304639463A46FFF70DFFE06F400180217A
:200ACC00605020460F990D9632460E463B4601F008FD0146E06F421C384602F0B7FE2046E7
:200AEC0031460E9A02F017FBE16F884203D92220E5E02320E3E0002830D00C9830180E9012
:200B0C0026468036A36F00910D980F993A46FFF70FFE2078801E0321089181400C310696A7
:200B2C00316020460D9E314600F060FC0146E06F421C304602F08AFEA36FE06F00900F98C8
:200B4C0031463A46FFF7F4FD20460E992A4602F0E2FAE16F884203D92720B0E02120AEE0C4
:200B6C00002829D0169805900E9D0C9828180790A36F0091384629460F9AFFF7D9FD02F0E8
:200B8C0021FFA36FE06F0090079839462A46FFF7CFFDE06F3E4601C6A26FE36F30460799D5
:200BAC00FFF720FF20462946059A02F0B4FAE16F884203D9112082E0722080E000287DD010
:200BCC000396079E0C9AB018801880180490A36F00910C970D9F38460E9D29460F9AFFF770
:200BEC00A7FD02F0EFFEA36FE06F0090304639462A46FFF79DFDE16F38460C9F02C0A26F34
:200C0C00E36F02903146FFF7EDFE6069A169049AA262E76220636163204600F0E7FF99288A
:200C2C004DD102F0C5FD41180C310F9802F00EFE02F0ABFC41180C31284602F007FE2046A1
:200C4C00FFF71EFA99283AD12046079902F0D4FA0D98E062109820630B98606302F0A8FDD9
:200C6C0040180C300F9902F0F1FD02F08EFC40180C30294602F0EAFD2046FFF701FA9928DC
:200C8C001DD1022006990860002520462946079A00F098FCA7630D98E063204601F098F839
:200CAC00A06BE16F02F065FD00280BD0E06BE16F02F05FFD002805D0E32000E01220C0B209
:200CCC0011B0F0BD099EA662E76FA168304602F03CFC0246E0672046314601F0D5F9781C2D
:200CEC00B9000A9A51188E190C360399E26F531C984202D220C6401CF8E70D9D2A60A26FC9
:200D0C00E36F0298FFF76EFEE06F421C2846059902F0A0FC01465A200029D0D0C043CEE7F0
:200D2C00F0B5FFB08CB0049315460646909801908A913468204602F0C2FD221800218991DD
:200D4C000292944244D20022859285A803920273641C0F46601E0078002834D0252806D07D
:200D6C0034602946049A90477F1C641CF2E70398C3438997601C03903060207885A908735A
:200D8C00732809D18AA989AA28461C46049B00F021F82346899911E005AC85A98AAA2046FF
:200DAC00009300F035F8024620462946019B9847009B411C194600D0C1198991029A039C89
:200DCC00481CBED100E03B4618467FB00CB0F0BD0B46F9E7F8B504460868051D0D60066828
:200DEC00002E11D0009414461D46304602F067FD07462068C01920600024BC4207DA305DFD
:200E0C000099A847641CF8E7002021469847F8BDF0B585B001920E4604467F20800025185D
:200E2C0000270397FF210291FE312022204602F031FD04956F70307B252852D06A1C782883
:200E4C0014D0642812D06F2810D06328029B20D1019E3068011D31600068C1B24F424F41C2
:200E6C001946FC3161180491287012E003A9154604AA3046019B00F03AF82A460398002826
:200E8C00029B06D00499481E2D220A702A46002700E00498111A0029254601DC611A4D1C74
:200EAC00411C5B0000262846324602F03DFB002F02D0411C067000E00146A14206D8481E16
:200ECC00611A491C202202F0E5FC2670291B2022204602F0DFFC204602F0F1FCC01905B0EF
:200EEC00F0BD00206070252020700120F7E7F8B514460D460646077B194600F014F8317B46
:200F0C00642904D1002802D50121296040426F2F01D00A2100E00821782F00D11021224683
:200F2C0000F012F8F8BD007B642805D06F2803D0782801D0702804D10868021D0A60006871
:200F4C00704700207047C046F8B514460D460646002804D12068411E2160302101700A4FCB
:200F6C00002E0DD03046294600F010F801466943711A795C2268531E236011700646EFE709
:200F8C00206802F09CFCF8BDC43D000080B5102903D0082903D1C00880BD000980BD02F0FA
:200FAC0041F880BDF0B58FB006910446864800680B906821204602F0B9FC0A94203400256C
:200FCC00834F844E022D10D0284602F06AFCC0B2214602F021FA002804D07C4839463246EF
:200FEC0001F0DCFF6D1C2C34ECE700240A9F3D46022C0DD00023384621462A4602F064F93B
:20100C00002802D1641C2C35F2E7002C00D1C8E00CA8002606803C463546022D0CD0216A77
:20102C00204601F081FE002803D00CA801214155761C6D1C2C34F0E7002E00D19DE0002079
:20104C0005900B9C0996B04200D198E00B9000203946024603461D461746022827D00CAA0C
:20106C00125C002A0AD0002D02460B4608D00A7D2B7D9A4202460B4602D804D23A462B460F
:20108C00401C2C31E7E74A7D6B7D9A4202460B46F6D8F3D38A7DCB7D1B029A18AB7DEC7D56
:2010AC002402E3189A4202460B46E7D9E8E74648046800263046394602F0FAFBC0B20DA9DB
:2010CC0002F0AAF900284DD12C2078430A990818089000242046394602F0EAFBC0B20EA9BE
:2010EC0002F09AF9002824D0089A107CC00635D40D9B0120000238490091019002940394AB
:20110C0004942046214600F06DF804460D990898089101F009FE002803D030480068844247
:20112C001DD008988268002101F0A2FE2C48046815E00E9802F071FB079404460E9802F024
:20114C003EF907980346089A042807D0115C401CA142F9D0401E03281C46C6D901240D98F6
:20116C0002F02DF91D48006884420BD00CA8C6550B98401C0A9F099E65E7032614E00B94B7
:20118C00059E11E00B94002D0DD02C2078430A9F3818006A4178069A1171406890601560B4
:2011AC0002E0064600E00A9F4C2420460C3004D0385902F004F92C3CF7E7002E0B9800D01F
:2011CC0030460FB0F0BDC0465C250020283E0000D83A0000BA090000202100206425002035
:2011EC0060250020F0B5BFB004931646469C7A480068019002F054FA002C05D0479901294F
:20120C0002DB204602F058FA4898029045980590449D307A717A09020818317B727B120209
:20122C005118B27BF37B1B029A18120451180818B17A0396F27A1202511846180027BE42FE
:20124C0012D9F41B0598844200D3059C049839462A46234602F0B7F9002808D12846214645
:20126C0002F02AFAE719EAE706A802F00DFA01F054FABE4216D80298002803D006A9202221
:20128C0002F0C0FB002700972EA8544B0399049A00F0C8FF002805D1339C049802F0BAFB61
:2012AC00844203D94C4800683FB0F0BDFD434C48006805902C4626462EA836A935AA34ABC6
:2012CC0001F012F80028EDD400D07BE034A80088222807D1002E2C46EDD4059886422C4635
:2012EC00E9DA57E001281AD010283446E3D135A800882028D6D136990EAA2023049802F0C3
:20130C0062F90028CED106A80EA9202202F07EFB35490968012788423446CCD057E035A882
:20132C000388202BBED836990EAA049802F04BF90028B7D135A8017820292C46BBD8002464
:20134C000291059884421FDAE60026488019039002F0A6F92348805903994968096802F08D
:20136C00ABF937A802F090F9029A002A0ED00EA837A90B780678B34204D1401C491C521E2D
:20138C00F7D104E0641CDCE72C4600E0002401F0C4F990E735A80388802B00D982E7369993
:2013AC000EAA049802F00FF9002800D07AE735A80388F0B2009006A820210EAA00F004FB4A
:2013CC00019077E7002F00D16CE701986CE7024800680190F9E7C0465C250020FFFF00000B
:2013EC00383E0000183E000064250020F0B589B003910546C06F082801D3052100E0042151
:20140C00032800D203212A46803208920022012307951CB2A1420BD3089D2D68641E01268F
:20142C00A640F41CA54200D31A465B1C079DF0E70146D0B2441E01270591491C8A00A140E5
:20144C008900039B5E1819460496B618B21806920290022808D3AB6F0598009006980399A2
:20146C00039AFFF765F903993846A04005900C4638B2059981420FDDAB6FE96F8800001944
:20148C00001D00912146069AFFF752F9E86F80000019041D7F1CEBE7A86F8068411E4C42E0
:2014AC004C41801E089908602846069F394602F0A5FA012001B2EA6F8A4211D9AA6F890044
:2014CC008A189268E3B2012B07D10023002A02D0521E1C4601E00124DA437A50401CE9E7C1
:2014EC00521C0498039902F0B1F9A96FE86F820051184A680021002A02D05208491CFAE7D5
:20150C0040014318223B0498044618B200284FD49AB25009800038581F211940C840C007AE
:20152C001F4638D005970898029901602846069901F080FA049000252746E8B208990968B0
:20154C0081420CD90798836FC06F0090304639463A46FFF7EDF86D1C34463E46ECE7049841
:20156C00401E81B2C90B4018400880B2079DAB6FE96F4A1C42439000039A121800913046C9
:20158C003946FFF7D5F808980088059B1B1A30463E46069FB8E7AB6FE86F009030462146E4
:2015AC002246FFF7C5F87B1E30462646069FABE7E86F421C039D2846214602F047F9284688
:2015CC0009B0F0BDFEB515460446C26F571C8023C358022B08D0012B0AD0002B15D1656CF2
:2015EC00A06C0190E06C0EE0B8002B18019309E07D43636DA66DE06D0290A8001D183318E6
:20160C000193029B1818029002E00025019502957943E06D8F00C119E06EA36F0092514E94
:20162C000A46B047206EE26EA36FE16F00912946B04702F019F90199B0473546606EE26EF2
:20164C00216FA36FE66F0096A8472E46E06EA36FE16F0091029D29462A46B047E26E206FF9
:20166C00616DC919A36FE66F00963E4EB047606DA16DC019C919A36FE26F00922A46B0473C
:20168C00616DA06DC019C919E26EA36FE66F0096344EB047606DC019216F226EA36FE66FB5
:2016AC000096314EB04702F0DFF829462D4EB047E06DC019616DC919226F02F07FF9206F08
:2016CC00A16DC919626EA36FE56F0095264DA847606DC119E06E02F053F9A06E216F02F01E
:2016EC004FF9A06DC019216EE26E02F067F9206EE16E626DD21902F061F9A06E226EA36FEC
:20170C00E16F00910146184EB047E06EA16DC919A36FE26F00920A46FFF7DCF8606DC01945
:20172C00A16EE26E02F04AF9A06E626DA16DC919D21902F043F9216F2546743529CDA26E79
:20174C000095084EB047E06E226E616E02F036F9A06DC019254674352ACDE26E0095024CA9
:20176C00A047FEBD3D07000069090000F8B515460E460446806AA067616801F0E6FE024688
:20178C00E067A16F204600F07FFCA06FE26FD100091808319000001D0A18131818182746F3
:2017AC0060370EC7E0663B4F20463246B847616E20462A46B847A16E62682046B8473046AC
:2017CC0002F042F9E16FE426884260D1284602F03BF90146E06F814259D1206E01F0C9FF1D
:2017EC00002807D0606EE16F01F0C3FF002801D0E3264CE0A36EE16E226E204600F0BCFEDF
:20180C00E126012843D1E16EE06F8000085800283DD1626EA36E204600F0AEFEE2260128B0
:20182C0035D1E06EE56FA900405800282FD1A06E216EE269A36F0095174DA847206E02F029
:20184C006FF8E06E216E226A02F0C0F8206EA26EE16EA36FE66F0096A847E06E216E626A80
:20186C0002F0B4F8616EA06EE269A36FE66F0096A847606E02F054F8606EE16EE26F01F03F
:20188C00E9FE002801D11A2000E01920C643F0B2F8BDC046233100003D070000FEB500292E
:2018AC0005D0434E0024072E03D8224603E000247BE03246083A914277D8431E08221842F7
:2018CC00074600D017460194072800D81746C81D0290072437480068804737480178002918
:2018EC0018D1072E01D8002101E031460839002903D1324900220A600AE0304A30491160D9
:20190C0000228A60072E01D8164600E0083E0E60012101700298A0430290781E7942274C4B
:20192C002568002D33D02C46083406190E40B44210D02A4610323346083B9A4201D9F619BA
:20194C00F9E72A6801239A43A218029BF3189A42E6D306E02A6801239A43029B9A42DFDB65
:20196C002646284601F05AFEA64215D0301B29680122D3431940091A0838286018402C1876
:20198C001143A1600834284601F05AFD05E00D4800688047019C08E02C462046029901F0A2
:2019AC00AFF808480068804708342046FEBDC046002000006C25002074250020982300202D
:2019CC000000002070250020F0B597B01F46164601901C983F490D68C0003F490A1808586D
:2019EC00029051680968441800F0C5FD02A816AA3023214601F060FD002804D000F06FF94B
:201A0C00284617B0F0BD02981699441802A806AA03AB214600F03DFE0028EFD107980728E3
:201A2C00ECD108982D49072201F076FE0028E5D104980828E2D105982949082201F06CFE48
:201A4C000028DBD102A816AA214601F089FC0028D4D116994129D1D102984118A142CDD163
:201A6C0001780429CAD1441C0294F519039603A816AA3023294601F01FFD002813D103989B
:201A8C0016994018A8420ED806A803A92A4601F09EF9002807D106A8203003A92A4601F006
:201AAC0096F9002808D00F4802680A4801680D469542A3D00D46A1E706AA2046019901F0F6
:201ACC0009F908490A680349096800281546EED1EEE7C0465C250020183E0000203E000006
:201AEC000C3E000064250020F0B585B00F4606460024E5433B4800688047384600F0CDFF34
:201B0C00002869D0B868F96804913B46325D641C002AFBD15A6907210A40671E042A00953F
:201B2C0001970ED10024002F4ED0186831193A461D4601F0ADFC002848D404193F1A2B463F
:201B4C00F1E7029104990D1A3C460393002C3BD0AC42274600D32F465969029A114002297E
:201B6C00049511D1002F07D00021725C0A2A06D0491C8F42F9D107E000252F4605E07218EF
:201B8C0002D04F1C012500E0002531463A4601F039FF039B9868C0199860F619E41B002D07
:201BAC00049D01D1ED1BD1D118461D4601F0E6F800280BD1A868E9680F1A696920220A437D
:201BCC006A612B463D46C1E7019D05E068690121890201436961009D0348006880472846FE
:201BEC0005B0F0BD6C25002070250020F0B587B00446806AA067616801F0A7FCE06700282E
:201C0C0004D00246FF2803D9D22066E0082064E0A16F087AC00701D1DC205EE090000B18DD
:201C2C005B68002B58D0D3005B18083304931D180835561CB0002B1803931B180693069B90
:201C4C001B1802931F1805972778BF1EBE40B600059B9F19BB190193049B23646564039B60
:201C6C00A364069BE364029B2365059B6365A765019BE3659B1906931D182E1837183B1882
:201C8C0018180590069820666566A666E766236705986067204600F0F7F9E16C204600F054
:201CAC005DFA206EE16CA36FE26F00920A46FEF711FEE06F400180216050226E656EA16E4A
:201CCC0020462B4600F00DFC0146E06F421C284601F0BCFD992000E0302007B0F0BD704718
:201CEC00F0B5FFB0FFB0D3B005460920C44331A8032101802C4932912C4933912C493491AE
:201D0C002C4935912C4936912C4937912C4938912C4939912C493A9153A93B912C305C21A5
:201D2C0001F004FE2E687068412837D130680078042833D1082028901F9016900D9004901F
:201D4C00686816A9091D214FB847A8680DA9091DB847E86804A9091DB8473068401C28AD7D
:201D6C00291DB847306821301FAE311DB84731A829463246FFF7FAFCE6280ED104A8019039
:201D8C000DA8009031A828A91FAA16ABFEF758FE0024A52802D0E44300E0093420467FB0D7
:201DAC007FB053B0F0BDC046283D0000043D0000083C0000503C0000983C0000BC3C0000F0
:201DCC00E03C00002C3C0000743C00009D330000F0B585B00446016C0B1D08460491E16F07
:201DEC004A1C91005F180397D1005918029180256251616D304EB047A16D62593846B04721
:201E0C00E16D6259029F3846B0472078801E03218140C81D6051204639463E46FFF7E6FAA7
:201E2C00606EA36FE16F0091244F31463246B847206E626E01F0A9FD226EA36FE06F0090FE
:201E4C003046039D2946B847626EA36FE06F009028460499B847A06F616801F076FBA16FDD
:201E6C00E26F204600F010F9216F0122204601F06AFCA06E226FA36FE16F00912946B84736
:201E8C00A16EA26FE36F2846FEF7ACFDA16B20462A4601F0ECFBE06E226F01F076FDE16E6C
:201EAC00A26FE36F3046FEF79DFDE16B2046324601F0DDFB05B0F0BD593800003D07000084
:201ECC00F8B5002869D00446344800688047083C33480025016801270A46BA43A04204D279
:201EEC008118083105460846F4E7861808362C4A2C4B072B01D99A18083A964200D90026F0
:201F0C00A04247D1C80745D0002D0AD029683940284600D00020002E06D100292ED1002615
:201F2C000BE0002E2AD000203178C907314600D0002100280BD00E460546284601F06EFB17
:201F4C00002E08D12868216801F087FC13E0002500292F4612D0304601F060FB002F11D077
:201F6C00286821680122D243114033681340103010404018C01828602C4608E02068012179
:201F8C00884303E02068316801F067FC2060204601F056FA044800688047F8BD6C2500200A
:201FAC00000000200020000070250020F0B585B004931646039105460024E7432E48006848
:201FCC0080472868401C04D0042E04D00498002801D13C4644E001972A1D68686F6900287D
:201FEC0002920BD0390703D5401EFFF769FF029A08208743146054609460D460039B0120F5
:20200C00002E014600D03146072297430F436F61049EFF2E00D90602002B06D0049801285D
:20202C0003D0581C029908600CE0761C304601F083FC02990860002818D0401C6860082186
:20204C000F436F618119491EA860E96028610B480068804708480068804709480949016072
:20206C00064800688047204605B0F0BD0120800207436F61019CF3E76C2500207025002075
:20208C005425002039320000F0B585B00092049003918E68C8680024B51C0746034601905A
:2020AC00674128463946324601F01AFA01F04AFC05460F4602963246019B01F011FA01F092
:2020CC0041FC05460F463246019E334601F008FA01F038FC01F04AFC01F034FC01F046FCE4
:2020EC00801C61412A463B46009F01F0F9F9039B03C3B800083BC1184968CA0F049D6A70E6
:20210C00002911D419460831002202243B46002B1ED00D68ED43EE0F6D002C1956410C50E4
:20212C005B1E091D3446F2E71946083101233A462546002A0CD00E68F643F6180E501D4379
:20214C006B1E9D41734273412B40521E091DEFE7049803998167C76705B0F0BDFEB50D4616
:20216C0004460220009002900298E16F891C884202D201F026FBF6E701222046294601F0C0
:20218C00E2FAA36F0833204629462A4600F028FF01F03BFB02D001F0AEFB014620468030BE
:2021AC0001908020215001F01DFC01F0AAFBE06F800000262E5002962F1F0299E06FC20EBE
:2021CC0012075242914221D281007918012807DB4A68401E4B881204D2184A60091FF5E7D2
:2021EC0028680004286001F010FB02D001F083FB01460198016001F0F5FB01F082FBE06F9B
:20220C0080002E500298401C0290D6E7009902910299801C814204D201F0D3FA0290E06FD4
:20222C00F6E7FEBDF0B585B00024E743002820D00E4600291DD0002A1BD005460193307AB2
:20224C00717A090208180390317B1046727B12025118B27BF37B1B029A1812045118039AD7
:20226C00891804AA04230390029101F0ACF9002802D0384605B0F0BD1A4904A800884A1C49
:20228C00B17AF37A1B02591890420FD104A840888142EED10298411804AA0423039801F010
:2022AC0092F90028E5D104A8008801E00029E0D10C498842DDD10A982E60039969600199BE
:2022CC002981A872B07AF17A09020818029A1018E86004A9498840186861101D28612746A0
:2022EC00C7E7C04607690000F0B585B00026F743002836D004460068002832D0606800287A
:20230C002FD0019302910392216960690125814228D22068827AC07A0002801804D0E0684C
:20232C00814201D1091D2161606804AA042301F04AF9002815D1A07A002803D0E06821698E
:20234C0081420FD22089124988420ED004A9098881420AD004A8408821694018011D216150
:20236C00D3E73D46284605B0F0BD0199002901D0049808802069001D0299086004A840886F
:20238C000399088021694018001D20613546E9E7FFFF0000F8B503465F20C0431D684E1BDE
:2023AC00012E0BDB00242F57002F08D46F1C1F602E781660C91B8E4200D82046F8BD0094E6
:2023CC007F2427407F1E032F2DD8BC0001A73C59A746C046F123000037240000FD23000098
:2023EC0015240000022EE9D36E781660AF1C24E0042EE3D36C782404AE7836023419EE787C
:20240C00A61916602F1D18E0052ED7D36C782406AE7836043419EE783602A4192E79A619DE
:20242C0016606F1D09E0001FF8BD032EC6D36C782402AE78A6191660EF1C1F60009CB9E7DC
:20244C00F0B58B4200D1824204D90B0002000021002040E0002B00D1002A0CD10B0002000E
:20246C0000210020002B00D1002A01D0C943C04300F0D5FC2FE01C0015000B0002000CB43B
:20248C00002126002F00FF19764102D2491C4029F9D100201E001700FF19764102D2401C2B
:2024AC004028F9D10E1A21002800320001F07CF80C0005000CBC00200021A34200D1AA421A
:2024CC0001D3521BA341404149416D08E7073D436408761EF1D5059F002F01D03A607B60FE
:2024EC00F0BDF0B587B01E460F460446836FC06F0090084611460292FEF71AF98020059419
:20250C0020580490002101200390C5070A46002D2ED0002A06920DD00598836FC06F00909A
:20252C0030460C4639463A46FEF702F9214630463E4607462C4604980440002911D0002CA2
:20254C0011D00598836FC06F0090304606913946029AFEF7EDF806993846039A37460646BB
:20256C0003E0069A01E00024039A21436D08CEE7384607B0F0BD7047F0B585B00290009205
:20258C001568280C01931E68F7433F0C1D4CB443ADB22C19641C250C3E1876193504A4B2B6
:2025AC002C190C60012297B20298C46F651CBD421CD9300C0390BF000098C5592E0C019899
:2025CC00C459E3431B0C084604920E4AA243A9B2039C091989180A0C9B199E18320489B2B6
:2025EC0052180146C251049A521CDCE7A0000A58521C01D0002003E0081800210160012035
:20260C0005B0F0BDFFFF0000F0B588B007930692802202908058020C019280B200900023AD
:20262C001F461A460298C06F82422CD2069820C80690280C05910799049204C90791110CA0
:20264C000391ADB2009C21466943BFB2C91992B28E18320C274647439CB23C19A218140CDD
:20266C0001994D43039BEB1892B29A18130C48432018C7183B0C10040599B2B28018049A39
:20268C0001C1521CCEE7B8B21A041018086008B0F0BDFEB51C4617460E46054602AA3023BC
:2026AC0000F00AFF002800D0FEBD6520C2432868311A012929DB019201783A4602C20299E4
:2026CC00461806232846314600F0F6FE0028EBD12868B8607868296808182860B04216D021
:2026EC000178224602C2401C286028463146FFF751FE0028D8D12868A06060682968081841
:20270C002860B04207D00198FEBD901DFEBD0C21204600F0F5FF0020FEBD7047FEB504469A
:20272C000025EF430168481C06D002916669204600F024FB002802D03D462846FEBD0120F5
:20274C00000306400196207D000707D56068401EFFF7B6FB60690821884360616560A560F8
:20276C00E560206800F05CFB0546276001980028E3D006480068804702980001044908186E
:20278C0001F050F9034800688047D6E76C25002020220020702500201FB500F04DFF01F0F3
:2027AC0045F801A800F02CFF00281FD1019801784278120251188278C078000280180004DB
:2027CC0040181249884211D17D2082000F20032100F0AEFD039801990A7A497A0902891859
:2027EC00401801F0E6F8002004B010BD00F024FF0E240A213222204600F09AFD7D20C200F5
:20280C000221204600F094FDF2E7C0463DB8F396F0B5441C00780023082B30D02578C60708
:20282C000FD166782D0137097F190F253540ED1C122D0BD102256657F5B2002E08D4E61C64
:20284C000CE0641C4E1C0D70314615E0A61C06E0261DE4787F221540E20155191235094A85
:20286C0097420ED0FC43002D05D00A5D4F1C0A706D1E3946F7E7344640085B1CCCE72046CE
:20288C00C7E7F0BDFF0F0000F8B515460E460746154800688047154C2770380A6070A6706E
:2028AC00300AE070300C2071300E6071A571280AE071F420002521462A462B4600F0EAFCB6
:2028CC002046294600F0CCFC2078617809020818A17809044018E1780906441804480068CD
:2028EC0080472046F8BDC0466C250020902300207025002070B59AB00D46064615480068D8
:20290C00804701AC2046314600F064FF304600F0E4FF06460019401C294600F05BFF2846D6
:20292C0000F0DBFF3018831C0B4DF7202946224600F0B0FC0021284600F092FC287869786A
:20294C000902081804B205480068804720461AB070BDC0466C250020902300207025002072
:20296C0070B514460D4606461648006880473068401C1FD0012C08D1307DC00605D5B06852
:20298C00002802D031694019451A304600F0F6F97069052149028843706130682946224635
:2029AC0000F062FD0446084800688047601C06D0002404E00448006880470020C443204691
:2029CC0070BDC0466C25002070250020FEB5044600680026815D002903D03A2903D0761C25
:2029EC00F8E7134D22E08719114D1FD0082E00DB0826002E10D06A46314603781370002B00
:202A0C0004D0521C401C491EF7D105E0022903D3501C491E00F08AFF68460021815500F016
:202A2C0097FB002802D0791C216005462846FEBD8C240020FCB50123DD438023C458803040
:202A4C00944205D90B68541C9540AB4304601BE0521C161B73091F2701973E40DBB29B0012
:202A6C000093CB58F3406F1C3D46A540AB433519212D09D3009D69184968019D2A4097405A
:202A8C00B943A21A9140CB18611EDA0703D15B080160491EF9E7D8B2FCBD10B504460168C4
:202AAC000020491C25D06269D10623D4100605D500210222204600F0B1FF6269900604D483
:202ACC00500602D52020024362616168012000290DD1042111400AD10720024001200302A4
:202AEC0000212046FFF762FA014640424841E168216110BD012189020A43626110BD7047C6
:202B0C00F8B50446026801251046A843401A102821D366180838B0600836A84337180837D6
:202B2C000E480F4A072A01D910180838009187420DD23878C0070AD1384600F06FFD30686A
:202B4C003968EA4311400830104040183060304600F076FC009A2A432260F8BD00000020A4
:202B6C0000200000F8B514460F460646124800688047124D2C70200A6870AF70380AE87042
:202B8C000023F05C5B1C0028FBD1F0202946324600F080FB0021284600F062FB2878697890
:202BAC000902081805B2064800688047002D00D425462846F8BDC0466C2500209023002091
:202BCC0070250020F8B50446124E30688047002C08D0204600F0D2F8074611480068804785
:202BEC003846F8BD0C48006800270C4D3C468442F3DA2968491C0AD030688047284600F0B8
:202C0C00BDF8074306480068804703480068641C1835ECE76C250020682500209C2300209C
:202C2C0070250020F8B516460C460746104800688047FF2E01D9012006020E4D2F70380A38
:202C4C006870AE70300AE870F22000222946134600F020FB2846214600F002FB2878697896
:202C6C000902081804B20448006880472046F8BD6C2500209023002070250020F8B5154690
:202C8C000C460746104800688047FF2D01D9012005020E4E3770380A7070B570280AF070F8
:202CAC00F320314622462B4600F0F4FA0021304600F0D6FA307871780902081804B20448B2
:202CCC00006880472046F8BD6C2500209023002070250020F0B599B014460191074602AE8E
:202CEC0004203070701C202539462A4600F08AFE30462130203739462A4600F083FE17AD8A
:202D0C0041222846314600F09DFE13950198149015942034169413A8FEF7E2FF002801D0BE
:202D2C000020C04319B0F0BDB0B50246007853781B0218189378D4782402E3181B041B18E7
:202D4C0000200D4CA34213D1137B547B2402E318947BD57B2D022C192404E318147A527A57
:202D6C0012021219D21803D28868824201D30020B0BD0120B0BDC0463DB8F39670B50446B3
:202D8C000025EE430068411C18D06168626993060BD5002909D0A3688B4206D05A1A00F003
:202DAC0077FB00280DD4616862692161A160500605D5302082430025626100E0354628467F
:202DCC0070BD606901218A0202433546F4E77CB513460C46064601AA0225084619462B4690
:202DEC0000F06AFB002801D0E8437CBD019D202D05D32068411920392022304608E0202037
:202E0C00411B304600F092FD701B203021682A4600F0F8FD20684019206000207CBD70472B
:202E2C0070B50026F44300281AD40546092817D80C4800688047E8000B4A115800290CD055
:202E4C0015180969686888470446401C05D0286841890122914341812E6004480068804791
:202E6C00204670BD6C2500200425002070250020FEB50025EC4343787F2B18D10195029483
:202E8C0040684518AC180B4FA5420FD23E6800203860094802680948294690473E600121CB
:202EAC00C9026D180006EFD0029C00E0019C2046FEBDC046244402405800000F8FA0E3B7D5
:202ECC00F0B513681C0C80254559AEB29BB2F618330C2D0C2C19E3181C04B5B264190C6078
:202EEC0001241B0CE5B2C66FAE420CD9AD005659370CB6B2F618330CDB191F04B6B2BE192F
:202F0C004E51641CEDE71846F0BD7047B0B505460D48006880470D4C2570280A6070F120BB
:202F2C00002521462A462B4600F0B4F92046294600F096F9207861780902081804B2044889
:202F4C00006880472046B0BD6C2500209023002070250020B0B504460D48006880470023D4
:202F6C00E05C5B1C0028FBD10A4DF5202946224600F090F90021284600F072F92878697877
:202F8C000902081804B20448006880472046B0BD6C2500209023002070250020F8B51646B4
:202FAC000C46054600F092FC0746204600F08EFC3818263000F0C0FC002807D00746009689
:202FCC0006492A46234600F0DFF800E0024F384600F07EFBF8BDC046AC3D0000DB3B000024
:202FEC00FEB500AC0EC400242146A6B2C76FB74216D9B600019A97593D0C029A93591A0C5B
:20300C009BB2BFB289B27918CB18190C52195218110C12049BB2D218009B9A51641CE4E702
:20302C0088B2FEBD1CB50A0017D000230124E407A04200D20400944201D95200FBE790422C
:20304C005B41904200D3801A914201D25208F6E719000200080011001CBD01000020FFF788
:20306C004EFD1CBD70B50023DC4355091F231340EAB292008958D940802545592646AE4001
:20308C00B143ED18212D09D3006C10184068203DAC40A0432022D21A90404118C8B270BD9B
:2030AC0070B50A480A4C84420CD00A4D0A4EB54208D02A686968501C12789200A25890475B
:2030CC000835F4E700BF00BF70BDC046C03E0000B43E0000C83E0000D83E0000FCB4020C51
:2030EC000B0CFF242402FF34204021400C00444315005D4306005E430F005743320C3B0C53
:20310C00A818C01832043B040025A1186841C9186841FCBC704770B508CAC46F641CA34287
:20312C0000D323460C461D46002D03D040CA40C46D1EF9E79A0089181A46C46F641CA242E7
:20314C0003D2002410C1521CF7E7184670BDFEE770B5014602780020002A11D0094B1A4618
:20316C0028321C467834A2420AD00024155D0E5D002D02D0641CB542F8D0B542F0D11046D0
:20318C0070BDC0468C24002082B0F8B5069207930291019006A9039107480090074B02A8CD
:2031AC0001AAFDF7BDFD019900220A7004B080BC02BC02B00847C046F5360000AB390000B0
:2031CC00F0B5136880240459E443DD430023651B1C465C410D600125EEB2C76FB74209D995
:2031EC00B6009759E7191C465C417F1E5C418F516D1CF1E7E043F0BDF8B50D460446C06F5A
:20320C00421C8027E251616D074E2846B047E25990002D18A16D2846B047E2599000281854
:20322C00E16DB047F8BDC0465938000070B50A4C2046FFF773FA1834084D2868012686428D
:20324C0009DA2168002903D42046FFF767FA2868761C1834F3E770BD9C2300206825002038
:20326C00B0B50B4A13680024082C04D015192D790555641CF8E7002909D00C32002B06D013
:20328C0010784C1C08705B1E521C2146F6E7B0BD0020002070B50B4C236020710020082802
:2032AC0004D00D5C26187571401CF8E70D34002B06D0501C117821705B1E641C0246F6E780
:2032CC0000BF70BD00200020BCB51446002000F0EFFAC0B201A900F09FF80546002809D102
:2032EC00019800212023224600F06DF90546019800F065F8681E85412846BCBD0446094808
:20330C0000688047084D6968002901D0204688472868002800D0804704480068804700F063
:20332C0097FBC0466C2500205425002070250020F8B514460091012787400026074D009851
:20334C00864209D22F60204600F028FA2F61204600F024FA761CF2E7F8BDC0461032024009
:20336C00B0B515460446032300F0A6F8002800D0B0BD6720C04329680029F9D0491E296021
:20338C0021680A78002AF3D1481C20600020B0BD70B51F300022202A10D0C31E841E2478D8
:2033AC00451E2D7806781B781B062404E3182C021B199B198B50121D001FECE770BD7047AE
:2033CC0006484178032900D880300078FD2804D30348044901600449416070472F03004E94
:2033EC0018110040E3887F09E3387F491CB5019007480068804701A8FFF7E8FA016A01981D
:20340C008847044603480068804720461CBDC0466C2500207025002070B50022074B14466F
:20342C00251D102D07D01E59347884422C46F7D10E60002070BDD04370BDC046D83D0000F1
:20344C00B0B5016801229143064B1C68002C06D0256895438D4202D208342346F5E7846057
:20346C001860B0BD98230020B0B503460020C043002B0AD4092B08D8DB00044CE558002DFD
:20348C0003D0ED69E0184068A847B0BD04250020B0B503460020C043002B0AD4092B08D8C4
:2034AC00DB00044CE558002D03D0AD69E0184068A847B0BD0425002070B504466120C0434A
:2034CC0025684E1B012E08DB2E789E4204D1681C20602046FEF75EFF70BD801C70BDFEE7E6
:2034EC0030B514004C4325001C0044436419050010002900FFF7F2FD001904000D00210085
:20350C00280030BD074880F3088800BF00BF00F09DFA002801D0FFF7C3FD00F063F8012018
:20352C00FFF7ECFE00900020B0B504460020002B08D0D2B20D782570954204D0641C491CEF
:20354C005B1EF7D1B0BD601CB0BDB0B504C9002303604360531C083001249C4203D220C905
:20356C00641C20C0F9E71046B0BD10B5002A0AD003780C78A34204D1491C401C521EF7D1C1
:20358C001C46181B10BD002010BDA06AE16FCA0010188A0080182278921E089B93405B1D2A
:2035AC004A1C53439900704718B520239B1A04D8010000205B42994004E004009140DC40A6
:2035CC002143904018BDB0B5457800247F2D06D14068411810461A4600F014FA00E0E44351
:2035EC002046B0BD80B50020044A002A014601D001CA1146FFF7D0F880BDC046443E000062
:20360C00B0B50446044D6821284600F08FF928462146FDF7C7FCB0BDC0220020054A13686A
:20362C00002B06D011461A4608328342F7D1806808607047982300200548016801229303AE
:20364C000B4303600168D2030A4302607047C04600350240B0B50023002A05D010C820C944
:20366C0065402B43521EF7E758425841B0BD10B5C36F08C10024C36F9C4203D208CA641C22
:20368C0008C1F8E7184610BD80B50146024802680248904780BDC0468000000F28230020BD
:2036AC0080B50348026803480021904780BDC0467800000F2823002080B50A460146024886
:2036CC0003680248984780BD7C00000F28230020044C30342146FEF707FA2046FFF772FA3E
:2036EC0000F0B6F99C230020B0B514460D460146286800F087F92868001928602046B0BDE3
:20370C0080B5002904D00A4602490B680021984780BDC0463C3E000010B503780C78A342F7
:20372C0004D1491C401C521EF7D11C46181B10BD10B504C91346002B03D010C910C05B1E42
:20374C00F9E7104610BD04C10122C36F5B1C9A4203D2002308C1521CF7E77047032280582C
:20376C00002805D0401E4A1C00230B701146F7E770470022002903D008C81A43491EF9E760
:20378C00504250417047FEE740B584B002AE0096FEF756FE029A039B04B040BD03494143EB
:2037AC00002902D000BF491EFAE77047AA0F0000A06AE16FCA0010188A0080184A1CD100E6
:2037CC007047A06F029989004258D24342500298401C70474A1C0978431C017000291846C7
:2037EC001146F7D1704710B500239A4203D0CC5CC4545B1CF9E710BD80B50B4603214258A8
:20380C00C11D184600F0FEF880BDA26FE06F8000295882185268002A704740787F3802280E
:20382C0001D300207047FF207047000001208003014908607047C04610320240EFF31080F2
:20384C0072B6FFF7BDFDFFF75DFEFEE7002A03D008C908C0521EF9E770470122D243114028
:20386C000830104040187047206FE16DCA19A36FE16F0091704738463268910078186D1C79
:20388C0027787047002903D0002204C0491EF9E7704700000B4611461A4680B500F024F89D
:2038AC0080BD032802D30020C0437047401C7047032902D30020C0437047481C70470021BB
:2038CC00425C491C002AFBD1481E70470021425C491C002AFBD1481E70470021425C491C6B
:2038EC00002AFBD1481E704700239A4202D0C1545B1CFAE770474019001F0068524200231D
:20390C0042E7A26F0832204629462B4600E0000082B00094014C019410BD00BF1526000092
:20392C00A16EA36FE26F00920A4628470A46002180B5FFF7D9FF80BD80B501460820FDF76F
:20394C00ADFF80BD801C61412A463B46C8E5E16CA36FE66F00962847A36FE26F00920A4698
:20396C0070479259A36FE76F0097704705460F46029A3346B4E5E16E0690079108907047C9
:20398C00A36FE26F00920A463047A36FE16F0091314638479259A36FE56F009570470A6867
:2039AC00531C0B601070704780682838072188437047016881F3088841688F46A36FE56FA7
:2039CC0000953047012220462946BCE6A36FE66F0096FFE782B00094014C019410BD00BF1E
:2039EC00E1080000204629462A46FFE782B00094014C019410BD00BFCD2E000080228058FE
:203A0C000860704780B5FFF7EEFE80BD80B5FFF7ACFD80BD80B5FFF7C7FF80BD80B5FEF7BE
:203A2C009FFF80BD80B5FFF7E1FC80BDA36F009500E0000082B00094014C019410BD00BF9F
:143A4C003D07000006C07047006870470120704700BFFEE70A
:203A6000000102030400010203040001020304000102030400010203040001020304000109
:203A80000203040001020304000102030400010203040001020304000102030401010101E7
:203AA0000102020202020303030303040404040400000102030000010203000001020300C6
:203AC000000102030001020304000102030400010203040001020304433A2F74695F7364F9
:203AE0006B5F302F73696D706C656C696E6B5F6C6F77706F7765725F66335F73646B5F3857
:203B00005F34305F30305F33355F656E672F736F757263652F74686972645F70617274792A
:203B20002F6D6375626F6F742F626F6F742F626F6F747574696C2F7372632F6C6F6164652E
:203B4000722E63003059301306072A8648CE3D020106082A8648CE3D030107034200042AF4
:203B6000CB403CE8FEED5BA44995A1A91DAEE8DBBE1937CD14FB2F245737E5953988D99403
:203B8000B9D65AEBD7CDD5308AD6FE48B24A6A810EE5F07D8B6834CC3A6AFC538EFAC1008C
:203BA0000000000001010101010202020202020202020203030303030303030303040504C1
:203BC00004040405040404040504040404050404040000000000010101010141737365729B
:203BE00074696F6E206661696C65642C20282573292C2066696C652025732C206C696E65B9
:203C00002025640A0000000008000000FCFFFFFFFFFFFFFFFFFFFFFF0000000000000000F8
:203C20000000000001000000FFFFFFFFFCFFFFFFFFFFFFFFFFFFFFFF030000000000000093
:203C40000000000004000000FCFFFFFF00000000080000004B60D2273E3CCE3BF6B053CC73
:203C6000B0061D65BC86987655BDEBB3E7933AAAD835C65ADFBDC42962DF9CD89030847887
:203C8000CD05F0ACD62E21F7AB20A2E5344887041D0630DC000000000800000096C298D842
:203CA0004539A1F4A033EB2D817D0377F240A463E5E6BCF847422CE1F2D1176B08000000F3
:203CC000F551BF376840B6CBCE5E316B5733CE2B169E0F7C4AEBE78E9B7F1AFEE242E34FC3
:203CE0000300000000000000FFFFFFFFFBFFFFFFFEFFFFFFFFFFFFFFFDFFFFFF04000000D8
:203D00000000000008000000512563FCC2CAB9F3849E17A7ADFAE6BCFFFFFFFFFFFFFFFF6D
:203D200000000000FFFFFFFF08000000FFFFFFFFFFFFFFFFFFFFFFFF00000000000000008B
:203D40000000000001000000FFFFFFFF00010001000100010001000100000101000100015C
:203D600000010001010101010000000000000000000000000000000002030405000000002F
:203D800000010100000000000000000000000000000000000001000100000101000100011B
:203DA0000001000100010001000100016D616C6C6F63206661696C656420696E20617373A2
:203DC000657274003031323334353637383961626364656600000000E83D0000F43D0000E0
:203DE000003E000000000000007F00000000000000600000017F00000060000000C0020004
:203E0000027F00000020030000A004002A8648CE3D03010700000000443B0000403E00004F
:203E20002A8648CE3D0201007263203D3D203000030301020303000001000000F538000080
:043E40005B00000023
:083E4400000000000000000076
:203E4C00005500000F0112014001018F012202C01502030F01240440FF000004BF02017F52
:203E6C007EFE0EF70200712B000019FF2F0000312C000089BE0030952800006100F0017974
:203E8C0029039F0C01DF228C24002000754015B100F114BF02079F1E17711AB5031CC00929
:203EAC00170CF0003100FFF01D2800000538000069370000020000009C0300004C3E000076
:0C3ECC009C230020C03E000000200020CD
:020000044E02AA
:20000000FFFFFFFF000000000000000000000000FFFFFFFFFFFFFFFFAAAAAAAA0000000044
:20002000FFFFFFFFFFFFFFFF00000000FFFFFFFF00000000000000F00000000000000000DC
:200040000000000000000000000000000000000000000000000000000000000000000000A0
:20006000000000000000000000000000000000000000000000000000000000000000000080
:20008000000000000000000000000000000000000000000000000000000000000000000060
:2000A000000000000000000000000000000000000000000000000000000000000000000040
:2007C000000000000000000000000000000000005AA500000101020305080D156DD7E43686
:2007E000EBF431DF95AE15EE03BA8EE4C4C63FD8453F675E74D7C2012C9058E500000000A4
:00000001FF
