:2000000000900020CD430000473C00000F3A0000F73A0000F73A0000F73A0000F73A000090
:20002000F73A0000F73A0000F73A0000F73A0000F73A0000F73A0000F73A0000F73A000038
:20004000F73A0000F73A0000F73A0000F73A0000F73A0000F73A0000F73A0000F73A000018
:20006000F73A0000F73A0000F73A0000F73A0000F73A0000F73A0000F73A0000F73A0000F8
:0C008000F73A0000F73A0000F73A0000E1
:20008C00F0B589B00446016CC26A03F0F6FCE16F4A1C904201D935269BE1002813D0206CDE
:2000AC008A0087180837891C384604F0B5F9A168384604F0D3F8002807D0E56F691C88421F
:2000CC0005D9C62685E1532683E16C2681E123786626022B00D27CE1052B00D979E1216CA0
:2000EC000A6801263240032B334600D300235A4080230893E2500790E06720463A460B462D
:20010C0002F09CFC20784000001F3146814008982150216C20460A4603F058FDE567E16CE5
:20012C002046324604F0A5F8626EA06EE16CA36FE56F0095A84DA847A26EE06E04F0D5F91A
:20014C00A06EE26E04F0D1F9216F226B204603F094FCE56FA84201D93C263AE100280ED0D6
:20016C00606CE26E216F04F02FFA216F626B204603F083FCE56FA84203D9652629E1C326DD
:20018C0027E1064600280ED0A06C216FA26E04F01BFAE16EE268204603F06FFCE56FAE42A3
:2001AC0003D95C2615E1562613E126468036A26EE16E206F04F008FAE26C206D216FA36FEC
:2001CC00E56F009500F0B4FAE06F421C06963260666D00252778B81E0123194681408D4231
:2001EC0009DA616C304604F0FBF806980268900036186D1CEEE70893A06D0025069EBB1E58
:20020C00089999408D4206DAA16C074604F0E8F804F0FBF8F3E7E06D0025BB1E08999940F5
:20022C008D4206DAE16C074604F0DAF804F0EDF8F3E7216C08788007C30F07984001401C4E
:20024C000026049607960396089A019090426BD90593801AB842069B00D338461860204657
:20026C00089203F0B0FB07994118C8B27A1E01252B4693409842029500DA00252A46BA40EB
:20028C00984200DB4842059B0799C9B207911018DBB205935349C95C049AD7B29E00524A51
:2002AC0092197B00D218525D920051180006800D001F04229043081806990860204600F050
:2002CC009FF86800494989190918079A895C0791474989190818C05D04902778B91E45489A
:2002EC008019405C089A12181420059B5843424B1B18052041435918039E8E5D216C530933
:20030C009B00CD581F231340DD40029B1D40079B5D4045430A20059B5843384B181840192D
:20032C000396835D019891E70798C0B2012811D10498C0B28000C01C069E3060274D204693
:20034C00A847012030602046A847022030602046A84727789926032F3BD30020C04307903D
:20036C00B91E012008908840FE30069DC7B208982860002F11D07A1C2046394601F048F9EA
:20038C00089828602078801E07998140C94320463A4601F03DF9781EE8E72078801E079F38
:2003AC0039468140CA430021059120460C4B9847089828602078801E8740FA432046059F25
:2003CC003946074B9847089A2A6020463946044B9847304609B0F0BD3D0700000D040000F1
:2003EC001D160000144A000040490000104900005849000028490000FC4500003B470000A9
:20040C00F0B589B0044680202158C8080D460391E26F511C4143E06DC9B28F00C019616F96
:20042C00636C06AE0BC6A807060F05A88159206EA36F0092BB4D0A46A847606E04F069F875
:20044C0005A88059A16CA36FE26F0092B64D0A46A847E06E216FA26C636E0692079108933E
:20046C0005A98959E26DD2190497236EE56C06920793089505AA04F05BF8AA4DA847606EB0
:20048C00E16EE26C06AB07C305A88059E26F521C03F0A6FFE06E216F06900791089005A80A
:2004AC008059216E04F026F89F4DA847206FA16E06900790089105A88059A16DC919226E71
:2004CC00636E06AD0EC505A98959A26CE36C656F06930795089205AA04F02AF8914DA84797
:2004EC00606F216E06900791089005A88059A16E04F000F88C4DA847234660330ECB069315
:20050C000791089205A88759E56C606F06910795089005A9895906920790089305A8825943
:20052C00A36FE06F009038467E4DA847226E606E616F06AB07C305A88559E16EA36FE06FA2
:20054C0000902846784FB847216E226DA36FE06F00902846B847E06C616E226E06AB07C329
:20056C0005A88159E06E626FA36E06AD0DC505A8805903F0BFFF6B4DA847616EA06D049FD6
:20058C00C219E56E06A826C005A988590290216F226E636F06910792089305A98959E26DD0
:2005AC00D219636C06950792089305AA03F0C0FF5C4DA847606EE16DC919E26E06AB07C3E4
:2005CC0005A88059E16F4A1C029903F009FF206D03F09FFF05A88159206F226E069007924A
:2005EC00089005A8805903F085FF4F4DA847606E616FA26E06AB07C305A88059216EE36E40
:20060C0006920791089305A98A59A36FE16F0091464D0146A847226F216E206D06920791D9
:20062C00089005A88059636E06AD0EC505A98959636CA76E06930797089205AA03F05FFFF4
:20064C00384DA847616F606D049D4019626C06910790089205A88059A26E0692079108928D
:20066C0005A98959E26E236F06920793089205AA03F045FF2D4FB847606F03F04AFF05A817
:20068C008059626C636D5B1906920793089205AA03F035FF254FB847616FA06EE26E069189
:2006AC000790089205A88059636D5B1906930792089105A98959636E276E069207930897A1
:2006CC0005AA03F01CFF174FB847616FA06D4019A26C06910790089205A880590490A26EB6
:2006EC00042303980340E76E606E069707901B1D05ADED5806910792089505A98959226F75
:20070C00256E0690079705A8C05806920795089005A88259A36FE06F00900498034CA0472A
:20072C0009B0F0BD3D070000E108000069090000F8B444464D4656465F46F0B400B501B490
:20074C000B9B5B005B1C6C469B00E31A9D4610B46C46241D00266D46009CE36A2D1D9B008A
:20076C00EE505B00EE50E36A013B9B0098465B009946002300240025002702E03700404628
:20078C003F1A9A46A346AC46B646F01B1458C859030C80B2250CA4B21E006E4363434543E0
:2007AC0060431C041B0C00195E412C042D0C00196E4153465C4665461B18744100204541E6
:2007CC0076460437474501DCB742DADD6846001D835123462C46002504364645CCDD4E455D
:2007EC00CCDD8351009B9969083102464E4604361068009B9C6924684443A1460027002328
:20080C00002400259A46A346AC46B6464C46C859030C80B2250CA4B21E006E436343454354
:20082C0060431C041B0C00195E412C042D0C00196E4153465C4665461B1874410020454165
:20084C00D0591B18002044414541002F02D0043FD35104370437764623462C4600254745DF
:20086C00D0DD301D8742EBDD043FD351043E464500DDBDE710BC2068E36A9B46024691468B
:20088C006846012720C840C97F08B5417F4120C2013BF7D105682F430126F741FF17FE43CD
:2008AC0068463840494631400843494639406D46354029435B4604C904C0013BFBD1A546FA
:2008CC0003BC8E46F0BCA046A946B246BB46F8BC7047C046F0B444464D46564670B4814646
:2008EC00079CA246002720C940CA7F0875417F4120C0013CF7D1B8464846083354466A4654
:20090C00A400141BA54604B46A46121D5446012720C840CB7F08B5417F4120C2013CF7D19D
:20092C00424617430126F741FF17FE4348466946091D0D46384031400843494631403D40AC
:20094C002943544604C904C0013CFBD101BC854670BCA046A946B246F0BC7047F0B44446D9
:20096C004D46564670B48146079CA246012720C940CA7F08B5417F4120C0013CF7D1B8468B
:20098C004846083354466A46A400141BA54604B46A46121D5446002720C840CB7F087541F2
:2009AC007F4120C2013CF7D147460126F741FF17FE4348466946091D0D4630403940084357
:2009CC004946394035402943544604C904C0013CFBD101BC854670BCA046A946B246F0BCC1
:2009EC007047C046F0B444464D4630B4884699466C469B00E31A9D4610B46C46241D4B4667
:200A0C000832012720C940CA7F08B5417F4120C4013BF7D16A46121D0125EF41FF17FD43C5
:200A2C00414629403A4011434B4610C910C0013BFBD101BC854630BCA046A946F0BC7047FE
:200A4C00F0B591B01D46174610910446866A8168304603F0F2FAE067002804D00246FF2819
:200A6C0003D928202BE16C2029E1307AC00701D1822024E1501C8300F058002839D00B97B0
:200A8C0017980E90D0000A9087190837F8183146061D0C93F018001D0F902046099101F0B6
:200AAC00A5FB2046394601F00BFCA36FE06F0090304639463A46FFF70DFFE06F4001802114
:200ACC00605020460F990D9632460E463B4601F022FF0146E06F421C384603F081FC204602
:200AEC0031460E9A02F0C9FFE16F884203D92220E5E02320E3E0002830D00C9830180E905C
:200B0C0026468036A36F00910D980F993A46FFF70FFE2078801E0321089181400C310696A7
:200B2C00316020460D9E314600F086FC0146E06F421C304603F054FCA36FE06F00900F98D9
:200B4C0031463A46FFF7F4FD20460E992A4602F094FFE16F884203D92720B0E02120AEE00D
:200B6C00002829D0169805900E9D0C9828180790A36F0091384629460F9AFFF7D9FD03F0E7
:200B8C00EFFCA36FE06F0090079839462A46FFF7CFFDE06F3E4601C6A26FE36F304607990A
:200BAC00FFF720FF20462946059A02F066FFE16F884203D9112082E0722080E000287DD059
:200BCC000396079E0C9AB018801880180490A36F00910C970D9F38460E9D29460F9AFFF770
:200BEC00A7FD03F0BDFCA36FE06F0090304639462A46FFF79DFDE16F38460C9F02C0A26F67
:200C0C00E36F02903146FFF7EDFE6069A169049AA262E76220636163204601F099F89928DE
:200C2C004DD103F06FFB41180C310F9803F0D8FB03F044FA41180C31284603F0D1FB2046D0
:200C4C00FFF71EFA99283AD12046079902F0F6FF0D98E062109820630B98606303F052FB09
:200C6C0040180C300F9903F0BBFB03F027FA40180C30294603F0B4FB2046FFF701FA9928B2
:200C8C001DD1022006990860002520462946079A00F0BEFCA7630D98E063204601F04AF960
:200CAC00A06BE16F03F006FB00280BD0E06BE16F03F000FB002805D0E32000E01220C0B2C9
:200CCC0011B0F0BD099EA662E76FA168304603F0B4F90246E0672046314601F087FA781C04
:200CEC00B9000A9A51188E190C360399E26F531C984202D220C6401CF8E70D9D2A60A26FC9
:200D0C00E36F0298FFF76EFEE06F421C2846059903F01EFA01465A200029D0D0C043CEE773
:200D2C00F0B58DB00E4604469548006805909548606295482065274620370025022D11D053
:200D4C000020294603F077FBC0B2394602F0B8FD6D1C2C370028F1D08C488D498D4A02F0B3
:200D6C008DFDFEE7204603F0A7F8002807D10025204629462A4602F007FE002837D05820F8
:200D8C000121215407A8C17100200C900021204600F0D0FE80490968794A176888420ED1A9
:200DAC00B84201D107460AE07C490968884206D00C99491C0C910C990129074613D1002087
:200DCC000A90099008900790206A417831714068B06034604C2528460C3005D0605903F0D8
:200DEC004DF92C3DF7E7FEE738460DB0F0BD204601F0E8FB0028C2D007A8857109950A95B7
:200E0C0001210791FF210691023181800495284601F0DCFC0746801E02280ED801252046CA
:200E2C00294600F087FE5C490968884205D05B490968884200D005252F46F8B22246583223
:200E4C005821675407A9CF71811E032933D20292534D01200CA902F033FD002804D04B48D7
:200E6C004B492A4602F00AFD039602200BA902F027FD0028049F05D04948021D434844497C
:200E8C0002F0FCFCA06A042600281CD00690606A85590C9839462A4601F09AFE002805D0BD
:200EAC003F4A0A3239483A4902F0E8FCEF1908360698401EE8E70128059F52D0052850D03A
:200ECC000698107046E00B990C9A00230093019702F000FA00280FD02C4D2D4F314A284659
:200EEC00394602F0CBFC2B4A57322846394602F0C5FC039E059F29E00B98216D4A680021BE
:200F0C0001F066FE002805D0254A59321F48204902F0B4FC216D606DC2000B985218083A9B
:200F2C00136852680968591A01F052FE0028039E059F05D01A4A61321448154902F09EFCCC
:200F4C000C9803F09BF80B9803F098F802980078FF2806D10F4A6E3213480D4902F08EFCFF
:200F6C00FEE704990C91012800D10FE7002107AA204602F009FD002800D020E706E7C04634
:200F8C005C49002000000020001000200C4A0000744600004C070000644900206049002037
:200FAC00DE03000095050000A1470000F0B5FFB08CB0049315460646909801908A91346884
:200FCC00204603F03FFA2218002189910292944244D20022859285A803920273641C0F4639
:200FEC00601E0078002834D0252806D034602946049A90477F1C641CF2E70398C343899773
:20100C00601C03903060207885A90873732809D18AA989AA28461C46049B00F021F8234628
:20102C00899911E005AC85A98AAA2046009300F035F8024620462946019B9847009B411CD8
:20104C00194600D0C1198991029A039C481CBED100E03B4618467FB00CB0F0BD0B46F9E7AB
:20106C00F8B504460868051D0D600668002E11D0009414461D46304603F0E4F90746206885
:20108C00C01920600024BC4207DA305D0099A847641CF8E7002021469847F8BDF0B585B07F
:2010AC0001920E4604467F208000251800270397FF210291FE312022204603F0B5F9049512
:2010CC006F70307B252852D06A1C782814D0642812D06F2810D06328029B20D1019E3068CC
:2010EC00011D31600068C1B24F424F411946FC3161180491287012E003A9154604AA3046EA
:20110C00019B00F03AF82A4603980028029B06D00499481E2D220A702A46002700E0049880
:20112C00111A0029254601DC611A4D1C411C5B0000262846324602F06FFF002F02D0411CA1
:20114C00067000E00146A14206D8481E611A491C202203F069F92670291B2022204603F0D3
:20116C0063F9204603F06EF9C01905B0F0BD00206070252020700120F7E7F8B514460D46EE
:20118C000646077B194600F014F8317B642904D1002802D50121296040426F2F01D00A2146
:2011AC0000E00821782F00D11021224600F012F8F8BD007B642805D06F2803D0782801D0A3
:2011CC00702804D10868021D0A600068704700207047C046F8B514460D460646002804D1FE
:2011EC002068411E2160302101700A4F002E0DD03046294600F010F801466943711A795C25
:20120C002268531E236011700646EFE7206803F019F9F8BD9A49000080B5102903D008290A
:20122C0003D1C00880BD000980BD02F08DFB80BDF0B5BFB004931646469C7A480068019028
:20124C0002F0B8FF002C05D04799012902DB204602F0BCFF4898029045980590449D307A6F
:20126C00717A09020818317B727B12025118B27BF37B1B029A18120451180818B17A039669
:20128C00F27A1202511846180027BE4212D9F41B0598844200D3059C049839462A4623460F
:2012AC0001F04AFF002808D12846214602F08EFFE719EAE706A802F071FF01F048FCBE427D
:2012CC0016D80298002803D006A9202203F068F9002700972EA8544B0399049A01F054F890
:2012EC00002805D1339C049803F062F9844203D94C4800683FB0F0BDFD434C480068059020
:20130C002C4626462EA836A935AA34AB01F0B2F90028EDD400D07BE034A80088222807D13A
:20132C00002E2C46EDD4059886422C46E9DA57E001281AD010283446E3D135A80088202849
:20134C00D6D136990EAA2023049801F0F5FE0028CED106A80EA9202203F026F93549096821
:20136C00012788423446CCD057E035A80388202BBED836990EAA049801F0DEFE0028B7D139
:20138C0035A8017820292C46BBD800240291059884421FDAE60026488019039002F00AFF0F
:2013AC002348805903994968096802F00FFF37A802F0F4FE029A002A0ED00EA837A90B789F
:2013CC000678B34204D1401C491C521EF7D104E0641CDCE72C4600E0002401F0B8FB90E708
:2013EC0035A80388802B00D982E736990EAA049801F0A2FE002800D07AE735A80388F0B275
:20140C00009006A820210EAA00F004FB019077E7002F00D16CE701986CE702480068019029
:20142C00F9E7C0465C490020FFFF00001C4A0000FC49000064490020F0B589B003910546C2
:20144C00C06F082801D3052100E00421032800D203212A46803208920022012307951CB295
:20146C00A1420BD3089D2D68641E0126A640F41CA54200D31A465B1C079DF0E70146D0B2F1
:20148C00441E01270591491C8A00A1408900039B5E1819460496B618B218069202900228CE
:2014AC0008D3AB6F0598009006980399039AFFF73FF903993846A04005900C4638B2059990
:2014CC0081420FDDAB6FE96F88000019001D00912146069AFFF72CF9E86F80000019041D5D
:2014EC007F1CEBE7A86F8068411E4C424C41801E089908602846069F394603F04DF8012068
:20150C0001B2EA6F8A4211D9AA6F89008A189268E3B2012B07D10023002A02D0521E1C4635
:20152C0001E00124DA437A50401CE9E7521C0498039902F055FFA96FE86F820051184A688E
:20154C000021002A02D05208491CFAE740014318223B0498044618B200284FD49AB2500929
:20156C00800038581F211940C840C0071F4638D005970898029901602846069901F044FE02
:20158C00049000252746E8B20899096881420CD90798836FC06F0090304639463A46FFF70A
:2015AC00C7F86D1C34463E46ECE70498401E81B2C90B4018400880B2079DAB6FE96F4A1CB7
:2015CC0042439000039A1218009130463946FFF7AFF808980088059B1B1A30463E46069F64
:2015EC00B8E7AB6FE86F0090304621462246FFF79FF87B1E30462646069FABE7E86F421C06
:20160C00039D2846214602F0EBFE284609B0F0BDFEB515460446C26F571C8023C358022BB3
:20162C0008D0012B0AD0002B15D1656CA06C0190E06C0EE0B8002B18019309E07D43636DFF
:20164C00A66DE06D0290A8001D1833180193029B1818029002E00025019502957943E06D34
:20166C008F00C119E06EA36F0092514E0A46B047206EE26EA36FE16F00912946B04702F0F4
:20168C00BDFE0199B0473546606EE26E216FA36FE66F0096A8472E46E06EA36FE16F009128
:2016AC00029D29462A46B047E26E206F616DC919A36FE66F00963E4EB047606DA16DC019E6
:2016CC00C919A36FE26F00922A46B047616DA06DC019C919E26EA36FE66F0096344EB04764
:2016EC00606DC019216F226EA36FE66F0096314EB04702F083FE29462D4EB047E06DC0192B
:20170C00616DC919226F02F027FF206FA16DC919626EA36FE56F0095264DA847606DC11911
:20172C00E06E02F0FBFEA06E216F02F0F7FEA06DC019216EE26E02F00FFF206EE16E626D6E
:20174C00D21902F009FFA06E226EA36FE16F00910146184EB047E06EA16DC919A36FE26FC2
:20176C0000920A46FFF7B6F8606DC019A16EE26E02F0F2FEA06E626DA16DC919D21902F046
:20178C00EBFE216F2546743529CDA26E0095084EB047E06E226E616E02F0DEFEA06DC01967
:2017AC00254674352ACDE26E0095024CA047FEBD3D07000069090000F8B515460E460446E1
:2017CC00806AA067616802F038FC0246E067A16F204600F00BFDA06FE26FD1000918083195
:2017EC009000001D0A1813181818274660370EC7E0663B4F20463246B847616E20462A4688
:20180C00B847A16E62682046B847304602F0EAFEE16FE426884260D1284602F0E3FE014652
:20182C00E06F814259D1206E02F044FD002807D0606EE16F02F03EFD002801D0E3264CE027
:20184C00A36EE16E226E204601F0B0F8E126012843D1E16EE06F8000085800283DD1626EC5
:20186C00A36E204601F0A2F8E226012835D1E06EE56FA900405800282FD1A06E216EE26930
:20188C00A36F0095174DA847206E02F00BFEE06E216E226A02F068FE206EA26EE16EA36FF9
:2018AC00E66F0096A847E06E216E626A02F05CFE616EA06EE269A36FE66F0096A847606E6B
:2018CC0002F0F0FD606EE16EE26F02F041FC002801D11A2000E01920C643F0B2F8BDC046CD
:2018EC00873A00003D070000FEB5002905D0434E0024072E03D8224603E000247BE032461F
:20190C00083A914277D8431E08221842074600D017460194072800D81746C81D029007245D
:20192C0037480068804737480178002918D1072E01D8002101E031460839002903D13249A3
:20194C0000220A600AE0304A3049116000228A60072E01D8164600E0083E0E600121017004
:20196C000298A0430290781E7942274C2568002D33D02C46083406190E40B44210D02A466A
:20198C0010323346083B9A4201D9F619F9E72A6801239A43A218029BF3189A42E6D306E028
:2019AC002A6801239A43029B9A42DFDB2646284602F0B2FBA64215D0301B29680122D343FA
:2019CC001940091A0838286018402C181143A1600834284602F09AFA05E00D48006880472D
:2019EC00019C08E02C462046029901F0D7FC08480068804708342046FEBDC046002000001D
:201A0C006C4900207C490020302700203827002070490020F0B597B01F46164601901C983F
:201A2C003F490D68C0003F490A180858029051680968441800F0B9FF02A816AA30232146EF
:201A4C0002F0B3FA002804D000F013FE284617B0F0BD02981699441802A806AA03AB2146E8
:201A6C0001F031F80028EFD107980728ECD108982D49072202F0E6FB0028E5D10498082811
:201A8C00E2D105982949082202F0DCFB0028DBD102A816AA214602F085F90028D4D11699F4
:201AAC004129D1D102984118A142CDD101780429CAD1441C0294F519039603A816AA3023FE
:201ACC00294602F072FA002813D1039816994018A8420ED806A803A92A4601F09CFD002833
:201AEC0007D106A8203003A92A4601F094FD002808D00F4802680A4801680D469542A3D04D
:201B0C000D46A1E706AA2046019901F031FD08490A680349096800281546EED1EEE7C04672
:201B2C005C490020FC490000044A0000F049000064490020F0B587B00C4605463E480668CE
:201B4C000027384602F077FCC0B206A901F0B8FE00286DD12846214601F0FDFD0126002832
:201B6C0063D02C2060432918087CC0065DD40E46002C1DD02846403001782A7D914217D84E
:201B8C000ED341786A7D914212D809D38178C07800024018A97DEA7D12025118884207D2E7
:201BAC000021284601F0D7FD002801D0069836E0069B04970397029701200002019020488D
:201BCC0000903846394635463246FFF731FB0646069829786A7812025118AA78EB781B02CB
:201BEC009A1812045118174A914216D1297B6A7B12025118AA7BEB7B1B029A1812045118AE
:201C0C002A7A6B7A1B029A18511806D28268914203D20D4909688E4207D0002C03D0826836
:201C2C00002100F0D5FF05480668069802F026FA304607B0F0BDC0465C49002060490020DA
:201C4C00202500203DB8F39664490020F0B585B00F4606460024E5433B48006880473846D1
:201C6C0001F005FB002869D0B868F96804913B46325D641C002AFBD15A6907210A40671EB0
:201C8C00042A009501970ED10024002F4ED0186831193A461D4602F061F9002848D4041933
:201CAC003F1A2B46F1E7029104990D1A3C460393002C3BD0AC42274600D32F465969029ACF
:201CCC0011400229049511D1002F07D00021725C0A2A06D0491C8F42F9D107E000252F4681
:201CEC0005E0721802D04F1C012500E0002531463A4602F055FC039B9868C0199860F61949
:201D0C00E41B002D049D01D1ED1BD1D118461D4601F058FC00280BD1A868E9680F1A696908
:201D2C0020220A436A612B463D46C1E7019D05E068690121890201436961009D0348006842
:201D4C008047284605B0F0BD6C49002070490020F0B587B00446806AA067616802F06DF9FA
:201D6C00E067002804D00246FF2803D9D22066E0082064E0A16F087AC00701D1DC205EE0C0
:201D8C0090000B185B68002B58D0D3005B18083304931D180835561CB0002B1803931B18B6
:201DAC000693069B1B1802931F1805972778BF1EBE40B600059B9F19BB190193049B23642C
:201DCC006564039BA364069BE364029B2365059B6365A765019BE3659B1906931D182E185C
:201DEC0037183B1818180590069820666566A666E766236705986067204600F0F7F9E16CA7
:201E0C00204600F05DFA206EE16CA36FE26F00920A46FEF75FFDE06F400180216050226E27
:201E2C00656EA16E20462B4600F075FD0146E06F421C284602F0D4FA992000E0302007B0B9
:201E4C00F0BD7047F0B5FFB0FFB0D3B005460920C44331A8032101802C4932912C49339122
:201E6C002C4934912C4935912C4936912C4937912C4938912C4939912C493A9153A93B91E3
:201E8C002C305C2102F014FB2E687068412837D130680078042833D1082028901F90169008
:201EAC000D900490686816A9091D214FB847A8680DA9091DB847E86804A9091DB84730681C
:201ECC00401C28AD291DB847306821301FAE311DB84731A829463246FFF76EFCE6280ED170
:201EEC0004A801900DA8009031A828A91FAA16ABFEF7A6FD0024A52802D0E44300E0093481
:201F0C0020467FB07FB053B0F0BDC046EC480000C8480000CC470000144800005C480000E4
:201F2C0080480000A4480000F047000038480000E13D0000F0B585B00446016C0B1D084605
:201F4C000491E16F4A1C91005F180397D1005918029180256251616D304EB047A16D62594F
:201F6C003846B047E16D6259029F3846B0472078801E03218140C81D6051204639463E46A7
:201F8C00FFF75AFA606EA36FE16F0091244F31463246B847206E626E02F0C5FA226EA36F18
:201FAC00E06F00903046039D2946B847626EA36FE06F009028460499B847A06F616802F01D
:201FCC003CF8A16FE26F204600F010F9216F0122204602F04EF9A06E226FA36FE16F00911D
:201FEC002946B847A16EA26FE36F2846FEF7FAFCA16B20462A4602F0B8F8E06E226F02F047
:20200C0092FAE16EA26FE36F3046FEF7EBFCE16B2046324602F0A9F805B0F0BDED430000D5
:20202C003D070000F8B5002869D00446344800688047083C33480025016801270A46BA438B
:20204C00A04204D28118083105460846F4E7861808362C4A2C4B072B01D99A18083A9642D5
:20206C0000D90026A04247D1C80745D0002D0AD029683940284600D00020002E06D10029DA
:20208C002ED100260BE0002E2AD000203178C907314600D0002100280BD00E4605462846EB
:2020AC0002F03AF8002E08D12868216802F09FF913E0002500292F4612D0304602F02CF822
:2020CC00002F11D0286821680122D243114033681340103010404018C01828602C4608E0B2
:2020EC0020680121884303E02068316802F07FF92060204601F00AFF044800688047F8BDE1
:20210C006C490020382700200020000070490020F0B585B004931646039105460024E7436C
:20212C002E48006880472868401C04D0042E04D00498002801D13C4644E001972A1D68683D
:20214C006F69002802920BD0390703D5401EFFF769FF029A08208743146054609460D46052
:20216C00039B0120002E014600D03146072297430F436F61049EFF2E00D90602002B06D002
:20218C000498012803D0581C029908600CE0761C304602F09FF902990860002818D0401C37
:2021AC00686008210F436F618119491EA860E96028610B48006880470848006880470948D3
:2021CC0009490160064800688047204605B0F0BD0120800207436F61019CF3E76C490020F2
:2021EC0070490020544900207D3C0000F0B585B00092049003918E68C8680024B51C074688
:20220C0003460190674128463946324601F0E0FE02F066F905460F4602963246019B01F06E
:20222C00D7FE02F05DF905460F463246019E334601F0CEFE02F054F902F066F902F050F9BD
:20224C0002F062F9801C61412A463B46009F01F0BFFE039B03C3B800083BC1184968CA0FE7
:20226C00049D6A70002911D419460831002202243B46002B1ED00D68ED43EE0F6D002C19FB
:20228C0056410C505B1E091D3446F2E71946083101233A462546002A0CD00E68F643F618E3
:2022AC000E501D436B1E9D41734273412B40521E091DEFE7049803998167C76705B0F0BDFD
:2022CC00FEB50D4604460220009002900298E16F891C884202D202F01EF8F6E701222046C3
:2022EC00294601F0C6FFA36F0833204629462A4601F008FB02F03CF802D002F0BFF801463F
:20230C002046803001908020215002F039F902F0BBF8E06F800000262E5002962F1F02993C
:20232C00E06FC20E12075242914221D281007918012807DB4A68401E4B881204D2184A6055
:20234C00091FF5E728680004286002F011F802D002F094F801460198016002F011F902F0D7
:20236C0093F8E06F80002E500298401C0290D6E7009902910299801C814204D201F0CBFF7D
:20238C000290E06FF6E7FEBDF0B585B00024E743002820D00E4600291DD0002A1BD00546AE
:2023AC000193307A717A090208180390317B1046727B12025118B27BF37B1B029A1812043E
:2023CC005118039A891804AA04230390029100F0B3FE002802D0384605B0F0BD1A4904A8C5
:2023EC0000884A1CB17AF37A1B02591890420FD104A840888142EED10298411804AA04234D
:20240C00039800F099FE0028E5D104A8008801E00029E0D10C498842DDD10A982E60039928
:20242C00696001992981A872B07AF17A09020818029A1018E86004A9498840186861101DD1
:20244C0028612746C7E7C04607690000FEB5254C264F27490A68012632430A6025490A68F5
:20246C0032430A6024490E60B2020A60616C234A0A4062640521616508210090019120498E
:20248C000022042520462B4600F062FB164B1868710301431960396807200140022901D0AA
:2024AC00022139707105196216493962396A0140042901D020217D54196832060A431A60E5
:2024CC00F96A0140012901D02C203E540E4801683143016002A9204601F054FE0028F9D199
:2024EC00FEBDC04600000340003502403431004090600040140000401400024000FEFFFFDA
:20250C00006CDC020000042004010340F0B585B00D4604468168103901AA102300F00CFE78
:20252C00002808D401A91022204601F06AFC002803D0032011E001263FE00020204901AA69
:20254C00125C0B5C9A4203D1401C1028F7D113469A4201D0022000E001202870A168283963
:20256C000727B9436A4601262046334600F0E4FD002822D4694608780F2202406A700009FB
:20258C00287101262046324601F03BFC002802D16878052803D30120687000202871A91C14
:2025AC00A268203ABA43204601F083FA002804D1E91C204601F0E4FE0646304605B0F0BD7B
:2025CC00BC490000F0B586B001246302826A00219A424BD8456D9D4248D8029500210F46BB
:2025EC000D4604910B46EE00361D0391954210D30593034611462246029C28463D46049F35
:20260C00A7422F46054614460A4603991846059B23D28F4209D00ED2022B26D0436A9B597E
:20262C00DF196D1C08362346E0E70593476ABE5977186D1C03E0012B17D002230593049BD5
:20264C005E1C0196066D0096DE00009B9E1976687118019B0493059BC5E76A400298049B5B
:20266C00434013435942594100E00021084606B0F0BD7047F0B585B00026F743002836D06F
:20268C0004460068002832D0606800282FD0019302910392216960690125814228D22068E9
:2026AC00827AC07A0002801804D0E068814201D1091D2161606804AA042300F03DFD0028F6
:2026CC0015D1A07A002803D0E068216981420FD22089124988420ED004A9098881420AD0F6
:2026EC0004A8408821694018011D2161D3E73D46284605B0F0BD0199002901D00498088013
:20270C002069001D0299086004A840880399088021694018001D20613546E9E7FFFF0000A3
:20272C00F8B503465F20C0431D684E1B012E0BDB00242F57002F08D46F1C1F602E78166037
:20274C00C91B8E4200D82046F8BD00947F2427407F1E032F2DD8BC0001A73C59A746C04668
:20276C007D270000C327000089270000A1270000022EE9D36E781660AF1C24E0042EE3D348
:20278C006C782404AE7836023419EE78A61916602F1D18E0052ED7D36C782406AE7836044C
:2027AC003419EE783602A4192E79A61916606F1D09E0001FF8BD032EC6D36C782402AE7846
:2027CC00A6191660EF1C1F60009CB9E7F0B587B0012405A9204601F084FBFF25002843D10D
:2027EC00022003A901F07DFB00283DD105AA107803AB1978D5780195DB7800939278029283
:20280C0000261B4F122E28D0BB5D042B06D0052B02D1012802D11EE083421CD1BB195A7872
:20282C00042A06D0052A02D1012902D113E08A4211D19A78042A02D0019DAA420BD1DA781E
:20284C00042A02D0009DAA4205D11A79042A06D0029DAA4203D0B61DD4E7254604E05D7965
:20286C00A81E032800D3FF25284607B0F0BDC04688490000F0B58B4200D1824204D90B00CC
:20288C0002000021002040E0002B00D1002A0CD10B00020000210020002B00D1002A01D081
:2028AC00C943C04300F015FD2FE01C0015000B0002000CB4002126002F00FF19764102D2D5
:2028CC00491C4029F9D100201E001700FF19764102D2401C4028F9D10E1A2100280032002B
:2028EC0001F0FCFB0C0005000CBC00200021A34200D1AA4201D3521BA341404149416D0883
:20290C00E7073D436408761EF1D5059F002F01D03A607B60F0BDF0B587B01E460F460446D2
:20292C00836FC06F0090084611460292FDF700FF8020059420580490002101200390C507C8
:20294C000A46002D2ED0002A06920DD00598836FC06F009030460C4639463A46FDF7E8FE62
:20296C00214630463E4607462C4604980440002911D0002C11D00598836FC06F0090304670
:20298C0006913946029AFDF7D3FE06993846039A3746064603E0069A01E00024039A2143A8
:2029AC006D08CEE7384607B0F0BD7047F0B585B0029000921568280C01931E68F7433F0CFA
:2029CC001D4CB443ADB22C19641C250C3E1876193504A4B22C190C60012297B20298C46FD8
:2029EC00651CBD421CD9300C0390BF000098C5592E0C0198C459E3431B0C084604920E4A99
:202A0C00A243A9B2039C091989180A0C9B199E18320489B252180146C251049A521CDCE784
:202A2C00A0000A58521C01D0002003E0081800210160012005B0F0BDFFFF0000F0B588B046
:202A4C0007930692802202908058020C019280B2009000231F461A460298C06F82422CD256
:202A6C00069820C80690280C05910799049204C90791110C0391ADB2009C21466943BFB299
:202A8C00C91992B28E18320C274647439CB23C19A218140C01994D43039BEB1892B29A18EB
:202AAC00130C48432018C7183B0C10040599B2B28018049A01C1521CCEE7B8B21A04101821
:202ACC00086008B0F0BDFEB51C4617460E46054602AA302301F069FA002800D0FEBD652081
:202AEC00C2432868311A012929DB019201783A4602C20299461806232846314601F055FA25
:202B0C000028EBD12868B8607868296808182860B04216D00178224602C2401C2860284635
:202B2C003146FFF7FDFD0028D8D12868A0606068296808182860B04207D00198FEBD901DF6
:202B4C00FEBD0C21204601F071FB0020FEBD7047F0B585B001920B9D0A9A1A4E0024B242F3
:202B6C000491039401D8029402E0154E711C029101263602871984596D1E0F212940124DEA
:202B8C002540019C214329438151102003437B60FE685500049C2046294600F0D5FE810AB6
:202BAC0001D0039801E0401E80B2AC4200D2039806490E40029971180143F96005B0F0BD11
:202BCC00FFFF0000FF083D0090FCFFFF00FCF0FFFEB516460290426854184178802919D030
:202BEC000020C2437F2928D100900192A719154DBC4221D22E68002028601348026813486F
:202C0C00214690472E600121C90264180006EFD0019A12E00A490978002906D1007802A92A
:202C2C0000F04EFE0246002807D12046314600F073F90122424000E0009A1046FEBDC04695
:202C4C0078490020244402405800000F8FA0E3B7FEB504460025EF430168481C06D0029123
:202C6C006669204600F0AEFC002802D03D462846FEBD0120000306400196207D000707D552
:202C8C006068401EFFF7CEF960690821884360616560A560E560206800F0E6FC054627608C
:202CAC0001980028E3D0064800688047029800010449081801F084FC034800688047D6E767
:202CCC006C49002020260020704900201FB501F031FA01F06DFB01A801F0C0F900281FD120
:202CEC00019801784278120251188278C07800028018000440181249884211D17D20820031
:202D0C000820032101F036F8039801990A7A497A09028918401801F01AFC002004B010BD14
:202D2C0001F008FA15240A213222204601F022F87D20C2000221204601F01CF8F2E7C0469F
:202D4C003DB8F396F0B5441C00780023082B30D02578C6070FD166782D0137097F190F25B4
:202D6C003540ED1C122D0BD102256657F5B2002E08D4E61C0CE0641C4E1C0D70314615E058
:202D8C00A61C06E0261DE4787F221540E20155191235094A97420ED0FC43002D05D00A5DA0
:202DAC004F1C0A706D1E3946F7E7344640085B1CCCE72046C7E7F0BDFF0F0000BCB51848AE
:202DCC00019001F081FB01A8042101F049F8002802D001F073FB09E0124C0221204600F0D0
:202DEC00A1FE054601F06AFB002D01D00020BCBD227863780C490C462068002807D02579AF
:202E0C00AA4202D16579AB4203D00834F4E7203100E02146421E9041044A1160BCBDC0462B
:202E2C0090FFFF0034270020A447000074490020FEB515460290426856184178802913D0B8
:202E4C0000277F290ED1144801680191076013480468134829463246A04701990E4A1160A7
:202E6C0000280DD0F843FEBD0A490978002908D1007802A91C4600F023FD2346002800D07F
:202E8C00FEBD304619462A4600F00CF8014601204840FEBD78490020244402406000000F8D
:202EAC008FA0E3B7FEB515460C460646002C2FD000F02AFC00282BD101F064F8002827D1BF
:202ECC000195F0B201210902081A8442274600D3074602AD02202870300C6870300AA8703D
:202EEC00EE7001F0F1FA0421284600F0B9FF0028019D0BD12846394600F0B2FF002805D123
:202F0C00BE19E41BED1901F0D9FACFE701F0D6FA60426041FEBD7047F8B5194C6A462023D4
:202F2C001370184E0640F243401880180019070B0025AF421ED000F0E7FB00281AD101F02C
:202F4C0021F8002816D1300C6C466070300AA0700020E07001F0B8FA0421204600F080FF28
:202F6C00044601F0ABFA002C04D105488019461C6D1CDEE7BD4201D20020F8BD0120F8BD51
:202F8C00FF0F000000F0FFFFF8B515460E460746154800688047154C2770380A6070A670D4
:202FAC00300AE070300C2071300E6071A571280AE071F420002521462A462B4600F08CFE0B
:202FCC002046294600F06EFE2078617809020818A17809044018E178090644180448006822
:202FEC0080472046F8BDC0466C490020282700207049002070B59AB00D46064615480068ED
:20300C00804701AC2046314601F097F9304601F027FA06460019401C294601F08EF9284634
:20302C0001F01EFA3018831C0B4DF7202946224600F052FE0021284600F034FE28786978DC
:20304C000902081804B205480068804720461AB070BDC0466C490020282700207049002087
:20306C001CB518481821FFF7F1F90B20164900F03DFD01F023FA01ACAB20207001F024FA21
:20308C000121204600F0ECFE044601F017FA002C11D1192000016946088000986846008829
:2030AC00002804D00098401E69460880F6E700F02BFB002803D000F0BBFE00201CBDFFF755
:2030CC007DFE1CBD00093D000102002070B514460D4606461648006880473068401C1FD099
:2030EC00012C08D1307DC00605D5B068002802D031694019451A304600F064FA706905214A
:20310C0049028843706130682946224600F012FF0446084800688047601C06D0002404E029
:20312C000448006880470020C443204670BDC0466C49002070490020F8B51C4615460090A0
:20314C00426856184178802908D000277F2912D128463146224601F023FA1CE00F4F3978F9
:20316C0000290AD000F064FEFFF77AFF00280BD00120387008E0FF430DE00078694600F085
:20318C009FFB0746002806D1304621462A4600F093FA012747403846F8BDC04678490020AA
:2031AC00FEB5044600680026815D002903D03A2903D0761CF8E7134D22E08719114D1FD0A8
:2031CC00082E00DB0826002E10D06A46314603781370002B04D0521C401C491EF7D105E094
:2031EC00022903D3501C491E01F062F968460021815500F0B3FC002802D0791C2160054604
:20320C002846FEBD28480020FCB50123DD438023C4588030944205D90B68541C9540AB432B
:20322C0004601BE0521C161B73091F2701973E40DBB29B000093CB58F3406F1C3D46A540A8
:20324C00AB433519212D09D3009D69184968019D2A409740B943A21A9140CB18611EDA0782
:20326C0003D15B080160491EF9E7D8B2FCBD10B5044601680020491C25D06269D10623D495
:20328C00100605D500210222204601F095F96269900604D4500602D5202002436261616891
:2032AC00012000290DD1042111400AD1072002400120030200212046FEF72AFF014640428C
:2032CC004841E168216110BD012189020A43626110BD7047F0B587B00593039204910026BC
:2032EC000D990C9802900196124F8E421CD20D468C1B012006908002844200D3044605987D
:20330C00311804983A462346FFF716FF00280DD10298311803983A462346FFF789FDA61920
:20332C0000282946E1D001E001980690069807B0F0BDC04600200020F8B515460022164E53
:20334C00131D102B0ED0B458227882421A46F7D1002662780120802A07D07F2A19D10091C0
:20336C00C70204E00020C64314E000910703A0683818401E394600F0E7FA61680246002A9B
:20338C0004D082C5C919521E0035F8E70099086000E0F6433046F8BDAC490000F8B504466F
:2033AC00026801251046A843401A102821D366180838B0600836A843371808370E480F4A76
:2033CC00072A01D910180838009187420DD23878C0070AD1384600F09FFE30683968EA4372
:2033EC0011400830104040183060304600F08EFD009A2A432260F8BD382700200020000032
:20340C00F8B514460F460646124800688047124D2C70200A6870AF70380AE8700023F05C4A
:20342C005B1C0028FBD1F0202946324600F054FC0021284600F036FC287869780902081881
:20344C0005B2064800688047002D00D425462846F8BDC0466C49002028270020704900207A
:20346C00F8B50446124E30688047002C08D0204600F0A8F807461148006880473846F8BD88
:20348C000C48006800270C4D3C468442F3DA2968491C0AD030688047284600F093F807436D
:2034AC0006480068804703480068641C1835ECE76C49002068490020384700207049002012
:2034CC00F8B516460C460746104800688047FF2E01D9012006020E4D2F70380A6870AE704F
:2034EC00300AE870F22000222946134600F0F4FB2846214600F0D6FB287869780902081811
:20350C0004B20448006880472046F8BD6C4900202827002070490020F8B515460C4607468F
:20352C00104800688047FF2D01D9012005020E4E3770380A7070B570280AF070F320314664
:20354C0022462B4600F0C8FB0021304600F0AAFB307871780902081804B2044800688047BA
:20356C002046F8BD6C4900202827002070490020F0B599B014460191074602AE042030706C
:20358C00701C202539462A4601F00AF830462130203739462A4601F003F817AD41222846DE
:2035AC00314601F01DF813950198149015942034169413A8FEF746FC002801D00020C043E8
:2035CC0019B0F0BD70B504460025EE430068411C18D06168626993060BD5002909D0A368DD
:2035EC008B4206D05A1A00F0B9FC00280DD4616862692161A160500605D530208243002579
:20360C00626100E03546284670BD606901218A0202433546F4E77CB513460C46064601AA00
:20362C000225084619462B4600F0BFFC002801D0E8437CBD019D202D05D320684119203933
:20364C002022304608E02020411B304600F030FF701B203021682A4600F0A2FF2068401947
:20366C00206000207CBD704770B50026F44300281AD40546092817D80C4800688047E80040
:20368C000B4A115800290CD015180969686888470446401C05D0286841890122914341818F
:2036AC002E60044800688047204670BD6C4900200449002070490020FEB516460D46074698
:2036CC0000F022F8002400281CD1019502AD03202870380C6870380AA870EF7000F0F4FEE4
:2036EC000421284600F0BCFB002802D000F0E6FE08E03046019900F015FA054600F0DEFEA8
:20370C006C426C412046FEBDBCB501A80521017000F0DAFE00F07EFD00F0D0FE00F0D4FEBD
:20372C0001A80124214600F09BFB6846214600F0F9F9054600F0C2FE002D03D100984000F7
:20374C0002248443002CE9D0022C01D10020BCBD0120C043BCBDF8B50E460546002420467F
:20376C0000F069FEC0B2694600F0AAF8002801D0E043F8BD009800F013FE0746009800F0F4
:20378C007DFC2C20704328182146042C03D0425C4C1CBA42F8D00020042900D2C043F8BD5A
:2037AC00F0B513681C0C80254559AEB29BB2F618330C2D0C2C19E3181C04B5B264190C608F
:2037CC0001241B0CE5B2C66FAE420CD9AD005659370CB6B2F618330CDB191F04B6B2BE1946
:2037EC004E51641CEDE71846F0BD7047B0B505460D48006880470D4C2570280A6070F120D3
:20380C00002521462A462B4600F066FA2046294600F048FA207861780902081804B204483A
:20382C00006880472046B0BD6C4900202827002070490020B0B504460D4800688047002307
:20384C00E05C5B1C0028FBD10A4DF5202946224600F042FA0021284600F024FA2878697828
:20386C000902081804B20448006880472046B0BD6C4900202827002070490020F8B51646E7
:20388C000C46054600F0E5FD0746204600F0E1FD3818263000F01EFE002807D00746009698
:2038AC0006492A46234600F075F900E0024F384600F098FCF8BDC046704900007747000011
:2038CC0070B500220D4B1446261D102E14D01D592C7884423446F7D10D6069780020802945
:2038EC0009D1074C2178002905D1FFF7B9FB0121484000D1217070BDD04370BDAC490000DF
:20390C0078490020FEB500AC0EC400242146A6B2C76FB74216D9B600019A97593D0C029A62
:20392C0093591A0C9BB2BFB289B27918CB18190C52195218110C12049BB2D218009B9A5112
:20394C00641CE4E788B2FEBD1CB50A0017D000230124E407A04200D20400944201D952006C
:20396C00FBE790425B41904200D3801A914201D25208F6E719000200080011001CBD0100C1
:20398C000020FFF7C8FA1CBDFEB5164602910446002507460195022D0AD0204629463A4618
:2039AC00334600F0B3F9002804D16D1C2C37F2E70198FEBD029A002A014600D11146002D6E
:2039CC0000D00846FEBD70B50023DC4355091F231340EAB292008958D940802545592646D1
:2039EC00AE40B143ED18212D09D3006C10184068203DAC40A0432022D21A90404118C8B271
:203A0C0070BDFEE770B50A480A4C84420CD00A4D0A4EB54208D02A686968501C12789200B0
:203A2C00A25890470835F4E700BF00BF70BDC046A84A00009C4A0000B04A0000C04A000004
:203A4C00FCB4020C0B0CFF242402FF34204021400C00444315005D4306005E430F005743B0
:203A6C00320C3B0CA818C01832043B040025A1186841C9186841FCBC704770B508CAC46FFE
:203A8C00641CA34200D323460C461D46002D03D040CA40C46D1EF9E79A0089181A46C46F7D
:203AAC00641CA24203D2002410C1521CF7E7184670BD70B50C4605460126114622463346D4
:203ACC00FFF73AFB00280ED401222846214600F098F9002801D0032003E02078012800D09C
:203AEC00022020700026304670BDFEE770B50A4A8B0708D401230C461C40C5B2074EAC55D4
:203B0C008340136002E0012383401361800007229143034A815070BD103502400031024064
:203B2C0000310040F8B50C4605460B4E002C0FD000273046394600F0B2FB00280AD06946F0
:203B4C00304600F0A1FB00982870641E6D1CEDE70020F8BDF843F8BD0000034070B50146D4
:203B6C0002780020002A11D0094B1A4628321C467834A2420AD00024155D0E5D002D02D0BA
:203B8C00641CB542F8D0B542F0D1104670BDC0462848002082B0F8B50692079302910190D4
:203BAC0006A9039107480090074B02A801AAFDF7FDF9019900220A7004B080BC02BC02B0B0
:203BCC000847C0460942000047450000F0B5136880240459E443DD430023651B1C465C41A3
:203BEC000D600125EEB2C76FB74209D9B6009759E7191C465C417F1E5C418F516D1CF1E755
:203C0C00E043F0BDBCB50D460446012040020190012901D0502000E02420225801A92846A5
:203C2C00FFF78AFB002800D0BCBD012D01D0542100E02821019A6250BCBDFEE7F8B50D4644
:203C4C000446C06F421C8027E251616D074E2846B047E25990002D18A16D2846B047E25961
:203C6C0090002818E16DB047F8BDC046ED43000070B50A4C2046FEF7EBFF1834084D286847
:203C8C000126864209DA2168002903D42046FEF7DFFF2868761C1834F3E770BD3847002070
:203CAC0068490020B0B50B4A13680024082C04D015192D790555641CF8E7002909D00C32F9
:203CCC00002B06D010784C1C08705B1E521C2146F6E7B0BD0024002070B50B4C2360207103
:203CEC000020082804D00D5C26187571401CF8E70D34002B06D0501C117821705B1E641C0B
:203D0C000246F6E700BF70BD00240020BCB51446002000F090FBC0B201A9FFF7D1FD0546B1
:203D2C00002809D10198002120232246FFF704FA0546019800F0A2F9681E85412846BCBD7A
:203D4C000446094800688047084D6968002901D0204688472868002800D080470448006835
:203D6C00804700F043FCC0466C4900205449002070490020F8B51446009101278740002623
:203D8C00074D0098864209D22F60204600F0B0FA2F61204600F0ACFA761CF2E7F8BDC04647
:203DAC0010320240B0B515460446032300F0FDF8002800D0B0BD6720C04329680029F9D0EC
:203DCC00491E296021680A78002AF3D1481C20600020B0BD70B51F300022202A10D0C31EDC
:203DEC00841E2478451E2D7806781B781B062404E3182C021B199B198B50121D001FECE70A
:203E0C0070BDB0B50D4601460020002D0FD01446002A0CD0084600F0C3FA01466042604159
:203E2C00002C04D02A78641E6D1C8A42F6D0B0BD1CB501ACB920207000F046FB012120462A
:203E4C0000F00EF800F03AFB0024092C04D8FEF7B5FF641C0028F8D1FFF7C7FC1CBD00005A
:203E6C007CB50C460546084E002C0AD02978304600F02AFA01A9304600F006FA641E6D1CC6
:203E8C00F2E700207CBDC046000003401CB5019007480068804701A8FFF782F9016A01989D
:203EAC008847044603480068804720461CBDC0466C49002070490020B0B50446012529462C
:203ECC00FFF7A0FE00280AD102212046FFF79AFE002804D1206A00F027FAE06500252846B8
:203EEC00B0BD1CB50C46C0B201A9FFF7E9FC002801D0012407E001982146FEF707FB0446E9
:203F0C00019800F0BBF820461CBD0000B0B5016801229143064B1C68002C06D02568954319
:203F2C008D4202D208342346F5E784601860B0BD30270020B0B503460020C043002B0AD437
:203F4C00092B08D8DB00044CE558002D03D0ED69E0184068A847B0BD04490020B0B503466C
:203F6C000020C043002B0AD4092B08D8DB00044CE558002D03D0AD69E0184068A847B0BD7B
:203F8C00044900201CB501AC0620207000F09CFA01212046FFF764FF044600F08FFA002C1E
:203FAC0001D00220C44320461CBD70B504466120C04325684E1B012E08DB2E789E4204D166
:203FCC00681C20602046FEF7ABFB70BD801C70BD30B514004C4325001C0044436419050008
:203FEC0010002900FFF72CFD001904000D002100280030BD074880F3088800BF00BF00F03D
:20400C00F3FA002801D0FFF7FDFC00F077F80120FFF796FE00900020B0B504460020002B0B
:20402C0008D0D2B20D782570954204D0641C491C5B1EF7D1B0BD601CB0BDB0B504C9002382
:20404C0003604360531C083001249C4203D220C9641C20C0F9E71046B0BD0000B0B5044634
:20406C000548051D6021284600F022FA28462146FCF756FEB0BDC046A048002010B54078B6
:20408C00802807D1044C2078012803D1FFF7D0FE0020207010BDC0467849002010B5002A98
:2040AC000AD003780C78A34204D1491C401C521EF7D11C46181B10BD002010BDA06AE16FBF
:2040CC00CA0010188A0080182278921E089B93405B1D4A1C534399007047000018B520232C
:2040EC009B1A04D8010000205B42994004E004009140DC402143904018BD000080B5002059
:20410C00044A002A014601D001CA1146FEF7DEFD80BDC046284A0000054A1368002B06D091
:20412C0011461A4608328342F7D18068086070473027002005480168012253050B43036095
:20414C00016812020A4302607047C04600350240B0B50023002A05D010C820C965402B4398
:20416C00521EF7E758425841B0BD10B5C36F08C10024C36F9C4203D208CA641C08C1F8E782
:20418C00184610BD0522920183181B6A5B0703D480580860012070470020704780B501466A
:2041AC00024802680248904780BDC0468000000FC026002080B50348026803480021904719
:2041CC0080BDC0467800000FC026002080B50A460146024803680248984780BD7C00000F91
:2041EC00C0260020044C30342146FDF72FFD2046FFF736F900F0FAF938470020B0B51446A6
:20420C000D460146286800F0CBF92868001928602046B0BD1CB5044C01A92046FFF7B2FFD8
:20422C000028F9D11CBDC0460000034080B5002904D00A4602490B680021984780BDC046DB
:20424C00204A000010B503780C78A34204D1491C401C521EF7D11C46181B10BD10B504C97D
:20426C001346002B03D010C910C05B1EF9E7104610BD04C10122C36F5B1C9A4203D2002351
:20428C0008C1521CF7E7704710B50522920113462033C4586407FCD48058086010BD152280
:2042AC00120183181B699B0701D4002070478150012070470022002903D008C81A43491E17
:2042CC00F9E750425041704710B51522120113461033C458A407FCD5815010BD40B584B00E
:2042EC0002AE0096FEF7C6FA029A039B04B040BD03494143002902D000BF491EFAE7704743
:20430C00AA0F0000A06AE16FCA0010188A0080184A1CD1007047A06F029989004258D2439A
:20432C0042500298401C70474078802802D00020C04370470120000370474A1C0978431C05
:20434C000170002918461146F7D1704710B500239A4203D0CC5CC4545B1CF9E710BD80B553
:20436C000B4603214258C11D184600F019F980BDA26FE06F8000295882185268002A704711
:20438C0080B58268183A07239A43FFF792FB80BD01220A40014942547047C046003102405C
:2043AC0040787F38022801D300207047FF20704701204005014908607047C046103202407E
:2043CC00EFF3108072B6FDF73CFDFFF713FEFEE780B50A4603214158104600F069F880BDF8
:2043EC00002A03D008C908C0521EF9E770470122D24311400830104040187047206FE16D17
:20440C00CA19A36FE16F0091704738463268910078186D1C27787047002903D0002204C009
:20442C00491EF9E7704700000B4611461A4680B500F01DF880BD032902D30020C043704718
:20444C00481C70470021425C491C002AFBD1481E70470021425C491C002AFBD1481E7047C7
:20446C000021425C491C002AFBD1481E704700239A4202D0C1545B1CFAE770474019001F8C
:20448C0000685242002329E7A26F0832204629462B46FFE782B00094014C019410BD00BF36
:2044AC00492A0000A16EA36FE26F00920A4628470A46002180B5FFF7DAFF80BD80B50B20A8
:2044CC000121FFF765FF80BD80B50B200021FFF75FFF80BD80B501460820FDF705FA80BD31
:2044EC00801C61412A463B4672E5E16CA36FE66F00962847A36FE26F00920A46704792598A
:20450C00A36FE76F0097704705460F46029A33465EE5E16E0690079108907047A36FE26FB2
:20452C0000920A463047A36FE16F0091314638479259A36FE56F009570470A68531C0B6044
:20454C001070704780682838072188437047016881F3088841688F46A36FE56F00953047C9
:20456C0001222046294684E6A36FE66F0096FFE782B00094014C019410BD00BFE1080000CD
:20458C00204629462A46FFE782B00094014C019410BD00BFAD370000802280580860704733
:2045AC0080B5FFF7D3FE80BD80B5FFF777FD80BD80B5FFF7C7FF80BD80B5FEF787FD80BDC1
:2045CC0080B5FFF763FC80BDA36F009500E0000082B00094014C019410BD00BF3D07000009
:1045EC0006C07047006870470120704700BFFEE7A7
:2045FC00000102030400010203040001020304000102030400010203040001020304000162
:20461C0002030400010203040001020304000102030400010203040001020304010101013F
:20463C0001020202020203030303030404040404000001020300000102030000010203001E
:20465C00000102030001020304000102030400010203040001020304433A2F74695F736451
:20467C006B5F312F73696D706C656C696E6B5F6C6F77706F7765725F66335F73646B5F38AE
:20469C005F34305F30305F33355F656E672F736F757263652F74686972645F706172747983
:2046BC002F6D6375626F6F742F626F6F742F626F6F747574696C2F7372632F6C6F61646587
:2046DC00722E63003059301306072A8648CE3D020106082A8648CE3D030107034200042A4D
:2046FC00CB403CE8FEED5BA44995A1A91DAEE8DBBE1937CD14FB2F245737E5953988D9945C
:20471C00B9D65AEBD7CDD5308AD6FE48B24A6A810EE5F07D8B6834CC3A6AFC538EFAC100E4
:20473C00000000000101010101020202020202020202020303030303030303030304050419
:20475C000404040504040404050404040405040404000000000001010101014173736572F3
:20477C0074696F6E206661696C65642C20282573292C2066696C652025732C206C696E6511
:20479C002025640A0030000000002000C215000000001000C214000000000800EF12000034
:2047BC0000000400EF110000000000000000000008000000FCFFFFFFFFFFFFFFFFFFFFFFE0
:2047DC0000000000000000000000000001000000FFFFFFFFFCFFFFFFFFFFFFFFFFFFFFFFCF
:2047FC0003000000000000000000000004000000FCFFFFFF00000000080000004B60D227F1
:20481C003E3CCE3BF6B053CCB0061D65BC86987655BDEBB3E7933AAAD835C65ADFBDC429E8
:20483C0062DF9CD890308478CD05F0ACD62E21F7AB20A2E5344887041D0630DC00000000D9
:20485C000800000096C298D84539A1F4A033EB2D817D0377F240A463E5E6BCF847422CE1A8
:20487C00F2D1176B08000000F551BF376840B6CBCE5E316B5733CE2B169E0F7C4AEBE78E36
:20489C009B7F1AFEE242E34F0300000000000000FFFFFFFFFBFFFFFFFEFFFFFFFFFFFFFF86
:2048BC00FDFFFFFF040000000000000008000000512563FCC2CAB9F3849E17A7ADFAE6BCA0
:2048DC00FFFFFFFFFFFFFFFF00000000FFFFFFFF08000000FFFFFFFFFFFFFFFFFFFFFFFFCC
:2048FC0000000000000000000000000001000000FFFFFFFF00010001000100010001000199
:20491C00000001010001000100010001010101010000000000000000000000000000000071
:20493C00020304050000000000010100000000000000000000000000000000000001000149
:20495C0000000101000100010001000100010001000100016D616C6C6F63206661696C6598
:20497C006420696E206173736572740004010403040204010401040301030304010430317A
:20499C0032333435363738396162636465660000CC490000D8490000E44900000000000097
:2049BC0077C295F360D2EF7F3552500F2CB67980007F00000000000000600000017F00005A
:2049DC0000600000006003000280000000000000006003002A8648CE3D0301070000000005
:2049FC00E0460000244A00002A8648CE3D0201007263203D3D203000030301020303000033
:0C4A1C00010000007B4400005B00000073
:084A2800000000000000000086
:204A3000005500000F0112014001018F012202C01502030F01240440FF000004BF02017F62
:204A50007EFE0EF702000D340000F9EF370000CD00702535007F00952F000041380FB079D8
:204A700030039F0C01DF8601284800200075401BF100F11AFF020DDF1E1DB120F503230071
:204A9000037336003323B6FFF0000000512D00006B430000DD4300000200000036270000B4
:104AB000304A000038470020A84A000000000020CB
:020000044E02AA
:20000000FFFFFFFF000000000000000000000000FFFFFFFFFFFFFFFFAAAAAAAA0000000044
:20002000FFFFFFFFFFFFFFFF00000000FFFFFFFF00000000000000F00000000000000000DC
:200040000000000000000000000000000000000000000000000000000000000000000000A0
:20006000000000000000000000000000000000000000000000000000000000000000000080
:20008000000000000000000000000000000000000000000000000000000000000000000060
:2000A000000000000000000000000000000000000000000000000000000000000000000040
:2007C000000000000000000000000000000000005AA500000101020305080D156DD7E43686
:2007E000EBF431DF95AE15EE03BA8EE4C4C63FD8453F675E74D7C2012C9058E500000000A4
:00000001FF
