:2000000000000420174500004B4000008B280000CB3A0000CB3A0000CB3A0000DB400000F8
:20002000000000000000000000000000CB3A0000CB3A000000000000CB3A0000CB3A0000AC
:20004000CB3A0000CB3A0000CB3A0000CB3A0000CB3A0000CB3A0000CB3A0000CB3A000078
:20006000CB3A0000CB3A0000CB3A0000CB3A0000CB3A0000CB3A0000CB3A0000CB3A000058
:20008000CB3A0000CB3A0000CB3A0000CB3A0000CB3A0000CB3A0000CB3A0000CB3A000038
:2000A000CB3A0000CB3A0000CB3A0000CB3A0000CB3A0000CB3A0000CB3A0000CB3A000018
:2000C000CB3A0000CB3A0000CB3A0000CB3A0000CB3A0000CB3A0000CB3A0000CB3A0000F8
:1C00E000CB3A0000CB3A0000CB3A0000CB3A0000CB3A0000CB3A0000CB3A0000E1
:200100002DE9F04F87B00446D0E90010CA694368510001318B4240F02D8100680078042828
:2001200040F02881AA4DE06805F50076314603F075FA04F02DFA04F04DF90828FBD003F01B
:20014000E5FE062840F01B8104F016FA04F020FA04F040F90828FBD003F0D8FE062840F061
:200160001181D4E9000105F16008C26908684146013003F053FAD4E9000105F1C00A04F0CC
:20018000AEF92068D0E90123D0E90317C069CDE9001702904046514600F006FE002840F08F
:2001A000E48004F0E9F92068DFF828B204F0A5F903F0FAF804F00EF90828FBD02068DBF804
:2001C000002005F54079C169484604F0A5F8002840F0CB802168A068CA69314603F01EFA1A
:2001E0002068324604F074F904F0F4F80828FBD0794F4FF48070DBF8002038603046394648
:2002000004F012FA002840F0B080206839680269C3693046CDF800B003F0EEF804F0DAF80C
:200220000828FBD004F062F9D4F800E00028DEF81CC0C7F800C040F09880DEE90512DEE982
:200240000130DEF80CE0CDE902CBCDE9000E304601F0C4FF04F0BEF80828FBD02068DBF83A
:200260000020C3693046F11804F0E2F900287CD104F088F920682A4604F02AF904F0AAF855
:200280000828FBD04FF480703946DBF8002041F8040F484604F0C8F9002866D12068796867
:2002A0000269C3694846CDF800B003F0A5F804F091F80828FBD02068DBF80020C169484669
:2002C00004F036F821680028CA697A604DD1606841460068013003F0A1F9D4E9000104F0F9
:2002E000FEF82068D0E90131C268C069CDE90012CDE9020B48464146524601F06FFF04F0B7
:2003000069F80828FBD02068DBF80020C369484609EB030104F08CF938BB2068D0E9011294
:20032000C069CDE90012CDE9020B311809EB000330464A4602F06AF804F04CF80828FBD03C
:200340002068DBF800200021C369304604F06EF958B9206804F0D1F803F04EF804F03AF84F
:200360000828FBD004F0C2F878B107B0BDE8F04F03F0B4BE6FF0090007B0BDE8F08F6FF009
:200380000200F9E76FF00300F6E704F0FBF820680021C069069605950491810702D04FF01F
:2003A000FF30E9E78008002188420BD0069A52F82120059B53F8213001315A40049B1A43C1
:2003C0000492F1E70498002818BF4FF0FF30D3E7006202585C670020906900200A50704723
:2003E000A2EB0300704700BF02780B78012A28BF9A42F5D16DE9044540EA0104CDE9026759
:200400006FF0000C4FEA447212B380EA010414F0070F6AD100F0070420F0070004F00305EB
:2004200021F007014FEAC505F0E8042314F0040FF1E804670CFA05F462EA040266EA04069B
:200440000AD063EA0403624667EA0407664603E0F0E80423F1E8046782FA4CF582EA060465
:20046000A4FA8CF46CBB83FA4CF583EA0705A5FA8CF595B950E9022351E9026782FA4CF5D4
:2004800082EA0604A4FA8CF483FA4CF583EA0705A5FA8CF52543DBD09CB92DBAB5FA85F4FA
:2004A00024F0070427FA04F1DDE9026723FA04F303F0FF0001F0FF01FDE80445A0EB010027
:2004C000704724BAB4FA84F424F0070426FA04F1DDE9026722FA04F202F0FF0001F0FF010A
:2004E000FDE80445A0EB0100704714F0030F3CD110F0030428D150F8082B51F8083B82FAE5
:200500004CF582EA0305A5FA8CF55DB950F8042C51F8043C82FA4CF582EA0305A5FA8CF59E
:20052000002DE8D02DBAB5FA85F424F0070423FA04F122FA04F202F0FF0001F0FF01FDE8BD
:200540000445A0EB010070474FEAC40420F0030050F8082B21F0030151F8083B0CFA04F4E1
:2005600062EA040263EA0403C9E710F003041AD0A1EB040120F00300E40750F8042B06D058
:200580000FD28B785FFAA2F4E41A06D12BB1CB785FFAB2F4E41A00D11BB920465DF8104BDC
:2005A000704701F1040150F8042BCC0721F0030151F8043B48D824D222F07F4482FA4CF5FE
:2005C00094EA1325A5FA8CF50AD165B951F8043B84EA0204B4EB036F0ED150F8042BEBE717
:2005E0004FEA132355E035F07F454DD10878FDE80445C0F1000070474FEA126203F0FF0398
:2006000047E002EA1C4482FA4CF594EA1345A5FA8CF50AD165B951F8043B84EA0204B4EB20
:20062000034F0CD150F8042BEBE74FEA134330E015EA1C4528D10B884FEA124229E04FEAE8
:20064000124203EA1C4324E002F0FF0482FA4CF594EA1365A5FA8CF50AD165B951F8043BAD
:2006600084EA0204B4EB032F09D150F8042BEBE74FEA13630DE015F0FF0F05D10B684FEAE1
:20068000122223F07F4304E04FF00000FDE80445704712BA1BBA82FA4CF482EA0304A4FADB
:2006A0008CF5B5FA85F402FA04F203FA04F34FEA1260FDE80445A0EB136070472DE9F04FC8
:2006C00089B00446944E95488A46002504F12007D6F80090206592486062022D12D0002017
:2006E000294603F061FFC0B2394602F0DFFF2C3701350028F1D08B488B4940F24C7203F06B
:2007000061F8FEE7204603F0D8FB30B920460021002203F09BF800283BD0012084F858002F
:200720008DF81300002008902046002101F018F97E49D6F80090096888420ED1484501D142
:2007400081460AE07A490968884206D008998146013108910899012916D10020CAF800400D
:200760004C25CDE90500CDE90300206A41788AF804104068CAF8080015F10C0005D06059A9
:2007800003F03CFD2C3DF7E7FEE7484609B0BDE8F08F204602F03EF80028BED00020CDE97C
:2007A00005008DF8120040F20110ADF8100001200390002001F02AFC0746023802280DD824
:2007C0002046012101F0CCF858490968884205D0574905270968884208BF01276FF00100D5
:2007E00084F858708DF8137050FA87F0032831D208A9012002F05AFF28B14A484A4940F271
:20080000DE3202F0DFFF07A9022002F04FFF28B14448454940F2E23202F0D4FFD4F828B044
:20082000414E00274FF00008C3451CD0606A394600EBC800456808982A4601F06DFE28B1D9
:20084000384831464FF47A7202F0BCFF2F4408F10108E9E7F8B201284FD005284DD0FF2025
:2008600084F8580042E0DDE9071200200023CDE9000702F09DFC78B12A4D2B4F40F29552E5
:200880002846394602F09EFF2846394640F2A37202F098FF204E25E0206D002142680798B5
:2008A00001F03AFE28B11F481F4940F2374202F089FFD4E91401036800EBC10050E902120C
:2008C0000798C91A01F028FE134E28B11548164940F23F4202F076FF089803F08FFC0798B2
:2008E00003F08CFC94F85800FF2806D111480E4940F2BA7202F066FFFEE70021012808916E
:200900003FF412AF03AA2046002102F09FFF00287FF423AF08E700BFA0690020005000206B
:2009200000400020A4490000BB460000A8690020A4690020A64700002DE9F04FADF5077DA3
:20094000D0F8008006461C4615468691404603F0F0FD4FF0000A08EB00090027CDF814A2E2
:20096000C8453AD208F1010B8DF810A2CDF804A21BF8010C88B3252807D02946C6F800B05B
:20098000A0470BF1010B0137F2E70BF101088597C6F800809BF8000073288DF8100207D15B
:2009A00086A9284685AA234600F01CF8859F10E00DF1060B81A986AA584600F033F8909B9D
:2009C0000246584629469847411C18BF384407468590781CC4D14FF0FF3738460DF5077D2F
:2009E000BDE8F08F2DE9F041804608681746021D0A6005688DB128461C4603F09AFD06461F
:200A00003868304438600027B742A8BFBDE8F081E85D4146A0470137F6E700204146BDE879
:200A2000F04118472DE9FC4115460E46002740F2FD1120220446009703F0CCFD04F5FE7077
:200A400084F8FD710190307B25284ED004F2FD18782803D0642818BF6F280DD1694601AA55
:200A600030462B4600F046F80098A8B101982D21002700F8011911E063280ED12868011D47
:200A8000296004F2FB110068019184F8FC01C0B2B0FA80F0470900E000270198A8EB000148
:200AA00025464FF4FF73621A0029D8BF551C411C00220026284603F0B1FB0FB100F8016B93
:200AC000A04207D8211A01382022013103F082FD00202070291B2046202203F07BFD20468E
:200AE00003F027FD3844BDE8FC81252020800120BDE8FC81F8B50D46077B19461446064692
:200B000000F014F8317B642905D1B0F1FF3FDEBF0121296040420A2122466F2F08BF082100
:200B2000782F08BF1021BDE8F8400FE0007B642807D06F2805D0782803D070281CBF0020FA
:200B400070470868021D0A6000687047F8B514460D46064620B92068411E2160302101701D
:200B6000094F66B13046294600F010F821684A1E226000FB15620646BA5C0A70F1E7206808
:200B8000BDE8F84003F0D5BC12490000102904BF00097047082914BFB0FBF1F0C0087047CE
:200BA0002DE9F04FBDB07C481C4691460068049003F046FD489820B14999012901DB03F0B8
:200BC000F3FBB9F80800D9F80C10DDF82881DDE9467B00250844B9F80A1000EB010AAA455B
:200BE00011D9AAEB0506204629463A465E4528BF5E46334602F0CAF940B93846314603F0D9
:200C0000D3FB3544EBE705A803F0B6FB03F016FDAA4517D8B8F1000F04D005A94046202284
:200C200003F010FD0020494622464FF6FF7300902DA801F05FFB28B9329D204603F008FD28
:200C4000854204D9544800683DB0BDE8F08F53480DF1D0090DF1CE0AD0F800B00020039068
:200C60002DAE33AF4FF0FF383046494652463B46454601F019FA0028E4D440F08380BDF8CC
:200C8000CC00222806D14FF0FF38002DECD45D45EADA5FE001281BD01028A846E4D1BDF8BB
:200CA000CE002028CED1349920460DAA202302F06DF90028C6D105A80DA9202203F0C6FCE1
:200CC00038490122A846039209688842CCD05FE0BDF8CE30202BB5D8349920460DAA02F070
:200CE00055F90028AED19DF8CE60202E02D94FF0FF382DE04FF00008D84522DA284850F878
:200D0000381000EBC8004568029103F099FC2968029803F049FB35AD284603F02DFB9EB1F4
:200D200028460DA932460B7805789D4206D1013A00F1010001F10101F5D107E008F1010891
:200D4000DAE74FF0FF3801E04FF0000803F076FC2DAE89E7BDF8CE30802B3FF673AF349902
:200D600020460DAA02F012F900287FF46BAFE8B2BDF8CE302021009005A80DAA00F0DAF860
:200D800004906FE7039800283FF45CAF04985BE7014800680490F9E7A0690020AC49000047
:200DA00084490000A86900202DE9FE4FDDF83890074600208A46154611461C4601903846D5
:200DC0004A4602F013FE594EDDF8308030680004FCD403F09BF806281CBF0D20BDE8FE8FFA
:200DE000504629464A4602F001FE30680004FCD403F08CF806281CBF0E20BDE8FE8F01A878
:200E000049463A464B460090384602F01DFB30680004FCD403F0F5FB454802A9834601F0D9
:200E200023FA002870D1029901A822464B460090584602F091FA30680004FCD43C4C03F05D
:200E4000E0FB02A9204601F00FFA00285CD1029901A83A464B460090204602F0F5FA306893
:200E60000004FCD403F0CDFB02A9204601F0FCF9002849D1029901A842464B460090204657
:200E800002F06AFA30680004FCD403F0BAFB02A9204601F0E9F9B8BB029901A82A464B464C
:200EA0000090204602F0A8FA30680004FCD404F50074019AC821204603F03AFA20BB01A83A
:200EC000494652464B460090504602F0BDFA30680004FCD4164F03F094FB02A9384601F01E
:200EE000C3F988B9029901A82A464B460090384602F082FA30680004FCD40D4D019AC821EA
:200F0000284603F015FA10B10120BDE8FE8F284621464A4602F06AFD30680004FCD402F031
:200F2000F5FF073818BF0F20BDE8FE8F1C500258006402582DE9F04395B080461C98414930
:200F40001746DFF804911E4651F8302001EBC000D9F80050406800920068141803F06CFBD6
:200F6000684614AA2146302303F048F828B103F061FB284615B0BDE8F0831498009904AAB2
:200F800001AB0C186846214601F008FB0028EED105980728EBD106982C49072203F094F94D
:200FA0000028E4D102980828E1D103982849082203F08AF90028DAD1684614AA214602F094
:200FC00025FF0028D3D114994129D0D100980144A142CCD101780429C9D1441CBD19302343
:200FE000CDE9004701A814AA294603F007F890B9149801990844A8420DD804AE01A92A46B6
:20100000304602F071FA30B906F1200001A92A4602F06AFA40B10F48D9F80050016828464D
:20102000884208BF0546A2E704AA2046414601F01DFF0849D9F8005000280968284608BF63
:201040000846EDE784490000A06900209C49000078490000A86900202DE9F04105460020EF
:2010600000297AD03E4F0C460021A7F10806072F88BF31468C4270D83A4800688047681E16
:20108000082105424FF0080008BF2846072D98BF0846E11D21F0070833490A7892B9002202
:2010A0000023072F88BF334613B9314B1A6007E02E4B2F4D072F9A602B6098BF16461E608D
:2010C00001220A702A4E4142421E3568ADB305F10806931903EA0107BE4210D005F110038D
:2010E000A7F10804A34201D90744F9E72C6807EB080324F0010434449C42E6D305E02B6831
:20110000374623F001034345DFDB284603F0CEF8B74218D0B81B2A68A0F10801296021F058
:2011200001016E1822F00101081A40F0010046F8080F284602F04EFF06E00E480068804753
:201140000020BDE8F0812E463046414601F0F4FC08480068804706F10800BDE8F08100BFB4
:2011600000400000B0690020C06900200000002060670020B469002070B5C0F381413B4D47
:201180003B4E022927D0012922D1296A8A031FD44FF48042C1F303333260802202EA5122F2
:2011A0001A44344BD3F8024024F08F042244C3F802200A0A01F0E701D3F8014062F3030406
:2011C000C3F801401A6822F0E7021144196002E04FF0004131604FF0A041C0F381500968C0
:2011E00009075CBF4021B1620C224FF40071C6F88010296AC90C62F39F01022886F8881182
:2012000025D0012808D028BB0420012102F0D2FB1B4802F0C3FF21E0012002F063FE04461A
:201220000420214602F0C6FB042002F05BFEA042FAD11148046824F07F4002F0AFFF0F4AC3
:20124000200E072103F014F94FF4806030600420032101E00420022102F0ACFB286809499A
:2012600000F03F0008700848006870BD6C0B005080A00C580A6008581400005000C0006049
:20128000BD3786000BB00C402C200940F8B50546084601F061FF384C384F024618212046AF
:2012A000B84703F0A1F880B22C2140F2FF3200230090204602F0ECFD314E20461C21F26851
:2012C0006FF39F32B8477068142120F003322046B84730682B4900EA010220461021B84796
:2012E000284601F0B3FE024620460C21B847264F212D0BD9F069022101EAD060082120304D
:201300003872F069400F61F35F0002E02220387211203872284602F031FF02462046282198
:20132000FFF75CF8202D05D3B06A062101EAD040603000E06020212DF8720CD9F0690821F3
:2013400001EA1060FC2180303870F06901EAD0400E49084303E0802038704FF47C400C4948
:20136000202D088026BFB06A02030A4A08212046BDE8F840FFF732B800A00C58DD03000010
:20138000700B0050FFFFFC0041A20C5800FCFFFF5CA30C5800803F402DE9F841404C65683D
:2013A0002D0444BF0820BDE8F881256815B10120BDE8F881E468240444BF1120BDE8F8815B
:2013C00068B300F0030E4FEA930C4FF000086F460446E04512D052F82850BEF1000F07D075
:2013E00000950025042D05D07E5D66550135F9E740F82850043408F10108EAE713F0030EB2
:2014000012D023F003039C5818446B460094744664B113F8016B013C00F8016BF8E74FEA3D
:20142000930C03F0030E01E04FF0000EBEF1000F704618BF012081B360446E460C4600F0A1
:2014400001031844002302EB800001F00302083063450FD050F823703AB100970027042F30
:2014600005D0F55DE5550137F9E741F8237004340133EDE7BEF1000F0FD050F82C00009046
:2014800001EB8C006946BEF1000F06D011F8012BAEF1010E00F8012BF5E70020BDE8F88170
:2014A00018500258B0B53048056802F087FE02F069F82E482E4C0068C00706D06068B5F1F3
:2014C000FF3018BF284600F053FD2A4800210160206800F44050B0F5805F06D12068264906
:2014E000084000F5003121602060244C206840F080002060142002F01FF8206840F4E0205C
:201500002060206840F0010020601D48006800F44000B0F5000F02D11A4802F03FFE1A4897
:2015200001680907FCD41A49184801F1080201604260CA1C07318260C160164901F11C0210
:2015400002614161144981614031C1611348144981604FF4C40141604FF4A30101602068A2
:2015600040F002002060B0BD1C0B00500C400940280009588C210858EFFFFCFC0020095843
:2015800004000050BD37860000400340A0620858000F0B00001C090040C00A002C100E58AD
:2015A000F00140002DE9F84F394C4FEA910C00284DD0144400F003084FF0000B814604F5A0
:2015C000805EE3451AD0B8F1000F0CD04FEA8B0A00244E460027202C09D016F8015BA54066
:2015E00008342F43F7E750F82B704FEA8B0A4EF80A7009F104090BF1010BE2E711F003040E
:2016000024D0B8F1000F10D021F0030800250026A64208D208EB0607F1000136C75D07FAC8
:2016200001F10D43F4E700950CE050F82C00002500906846042C02D005550134FAE7009D26
:2016400021F003080CF1010C4EF80850104C4FEAB300032814D80FF20601DFE800F002079F
:201660000C0F90082060C4F810C009E090086060C4F814C004E09008A06001E09008E060A5
:201680000CF00100604402EB8000BDE8F88F00BF005002582DE9F047054638480C460068D5
:2016A0008047204601F012FC00285ED0D4E902010022AB5C0132002BFBD1A2F1010862692E
:2016C00002F00702042A0DD100264746002F4ED02068A9193A4602F0C5FB002841D43F1AF1
:2016E0000644F3E7A1EB00094646002E3FD04E454F4638BF3746616901F00701022912D1FB
:201700003FB100216A5C0A2A07D001318F42F9D109E04FF0000A002707E06A1803D04F1C1A
:201720004FF0010A01E04FF0000A29463A4602F089FFA068F61B3D44BAF1000F3844A060FC
:2017400002D1B9EB0709D0D1204601F0A5FE40B96269D4E9020142F02002A1EB0009626137
:20176000C3E7606940F4806060614FF0FF380448006880474046BDE8F08700BFB069002096
:20178000B469002068B3F8B50446364800688047354A083C00211368A24223F0010004D220
:2017A0001044114608300246F5E72F4D2F4E10447719072E88BFA7F108050830A84288BFBB
:2017C0000020A24249D1DA0747D059B10A680D4612F0010218BF002530B91ABB00260D46EC
:2017E00008E07047F0B1002501780646C90718BF00262DB1284602F059FD0EB3012703E092
:2018000086B1002500270646304602F04FFD6FB129682068103120F0010021F0010108445B
:20182000316812E0206820F0010007E021683068083120F0010021F001010844206009E06A
:201840002068296820F00100083121F001012C4608442860204602F0BDFB05480068BDE862
:20186000F8400047B06900200000002000400000B469002070B5364E344C049DB0421ED069
:20188000344EB04232D0344EB04246D0B0F1804F5BD1481C1CBF314844F82100501C1CBF50
:2018A0004CF20A0044F82200581C1CBF4CF20B0044F82300681C48D04CF20C0043E0481C1E
:2018C00003D02648343044F82100501C1CBF4CF23E0044F82200581C1CBF4CF23F0044F8DD
:2018E0002300681C31D04CF240002CE0481C03D01A48183044F82100501C1CBF4CF22200D1
:2019000044F82200581C1CBF4CF2230044F82300681C1AD04CF2240015E0481C03D00F4807
:20192000303044F82100501C1CBF4CF23A0044F82200581C1CBF4CF23B0044F82300681C22
:2019400003D04CF23C0044F8250070BD0010084000A00040008000400090004009C00020FB
:20196000F0B587B007462F480C460668002002F01BFEC0B206A901F099FE00284FD138466D
:20198000214601F025FEF0B12C2004FB0075287CC00618D4CCB1387D97F84010814214D855
:2019A0000AD3787D97F8411081420ED804D3F88AB7F84210814208D23846002101F008FE3F
:2019C00018B1069822E0012626E00020069B00212A460490CDE902004FF4807001901348B4
:2019E00000900020FFF7DCF82968114A0646069891420AD1E9682A89891806D282689142AF
:201A000003D20C4909688E4206D01CB18268002100F082FD04480668069802F0EFFB304694
:201A200007B0F0BDA0690020A4690020206500203DB8F396A86900202DE9F047DFF8C08034
:201A400004461E4617468946D8F800008047206801304CD0042F01D0002E48D0254655F83E
:201A6000040FD5F810A060B15FEA0A7102D50138FFF788FE00202AF0080AC5E90000C5E9CD
:201A80000200002F2AF0070008BF0127B6F5807F40EA070A3746C4F814A028BF4FF4807712
:201AA000B9F1000F18BF012E0BD10137384602F0B1FD2860C0B101304AF008016161606046
:201AC00002E009F101002860C11920610139C4E902010C4800688047D8F8000080470A48F0
:201AE0000A490024016004E04AF4806060614FF0FF340448006880472046BDE8F08700BF1D
:201B0000B0690020B469002098690020353B00002DE9F0472E4E8946099F31683160A7F1BC
:201B200008014FEAF105072D40D8E9B28B2424FA01F1C9074FF0010146D0264CB9F1000F75
:201B4000DDE90AECDDF820A054F8254018BF44F00044C6F880400324C6F80841C6F80011B9
:201B6000BCF1000FD6F8041141F00101C6F804114EEA07017160184911F80580514618BF52
:201B80000121BEF1000F08BF5146BAF1000F18BF51466AB1BEF1000F0AD106F140074FEAB4
:201BA00098052DB110CA013D10C7FAE701210BE0BCF1000F03D0DA00B260802232604A468E
:201BC000434602F0CBF800210846BDE8F08700BF8046025874480000944900002DE9F04777
:201BE000054627200C4600F0FFFE2B4F0026DFF8ACA03989BE707E608AF800600819402818
:201C00000FD329B307F11008C1F1400608EB01002946324602F016FD00204FF040093881BD
:201C20001AE0781829462246103002F00BFD3889CAF808602044388102F0DBFC18490120B6
:201C4000787008604A6842F001024A60C8601DE024F03F06A846B146A01BA919CAE90110FF
:201C600002F0C7FCF86807F1500128B1404608224B4602F075FB04E0404608224B4602F073
:201C800063FB01207870F8684844F86002F0B5FCBDE8F04700F006B8C06600208469002019
:201CA000804702582DE9F84F2A482B4E284DDFF8ACA04FF0000B8046841C06F1500006F135
:201CC00010090090404602F049F9AF682C6002F090FCB07898BBB7F1FF3F17DDDAF80870E1
:201CE0001FB3402F16D327F03F07DAF80400009908223B4602F034FBDAE90101C91B3844FD
:201D0000CAE90101F0683844F06018E04FF0FF3070600AE0DAF8041048463A4602F092FC56
:201D20003089CAF808B03844308186F801B09AF80000012804BFA6F808B0C6F80CB002F0D4
:201D40005CFC70780028BDD17068BDE8F88F00BF8847025801000080C066002084690020CD
:201D600070B586B0044680680D4602AA1023A0F11001204601F00AF9002842D402AE204654
:201D80001022314602F0FEF808B103210DE0224A0021535C705C984203D101311029F8D1FE
:201DA00003460221984208BF012129700DF1070201230126A068283820F00701204601F032
:201DC000E5F8002824D49DF8070001220126010900F00F00297168700DF10701204602F047
:201DE000D1F810B96878052802D300206E702871A068A91C203820F00702204601F04AFEFB
:201E000008B1012604E0E91C204602F0C7FB0646304606B070BD00BF34490000F0B585B024
:201E20000446272000F0E0FD264E00200125B07070602548057002F0DCFB7570F0683289F7
:201E400060B192B10821831806F11000CDE9002106F15002214602F045FA2BE006F1100099
:201E60002146082302F04BFA24E0C00006F110050027402102902846039702F0C7FB802053
:201E8000307406F1480002A93A1D07D0CA19013FD378D27900F8012BC370F5E706F1500152
:201EA0002046202202F0CEFB284621460822402302F056FA02F0A1FB05B0BDE8F040FFF70D
:201EC000F1BE00BFC066002084690020FEB5054606200C4601F0CAFE062001F051FC012885
:201EE000FAD14FF4A06002F029F91D4F1D4E0120386030688007FCD54FF4807002F01EF904
:201F00000120386030688007FCD5174E40F2FF110022042330688843144930600520306221
:201F20000820CDE900504FF0804001F0E9FD4FF08040082109224FF0FF330094FFF79AFCB9
:201F4000D6F8DC0040F00100C6F8DC0002AC4FF08040214602F052FA0028F8D1FEBD00BF4F
:201F6000282008602820084028000040006CDC0270B504464FF0A0401F4E006880071D4820
:201F800005D44168F02242EA114186F84D101B494FF001220A601A4909880568284600F065
:201FA00035FFA80105D4E80103D5307840F00200307020462946FFF769F91248124A0068E5
:201FC000C0F305311170C1054FF0130158BF232140237354382101EA901000F56050A2F8D6
:201FE0005C002846FFF7C8F80220BDE8704001F0C5BC00BF040000500962085804A40C588E
:2020000000A00C580C0C00500EB00C40F0B585B003A9012002F006F820B901A9022002F01C
:2020200001F810B1FF2005B0F0BD9DF80C109DF80E209DF80F309DF804409DF807C0194E81
:202040000020122825D0375C042F06D0052F02D1012902D11BE08F4219D137187D78042D66
:2020600006D0052D02D1012C02D110E0A5420ED1BD78042D18BF9D4209D1FD78042D18BF5C
:20208000654504D13D79042D18BF954203D00630D7E70120C7E77879811E032928BFFF20D4
:2020A000C1E700BF004900002DE9F84380B30446006868B3606858B3894621691F469046B8
:2020C0006D464FF6FF766069814238D22068408920B1E068814204BF0431216160682A461E
:2020E000042300F053FF98B9A07A18B1D4E90301814224D22089B0420ED0BDF800108142C8
:202100000AD02069BDF802100844011D2161DAE74FF0FF30BDE8F88317B1BDF80000388025
:2021200020690430C9F80000BDF802002169A8F800000844043020610020BDE8F8830120DE
:20214000BDE8F88370B502F054FA1E4E307810B14FF0FF3432E00025012475703470B570A9
:2021600002F04BFAF560358102F043FA164E0420347001F005FB012808D00420357001F016
:2021800075FD042001F0FCFA0128FAD14FF4806001F0D4FF4FF4806001F0E0FF4FF48060D1
:2021A00001F0BCFF09480460094801688907FCD50848094A002401681160046002F01DFA95
:2021C000204670BDC0660020BD690020282008602820084034EF00E0586700202DE9F84F61
:2021E0000D461E490969090444BF0820BDE8F88FDDE90C6A1F469346DDE90A980022002328
:202200003146FFF7CFF9164C0246384631460423A047024648463146FF23A04702464046B8
:202220003146FF23A0470246284631460823A047024658463146FF23A047BAF1000F03D0EC
:2022400008490144CAF800100449800808604FF4504008610020BDE8F88F00BF0C500258DC
:20226000CB45000000600258F8B5204B1C68240444BF0820F8BD9B681C042BD41C4C6FF304
:20228000DF2301331444B3EB940F3CBF1020F8BDA4081B1B0C68B4EB830F24D39C000C6009
:2022A000F8B100F0030C00246D4606469C4218D052F82470BCF1000F07D000970027042F2B
:2022C00005D0E95DF1550137F9E740F8247004360134EBE70A6832B108B1002202700120B5
:2022E00008600020F8BD0320F8BD00BF1C50025800A0FDA72DE9FC4180B10D4671B11646AB
:2023000062B104462889E9681F4601AA042301EB00083046414600F039FE18B14FF0FF30D8
:20232000BDE8FC81BDF8040046F60812698990420ED1BDF806008142F0D1414401AA3046E4
:20234000042300F023FE0028E8D1BDF8040001E00029E3D146F607118842DFD10898BDF8CA
:2023600006102781C4E90056A07208F10400206168894044E060084460610020BDE8FC8108
:20238000F0B504680B1B012B36DB94F90050002D0AD4631C03602578C91A002015608D421B
:2023A00088BF6FF05F00F0BD05F07F05013D032D84BF6FF06300F0BDDFE805F0021C0814DC
:2023C000022B19D36578A31C0360E5E7042B13D3A6786578231DE7780360300240EA054066
:2023E000C519D9E7052B07D3D4F80150631D03602DBAD1E7032B02D26FF05F00F0BDB4F87D
:202400000150E31C03606DBAC6E770472DE9F84F16461D4A0D461169090430D40C9FDFF8FE
:202420006CB099469046DDF828A00022002300243946D847024628463946FF23D847024669
:20244000504639460423D84702460B983946FF23D8470246304639460823D8470246484619
:202460003946FF23D8478108C8F80010084908440D9908604FF43040C8F8100000E0082409
:202480002046BDE8F88F00BF0C500258CB450000006002582DE9F84F06461E4815460C46AF
:2024A0004FF002094FF0000AE846834664B300F0ADFB48BB01F068FC30BB300A8DF8009051
:2024C0008DF803608DF80200300C8DF80100F0B28BF800A0C0F580774046BC4238BF274672
:2024E000042101F063FD60B92846394601F05EFD38B90121E41B3E4458463D448BF80010CE
:20250000D4E701208BF80000B4FA84F04009BDE8F88F00BF142002402DE9FC411546426838
:20252000019054184178802919D07F2913D119486619006887B201F065FB174D8046B442D5
:202540001FD228684169204688473C440006F6D0404601F08FFE4FF0FF30BDE8FC810C49E6
:20256000097831B9007801A901F0A0F808B1BDE8FC812046294600F011F980F00100BDE885
:20258000FC81404601F076FE0020BDE8FC8100BFBC690020F0230358A8010010F8B51C4657
:2025A00017466A4630230E46054601F027FD00B1F8BD2868311A0129BCBF6FF05F00F8BDAE
:2025C00001783A46062302C2009946182846314601F014FD0028EBD12868B860786829683A
:2025E0000844B042286015D010F8011B2246286002C228463146FFF7C3FE0028D8D128685B
:20260000A0606068296808442860801B18BF6FF06500F8BD20460C2101F00EFF0020F8BD3C
:20262000F8B51D4B1C68240444BF0820F8BDDB681C0426D4194C6FF3DF231444A3EB940356
:202640000C680133B4EB830F24D39C000C60F8B100F0030C00246D4606469C4218D052F8C7
:202660002470BCF1000F07D000970027042F05D0E95DF1550137F9E740F82470043601348E
:20268000EBE70A6832B108B100220270012008600020F8BD0320F8BD1C50025800A0FDA786
:2026A00010B501F0A6FF184C607808B101F02AF900201749207015480068086001F09DFFEC
:2026C00001F097FF1348007838B9042001F0FEF9042001F055F80228FAD14FF4806001F038
:2026E000C7FC4FF4806001F0D5FC4FF4806001F0ADFC094801210160084801688907FCD587
:20270000BDE8104001F079BFC06600205867002034EF00E0BD6900202820086028200840ED
:20272000F0B500F01F001A49152888BF60F01F000A7802F01F02152A88BF62F01F0290422F
:2027400024D0144B144D1F689C4617F0800627F0100412D027F090076346CCF800702F68A0
:202760000BE04FF0FF37C8BF01270B783A4402F01F0703F0E0033B440B70AF689042F0D1B7
:2027800026B1A868A868CCF800402868F0BD00BF06620858280009582C2009582DE9FC47EB
:2027A000202201441A4C4FF000090DF104084FF0010A00278DF8042040F6FF7220EA020508
:2027C000E843084400F6FF70060BBE421AD000F01DFAB8B901F0D8FAA0B9280A04218DF8B2
:2027E00007908DF80600280C8DF80500404684F8009001F0DBFB84F800A018B9013705F581
:202800008055E2E70020B74228BF0120BDE8FC8714200240F0B5816AB1F5007F04D8D0F802
:2028200054C0BCF5007F01D90020F0BD002300260024002500278C4228BF65451DD29E42C6
:202840000AD010D2022FEFD0426A012702EBC402013452681644EEE7466A06EBC406013487
:2028600076681E4402E0012FDED00227026D02EBC502013552681344DDE785EA0C006140E5
:202880000843B0FA80F04009F0BDFEE7F8B506680446701C04D06569204600F0FDFD18B14C
:2028A0004FF0FF352846F8BD207D05F48057000707D560680138FEF765FF606920F00800F7
:2028C00060610020C4E90100E060206800F02EFB05464FF0FF30002F2060E3D005480068B8
:2028E0008047054800EB061001F0B6FE034800688047D7E7B069002020660020B4690020CA
:202900002DE9F047DFF85CA00446DAF8000080474CB1204600F0C0FD0446154800688047CE
:202920002046BDE8F087DFF84080104DDFF8409000240027D8F800008742EEDA296801310B
:202940000CD0DAF800008047284600F0A5FD0646D9F800008047D8F8000034431835013752
:20296000EAE700BFB0690020AC69002068670020B46900202DE9FC41154642681C460190E2
:2029800056184178802914D07F2923D101F03AF98046144831462246006883692846984721
:2029A0000746404601F066FC002F18BF4FF0FF3712E00B49097829B9007801A900F076FE47
:2029C000074648B9304621462A46FFF763FD80F0010701E04FF0FF373846BDE8FC8100BFD9
:2029E000BC690020A80100100F280AD005280FD0062812D0042816D11648016821F480310C
:202A00000FE0124812490A5822F002020A5070471048016821F4003103E00E48016821F4CB
:202A2000802101607047A0F110011F2904D801208840074908607047302805D33038012105
:202A400001FA00F002494860704700BF90FEFFFF80E100E024ED00E0BCB51648164D04210D
:202A600001900020287001A801F0A0FA10B10120287007E0114C0221204601F0A9F80121DE
:202A8000297008B10020BCBD0D4B2278647803F12001186840B11D79AA4202D15D79AC42DE
:202AA00001D00833F5E71946064A0028116018BF0120BCBD90FFFF00142002406467002086
:202AC000A8470000B8690020F0B540F6FF7C10F8013B0024082CFAD00646DF0716F8015B6E
:202AE0000DD1467806F00F070337122F0DD190F90220D7B2B2F1FF3F09DD03300DE001F8C1
:202B0000015B304601345B08E4E7023006E0C27807F07F07043047EAC2171237320942EAC3
:202B20000515654508BFF0BDED43002FEAD04A5D013F0A700131F8E7F8B50D46016804461F
:202B400021F00100401B102824D31449144A5318072A88BFA3F108016619083846F8080F8A
:202B600020F00100304400F108078F420ED23878C0070BD1384601F099FB31683868083157
:202B800020F0010021F0010108443060304601F021FA294641F001002060F8BD00000020BD
:202BA00000400000BCB517480A21FFF78FF9142001F006FC144C0125AB20012125708DF8A8
:202BC0000700002020700DF1070001F0EFF9257088B94FF4C870ADF80400BDF80400BDF8F8
:202BE000040028B1BDF804000138ADF80400F6E700F00CF818B101F01FF80020BCBDFFF72C
:202C00002BFFBCBD00093D00142002402DE9F843174E05204FF000088DF8030086F80080AD
:202C200001F000FC4FF001090DF103040DF10205022786F800902046012186F8008001F0A6
:202C4000B5F92846012100F0C3FF86F8009000284FF001009DF8021008BF27EA4100002826
:202C6000E9D002280CBF00206FF00100BDE8F8831420024070B50646164814460D460068AC
:202C80008047306801301DD0012C07D1307DC00604D5B06810B131692844451A304600F0C2
:202CA000FBFB71693068224621F420617161294601F096F80446084800688047601C18BFD2
:202CC000002404E00448006880474FF0FF34204670BD00BFB0690020B4690020FEB501681B
:202CE00004460026885D18B13A2803D00136F9E7134D22E0124D8F191FD0082EA8BF082647
:202D00008EB10DF10300324601300B7800F8013C23B101300131013AF7D104E0022A02D3F3
:202D2000511E01F073FC0DF103000021815501F041F810B1791C054621602846FEBD00BF98
:202D40005868002070B59AB0064614480D460068804701AC3146204601F0E4FB304601F039
:202D6000F6FB064620442946013001F0DBFB284601F0EDFB0A4D30442246831CF7202946AC
:202D800000F0F2FE2846002100F088FF0548B5F900400068804720461AB070BDB06900204D
:202DA00050670020B469002070B5164D0024032C0ED055F8243001341E788642F7D158787A
:202DC000802808D07F2803D10F48006880B204E04FF0FF3070BD4FF48050D3E90143002550
:202DE0000344013BB3FBF0F3AB4207D002EBC50642F83540044401357060F5E700200B60DF
:202E000070BD00BF24490000F023035810B5044680010FD4E0010DD5104880214FF6D8029D
:202E20000174A0F8512001700D480068C0F30460FFF776FC0B48016889070AD40A490A6878
:202E400022F020020A60610103D4016841F0050102E0016821F00501016010BD1562085894
:202E6000880B00501000095824500940F0B599B0064604200DF1070714460D4620228DF863
:202E80000700781C314601F0DDFB07F1210006F12001202201F0D6FB17AE39464122304605
:202EA00001F0BCFB0848CDE913651594129004F12000169012A8FDF723F9002818BF4FF0DE
:202EC000FF3019B0F0BD00BFD047000010B504460068013028D06169C80622D4080605D561
:202EE00020460021022201F0B5FB6169880604D4480644BF41F020016161626801206AB9E3
:202F000011F004020AD101F00702204600214FF48073FEF791FDB0FA80F04009E168216167
:202F200010BD41F480606061002010BD70B5002802D40546092802D94FF0FF341DE01048C0
:202F4000006880470F4E56F8351089B106EBC500096940688847044601300BD056F83500A0
:202F6000002146F83510418921F00101418101E04FF0FF34044800688047204670BD00BFEE
:202F8000B069002034690020B4690020F8B5154642681C4600905618417880290BD07F2907
:202FA0001CBF4FF0FF30F8BD28463146224601F049FB0020F8BD0C4F397839B100F03CFE9C
:202FC000FFF7F0FD40B10120387005E00078694600F06CFB00B1F8BD304621462A4600F04E
:202FE00013F980F00100F8BDBC690020F8B500F081FB01F0DFFA01A801F0F0F8B0B90198F3
:2030000011490068884211D1072003214FF4FA7200F096FC0198039900890A58084482F3E5
:20302000088840688047002004B080BD00F062FB06200A21322200F083FC062002214FF493
:203040007A7200F07DFCF3E73DB8F396B0B5154C4FF0A045D4F8702B2D68C2F30341C2F32F
:203060000353ED0712D12468250401EB25710F2521EAE1710F2928BF2946240503EB24731F
:2030800023EAE3730F2B38BF1D462B461B0543EA014193B202F080422128194488BF1143FF
:2030A0000846B0BD08000050F8B50646114814460D4600688047104F200A00220023F87198
:2030C000280E3946BC71BD703E707871280C3871280AF870300A7870F42000F045FD3846ED
:2030E000002100F0DBFD05483C68006880472046F8BD00BFB069002050670020B4690020A0
:20310000F8B50646114814460F4600688047104D380A0023E870200AAF702C706870F05C5C
:2031200001330028FBD1F0202946324600F01CFD2846002100F0B2FD0648B5F90050006885
:203140008047002D48BF2C462046F8BDB069002050670020B4690020144983030968C1F392
:203160008F22C1F383611DD440F30720002817D5520805D1490806BF012201214FF6FF7266
:203180000130F3E752000132B2F5803F07D349000131102926BF0F214FF6FF720122013884
:2031A0000128EFDA42EA0140704700BF500B00502DE9F84FDDE90AB6124F994690468A46C6
:2031C0000024B4421AD2351B04EB090150463A46B5F5806F28BF4FF480652B46FFF7D6FEA7
:2031E00048B904EB0B0140463A462B46FFF7C2FB2C440028E5D00120BDE8F88F0020BDE84A
:20320000F88F00BF006000207CB515460C460646FFF7FCFC0146002001B17CBD03218DF8D5
:2032200007608DF80410310A8DF80610310C0B4E8DF805100421307001A800F0B7FE18B1AC
:203240000120307000207CBD2846214600F0C0FCB0FA80F00121400931707CBD14200240FE
:20326000F8B50646104814460D4600688047B4F5807F0E4F28BF4FF4807400220023200A8F
:203280003946BC703E70F870300A7870F22000F06BFC3846294600F001FD0548B7F90040CA
:2032A000006880472046F8BDB069002050670020B4690020F8B50646104814460D46006811
:2032C0008047B4F5807F0E4F2A4628BF4FF48074200A39462346BC703E70F870300A78701E
:2032E000F32000F041FC3846002100F0D7FC0548B7F90040006880472046F8BDB06900206C
:2033000050670020B4690020124A012908D1202811D32038012101FA00F05168084308E0BD
:2033200020280ED32038012101FA00F0516821EA000050607047012101FA00F01168084303
:2033400005E0012101FA00F0116821EA00001060704700BFD02002402DE9F041104F1646DD
:203360007A69120417D41D46DDF81880002200230024FEF717F90246304629460423FEF7E2
:2033800011F98108396007490844C8F8000048F21000786100E008242046BDE8F08100BF3B
:2033A00008500258006002582DE9F041104F16463A69120417D41D46DDF8188000220023E6
:2033C0000024FEF7EFF80246304629460423FEF7E9F88108396007490844C8F800004FF402
:2033E0007040386100E008242046BDE8F08100BF0C500258006002582DE9F041104F1646CB
:203400007A69120417D41D46DDF81880002200230024FEF7C7F8024630462946042301F096
:20342000D4F88108396007490844C8F800004FF40240786100E008242046BDE8F08100BF9D
:2034400008500258006002582DE9F041104F16467A69120417D41D46DDF818800022002305
:203460000024FEF79FF80246304629460423FEF799F88108396007490844C8F8000048F20A
:203480000100786100E008242046BDE8F08100BF085002580060025810B504460068411CCB
:2034A00004BF4FF0FF3010BD6269616893060AD549B1A3688B4206D05A1A00F0D3FC0028FF
:2034C0000CD4616862695006A16021615CBF002010BD22F030010020616110BD606940F4A8
:2034E00080614FF0FF30F7E77CB5134606460C46084601AA1946022300F080FD10B16FF06D
:2035000002007CBD019D202D06D3206820222844A0F12001304608E0C5F12001304601F028
:2035200075F8701B21682A46203001F08BF820682844206000207CBD0F2806D00E280AD1EB
:203540000E48016841F0006103E00C48016841F0007101607047A0F110011F2904D80120D9
:203560008840074908607047302805D33038012101FA00F002494860704700BF04ED00E035
:2035800080E200E010B50F4801680907FCD442680D494FF0A0440D4B2468114064070CD4E1
:2035A00004681943A4070AD003331A434260026802F00302032AFAD101E05A1C11434160E4
:2035C00010BD00BF00400340F8FFFFDF040000207CB5054600200C4600F0E6FFC0B201A904
:2035E00000F064F810B14FF0FF307CBD019800F05FFF0646019800F001FE2C20002204FBEF
:2036000000501146042A03D0435C4A1CB342F8D00020042938BF4FF0FF307CBDF0B5131885
:203620000D469C1E93081E4636B154F8027C043C013E3FBA80C5F7E702F00302032A05D039
:20364000022A0AD0012A0CD1007808E00278B0F8010040BA40EA024001E0008840BA41F8D7
:203660002300F0BDB0B50E4D012404202C7000F087F8012809D000202870042000F0F6FAA8
:20368000042000F07DF80128FAD140F2024000F055FD04480460044801688907FCD5B0BDC4
:2036A000666700202820086028200840B0B50F4B0022032A04BF4FF0FF30B0BD53F8224084
:2036C000013225788542F4D160780C60802802D1074C207808B10020B0BDFFF763FA90F0CB
:2036E000010004BF01212170B0BD00BF24490000BC69002080B5042000F0B8FA042000F066
:203700003FF80128FAD14FF4A06000F017FD084801210160074801688907FCD50648016894
:2037200041F040010160016841F08001016080BD2820086028200840D0200240B0B50446DC
:203740000C48006880470023E05C01330028FBD1094DF5202246294600F006FA284600219E
:2037600000F09CFA0548B5F90040006880472046B0BD00BFB069002050670020B46900207A
:203780000F49C3070A68496D01D1012106E001F0040102F00103C91818BF0121830744BFB2
:2037A00002F0020301EA5301400744BF02F0040001EA90010220002918BF0120704700BF5E
:2037C00040210840F8B516460C46054600F0B8FE0746204600F0B4FE3844263000F01AFFC4
:2037E00038B108492A4623460746009600F01AF900E0034F3846BDE8F84000F02DBD00BFAA
:20380000E84800007C470000B0B54FF4807000F02FFC0C4D0C4C0120286020688007FCD5C8
:203820004FF4A06000F024FC0120286020688007FCD5062000F04AF90620FFF7A1FF02286D
:20384000FAD1B0BD28200860282008402DE9F04116468846044600250746022D09D0204655
:2038600029463A46334600F099F928B92C370135F3E74FF0000806E0B8F1000F18BF804688
:20388000002D08BF80464046BDE8F08180B50B48007838B9042000F019F90420FFF770FF32
:2038A0000228FAD140F2024000F0E2FB044801210160044801688907FCD580BD66670020C3
:2038C0002820086028200840B0B504460A48006880470A4DF1200022002329462C8000F0C0
:2038E00043F92846002100F0D9F90548B5F90040006880472046B0BDB069002050670020EE
:20390000B469002070B500F074FE0B4D687868B10A48012606602720FFF70EFE00246FF0E7
:203920000200AE70EC602C81686001E04FF0FF3400F063FE204670BDC06600204047025848
:203940002DE9F0470C4F14468A4606464FF000084FF001090025554528BFBDE8F087204691
:2039600006F8079000F09CFD204606F8078000F097FD0135EFE700BF00200240B0B50A49D5
:203980000A4A0B4B0C684D68AC42FCD1844208BFB0BD155C145DAC424FF0FF3538BF01253F
:2039A0002C441C5D0C60EDE700600C408C490000904900007CB50C4C06460D46C00707D0BE
:2039C000A8B20021012200230090204600F060FA700707D5A8B200210C22022300902046CF
:2039E00000F056FA7CBD00BF00A00C58F8B50C4F0E463968090410D41546114600220023A6
:203A00000024FDF7CFFD0246304629460423FDF7C9FD4FF40440386000E008242046F8BD6E
:203A20001C50025882B0F8B5CDE901010948CDE9062306A9084B0391009002A801AAFCF78B
:203A40007BFF019A0021117004B0BDE8804002B0704700BF91430000DF45000070B5094800
:203A6000094C84420BD0094D094EB54207D0F5E8020110F8012B54F822209047F5E700BFC1
:203A800000BF70BD3C4A0000304A0000444A0000544A000070B50C461146012306460125AA
:203AA0002246FFF773FA00280DD430462146012200F068FA08B1032003E02078012818BF89
:203AC000022000252070284670BDFEE7C1070B491CBF00220A60820744BF00224A6042076B
:203AE00044BF00228A60C20644BFC0F30142CA65800644BF00204865704700BF3021084062
:203B000010B51024042B08BF1424082B029B08BF08345B00C0F80441B1FBF3F10139C0F8D1
:203B200008110021C0F81411039901391143C0F8001110BD70B50A4C2046FEF7A7FE094DDD
:203B40001834012628688642A8BF70BD2168002903D42046FEF79AFE286818340136F2E79E
:203B600068670020AC69002070B50B4C207100202360082804D00D5C261801307571F8E7D0
:203B800004F10D002BB112F8011B013B00F8011BF8E700BF70BD00BF00640020BCB5002032
:203BA000144600F001FDC0B201A9FFF77FFD054648B90198002122462023FFF7E7F905465D
:203BC000019800F01BFB002D18BF01252846BCBD7CB50C46054601AE7CB14FF0804000216B
:203BE00000F034FC58B14FF08040314600F050FC0198013C05F8010BEEE700207CBD4FF09E
:203C0000FF307CBDB0B50B4C204600F039FC0546606840F030006060280608D02046002135
:203C200000F0CEFC204600F02BFC0028FAD1E8B2B0BD00BF004003407CB5B9200A4D00248C
:203C4000012101268DF807000DF107002C7000F0ADF92E70092C04D80134FEF7FDFE00285C
:203C6000F8D1FFF7D1FD7CBD14200240C1070A491CBF01220A60820744BF01224A604207E3
:203C800044BF01228A60C20644BF0122CA65800644BF01204865704730210840B0B50A4B96
:203CA00000241A68082C04D01D192D7905550134F8E741B103F10C002AB110F8013B013AC0
:203CC00001F8013BF8E7B0BD00640020BCB504464FF400700D4601905020012908BF2420E8
:203CE000225801A92846FFF75FF800B1BCBD5421012D08BF2821019A6250BCBD04460848A8
:203D000000688047074D696809B120468847286800B1804704480068804700F09FFC00BF93
:203D2000B069002098690020B4690020094880F308880948016841F47001016000BF00BF59
:203D400000F082FC08B1FFF789FE00F061FB0120FFF7D4FF0000042088ED00E0B0B5094C56
:203D60000325C4F88857D4F89057AD07FBD118B1012525606060E1601AB1012020626262A6
:203D8000E362B0BD00400258BCB50620084C012101258DF80700002020700DF1070000F073
:203DA00005F90028257018BF6FF00200BCBD00BF14200240F8B50446007858B1074F282646
:203DC000782E07D0BD1921462846FCF70DFB10B12836F5E700252846F8BD00BF58680020DE
:203DE00010B500280CD409280AD8074C54F8303033B104EBC000DB694068BDE81040184711
:203E00004FF0FF3010BD00BF34690020B0B503231546044600F0F2F800B1B0BD286820B162
:203E2000013828602068017811B16FF06700B0BD013020600020B0BD1CB501900748006874
:203E4000804701A8FEF74AFF016A01988847044603480068804720461CBD00BFB0690020E6
:203E6000B469002010B500280CD409280AD8074C54F8303033B104EBC0009B694068BDE842
:203E8000104018474FF0FF3010BD00BF34690020B0B50F2B1C46049D00EB410084BF120C8D
:203EA000103C0F2B05FA04F444EA02424FF4806488BF40F204440251B0BDB0B5012104469A
:203EC0000125FFF703FF58B920460221FFF7FEFE08B1012504E0206A00F0DAF90025E065BE
:203EE0002846B0BD80B501460748042904D13C214FF0C0421D2303E03C214FF080521C23AC
:203F000000F09BF980BD00BF00A00C5807480168090444BF082070474068013803288EBF1D
:203F20000120034951F82000704700BF1C5002584449000010B521F00303002400229A42E4
:203F400002D284500432FAE78B0706D0043A8A4203D210F822300132F9E710BD70B5084EA6
:203F6000044600F00305012000F05BFB30680542F9D0306846F8084C31680D42FCD170BDE4
:203F800090470258B0B579B114466AB10D4600F08FFA0146B4FA84F0400924B115F8012B60
:203FA000013C8A42F6D0B0BD0020B0BD7CB50C46054601AE64B115F8011B4FF0804000F08E
:203FC000A3FA4FF08040314600F062FA013CF1E700207CBD10B50168074A21F00101136807
:203FE0003BB11C6824F001048C4202D203F10802F5E78360106010BD60670020B0B50468E4
:204000000D1B012DBCBF6FF05F00B0BD25789D421CBF6FF06100B0BD631C0360BDE8B040A9
:20402000FEF7AEB91CB50C46C0B201A9FFF73EFB08B1012407E001982146FDF791FE044624
:20404000019800F0DBF820461CBDFEE700F01F010122C0F3032002FA01F1044A52F8200031
:20406000026822EA01010160704700BF9448000000F01F010122C0F3032002FA01F1044AD0
:2040800052F82000026822EA01010160704700BFB048000000F01F010122C0F3032002FA6A
:2040A00001F1044A52F82000026822EA01010160704700BFCC48000010B562B10C7803781C
:2040C000A34206D1013A00F1010001F10101F5D11C46181B10BD002010BDFEE710B50446FA
:2040E00000F00CF8201F0B288EBF4FF0FF30024951F8200010BD00BF4C470000B0B5064C15
:20410000256845F400202060402000F08AFA25F400202060B0BD00BF3C20085800F01F01B4
:204120000122C0F3032002FA01F1034A52F8200002681143016070479448000000F01F011F
:204140000122C0F3032002FA01F1034A52F820000268114301607047B048000000F01F01E3
:204160000122C0F3032002FA01F1034A52F820000268114301607047CC48000020283CBF74
:204180000020704704484FF44071006801EAD041C0F3845008447047980B0050064982B2A4
:2041A000C0F307400A6048600120886088688007FCD50020886070477C600C580448054909
:2041C000006808400449884208BF7047FEE700BF180B005000F0FF0F0080B70BB0B5044694
:2041E00005486021051D284600F010FA28462146FCF764FAB0BD00BFD068002010B5407840
:20420000802807D1044C2078012803D1FFF714FD0020207010BD00BFBC69002010B553B1E8
:204220000130D2B20C78944200F8014C04D001300131013BF6D1002010BD08440F2B88BF36
:204240000230008888BF120C10400F2B80B288BF103BD84070470000054901F13004214647
:20426000FDF718FA2046FEF74BFB00F0F7F900BF6867002010B5054C18B12046012100F0B2
:204280009FF9606820F03000606010BD0040034041787F2901D1044800684FF0FF30802970
:2042A00008BF4FF480507047F0230358054A136833B1114603F108028342F8D1806808601E
:2042C000704700BF6067002010B50C780378A34206D1013A00F1010001F10101F5D11C46B8
:2042E000181B10BD1FB50124039400240294079C0194069C0094FDF70BFC04B010BD1FB5B6
:2043000014460122CDE90043CDE9022200222346FDF7FEFB04B010BDBCB5144605460191AC
:20432000FFF708FE01A928462246FDF79DFFBCBDBCB5144605460191FFF7FCFD01A9284649
:204340002246FEF76DF9BCBDBFB5CDE900320A4600240125CDE90254FDF7DAFB04B0B0BD35
:204360001FB5CDE9003200240A460023CDE90244FDF7CEFB04B010BD10B50446FDF7E2FECD
:204380002046FDF74BFD0446FEF78AF9204610BDB0B50D4601461446286800F053F92868D1
:2043A000204428602046B0BDB0B50C460546FDF7C9FE28462146BDE8B040FDF70FBC000058
:2043C00003494FF4404241F820200121FEF79CBF001008400348006800044FF0080058BF74
:2043E000092070471C500258034801680268C1F3870062F309207047500B0050D0F81021E5
:2044000052074FBF0020D0F830010860012070470349002912BF01C900200021FEF7E6BDF3
:20442000B84900001CB501AC4FF080402146FFF7E5FF0028F8D11CBD21B10A4602490B6813
:2044400000211847704700BFB0490000D0F81021920752BF0020C0F840110120704710B504
:2044600000239A4208BF10BDCC5CC4540133F8E71143024A42F82010704700BF001008407E
:20448000016808074FF0040058BF01F003007047D0F810215207FBD4D0F830010860704766
:2044A00040F6AA71484310B100BF0138FBE770474078A0F17F010020022938BFFF207047ED
:2044C00080B50A46D0F80310104600F09FF880BDC1694846CDF800B00B46FEF7B5BFC26950
:2044E0000868514610440130FFF798B82068DBF80020C1693046FFF71BBFC16902693046F4
:20450000CDF800B00B467047D0F810219207FBD5C0F84011704700F06CF8FCF7C3FFFFF7FD
:2045200005BCFEE711F8012B00F8012B002AF9D170470021425C0131002AFBD1481E7047CD
:204540000021425C0131002AFBD1481E70470021425C0131002AFBD1481E704700239A4254
:2045600008BF7047C1540133F9E70B46D0F80320C11D184600F066B821682069CA69314652
:20458000FFF74CB82168E068CA692946FFF746B820680169C2693046FFF728BA8268183A13
:2045A00022F00702FFF776BA4FF0FF30032938BF481C704701480121017070470620024013
:2045C000426861F301024260704780B5FCF7EAFF083080BD0B4611461A46FFF7BFBF0A680D
:2045E000531C0B60107070478068283820F007007047EFF3108072B67047EFF3108062B6B9
:204600007047C820019A0290704700000A460021FFF7A4BF01460820FCF71EBDC0E9001255
:2046200070470138FDD17047FDF71EBEFCF7B4BEFCF7B2BEFFF72AB9FFF714B8FEF730B8F5
:20464000FDF780BDFFF70BBF01207047FFF734BDFFF7CABFFEF70EBBFFF7EEBB00BFFEE72A
:204660003059301306072A8648CE3D020106082A8648CE3D030107034200042ACB403CE89D
:20468000FEED5BA44995A1A91DAEE8DBBE1937CD14FB2F245737E5953988D994B9D65AEB33
:2046A000D7CDD5308AD6FE48B24A6A810EE5F07D8B6834CC3A6AFC538EFAC1433A2F4769D9
:2046C000742F626C655F6167616D612F626C652D6167616D612F736F757263652F746869F4
:2046E00072645F70617274792F6D6375626F6F742F626F6F742F626F6F747574696C2F7307
:2047000072632F6C6F616465722E630096C298D84539A1F4A033EB2D817D0377F240A46316
:20472000E5E6BCF847422CE1F2D1176BF551BF376840B6CBCE5E316B5733CE2B169E0F7C30
:204740004AEBE78E9B7F1AFEE242E34FF9FFFFFFFFFFFFFFFFFFFFFFFFFFFFFFFFFFFFFF41
:20476000FFFFFFFFFFFFFFFFF9FFFFFFF9FFFFFFFAFFFFFFFAFFFFFFFBFFFFFF41737365E3
:204780007274696F6E206661696C65642C20282573292C2066696C652025732C206C696E00
:2047A000652025640A00300000002000C215000000001000C214000000000800EF120000CB
:2047C00000000400EF11000000000000000000000100000054480000F447000014480000A1
:2047E000344800000C4700002C4700002000000001000000FCFFFFFFFFFFFFFFFFFFFFFF65
:2048000000000000000000000000000001000000FFFFFFFF4B60D2273E3CCE3BF6B053CCAF
:20482000B0061D65BC86987655BDEBB3E7933AAAD835C65A512563FCC2CAB9F3849E17A7C8
:20484000ADFAE6BCFFFFFFFFFFFFFFFF00000000FFFFFFFFFFFFFFFFFFFFFFFFFFFFFFFF27
:2048600000000000000000000000000001000000FFFFFFFF0400000004000000040000002F
:2048800008000000040000000400000004000000080000005C200840802008407420084074
:2048A0006820084044200858502008408C20084054200840782008406C2008406020084080
:2048C0003C2008584820084084200840582008407C20084070200840642008404020085878
:2048E0004C200840882008406D616C6C6F63206661696C656420696E20617373657274006E
:204900000401040304020401040104030103030401043031323334353637383961626364CD
:204920006566000054490000604900006C4900000000000077C295F360D2EF7F3552500F6A
:204940002CB6798007000000060000000100000005000000007F000000000000006000008A
:20496000017F00000060000000600F00028000000000000000600F002A8648CE3D030107E9
:204980000000000060460000B44900000102000302000103201C1C401C1C1C302A8648CE86
:1849A0003D0201007263203D3D203000010000005D4500005B00000002
:0849B8000000000000000000F7
:2049C000005500000F0112014001018F012202C01502030F01240440FF000004BF02017FD3
:2049E0007EFE0EF7020001310000C9FF38000061320000B5FE0030A93000003D3700E70058
:204A0000452D039F0C01DF8601586800012000751BF100F11AFF020DDF2321012148141ED5
:204A2000F122350324400B2040003102B600FFF0C92A00006B450000C144000002000000DA
:144A400067270000C0490000686700203C4A000000400020F6
:020000045000AA
:20000000FDFF7C00FFFFBBF3100080FFFFFFFFFFFFFFFFFF00008001FFFFFFFFFFFFFFFFBC
:20002000FFFFFFFFFFFFFFFFFFFFFF00FFFFFFFFFFFFFFFF0000C5FF00C5C5FF000000FF87
:2000400000000000FFFFFFFFFFFFFFFFFFFFFFFFFFFFFFFF0004FEFF0000FCFFFEFFFFFFB9
:1C006000FFFFFFFFFFFFFFFFFFFFFFFFFFFFFFFFFFFFFFFFFFFFFFFFFFFFFFFFA0
:00000001FF
